{"contracts/Mytoken.sol":{"MyToken":{"abi":[{"inputs":[{"internalType":"address","name":"daddr","type":"address"}],"stateMutability":"nonpayable","type":"constructor"},{"inputs":[],"name":"ApprovalCallerNotOwnerNorApproved","type":"error"},{"inputs":[],"name":"ApprovalQueryForNonexistentToken","type":"error"},{"inputs":[],"name":"BalanceQueryForZeroAddress","type":"error"},{"inputs":[],"name":"MintERC2309QuantityExceedsLimit","type":"error"},{"inputs":[],"name":"MintToZeroAddress","type":"error"},{"inputs":[],"name":"MintZeroQuantity","type":"error"},{"inputs":[{"internalType":"address","name":"operator","type":"address"}],"name":"OperatorNotAllowed","type":"error"},{"inputs":[],"name":"OwnerQueryForNonexistentToken","type":"error"},{"inputs":[],"name":"OwnershipNotInitializedForExtraData","type":"error"},{"inputs":[],"name":"TransferCallerNotOwnerNorApproved","type":"error"},{"inputs":[],"name":"TransferFromIncorrectOwner","type":"error"},{"inputs":[],"name":"TransferToNonERC721ReceiverImplementer","type":"error"},{"inputs":[],"name":"TransferToZeroAddress","type":"error"},{"inputs":[],"name":"URIQueryForNonexistentToken","type":"error"},{"anonymous":false,"inputs":[{"indexed":true,"internalType":"address","name":"owner","type":"address"},{"indexed":true,"internalType":"address","name":"approved","type":"address"},{"indexed":true,"internalType":"uint256","name":"tokenId","type":"uint256"}],"name":"Approval","type":"event"},{"anonymous":false,"inputs":[{"indexed":true,"internalType":"address","name":"owner","type":"address"},{"indexed":true,"internalType":"address","name":"operator","type":"address"},{"indexed":false,"internalType":"bool","name":"approved","type":"bool"}],"name":"ApprovalForAll","type":"event"},{"anonymous":false,"inputs":[{"indexed":true,"internalType":"uint256","name":"fromTokenId","type":"uint256"},{"indexed":false,"internalType":"uint256","name":"toTokenId","type":"uint256"},{"indexed":true,"internalType":"address","name":"from","type":"address"},{"indexed":true,"internalType":"address","name":"to","type":"address"}],"name":"ConsecutiveTransfer","type":"event"},{"anonymous":false,"inputs":[{"indexed":true,"internalType":"address","name":"previousOwner","type":"address"},{"indexed":true,"internalType":"address","name":"newOwner","type":"address"}],"name":"OwnershipTransferred","type":"event"},{"anonymous":false,"inputs":[{"indexed":false,"internalType":"address","name":"to","type":"address"},{"indexed":false,"internalType":"uint256","name":"amount","type":"uint256"}],"name":"PaymentReleased","type":"event"},{"anonymous":false,"inputs":[{"indexed":false,"internalType":"uint256","name":"tokenId","type":"uint256"},{"indexed":false,"internalType":"address","name":"owner","type":"address"}],"name":"TokenMinted","type":"event"},{"anonymous":false,"inputs":[{"indexed":true,"internalType":"address","name":"from","type":"address"},{"indexed":true,"internalType":"address","name":"to","type":"address"},{"indexed":true,"internalType":"uint256","name":"tokenId","type":"uint256"}],"name":"Transfer","type":"event"},{"inputs":[],"name":"MAX_MINT_FREE","outputs":[{"internalType":"uint256","name":"","type":"uint256"}],"stateMutability":"view","type":"function"},{"inputs":[],"name":"MAX_MINT_GOLIST","outputs":[{"internalType":"uint256","name":"","type":"uint256"}],"stateMutability":"view","type":"function"},{"inputs":[],"name":"MAX_MINT_PUBLIC","outputs":[{"internalType":"uint256","name":"","type":"uint256"}],"stateMutability":"view","type":"function"},{"inputs":[],"name":"MAX_MINT_WHITELIST","outputs":[{"internalType":"uint256","name":"","type":"uint256"}],"stateMutability":"view","type":"function"},{"inputs":[],"name":"MyTokenaddress","outputs":[{"internalType":"address","name":"","type":"address"}],"stateMutability":"view","type":"function"},{"inputs":[],"name":"OPERATOR_FILTER_REGISTRY","outputs":[{"internalType":"contract IOperatorFilterRegistry","name":"","type":"address"}],"stateMutability":"view","type":"function"},{"inputs":[{"internalType":"address","name":"to","type":"address"},{"internalType":"uint256","name":"numberOfTokens","type":"uint256"}],"name":"adminMintBulk","outputs":[],"stateMutability":"nonpayable","type":"function"},{"inputs":[{"internalType":"address","name":"operator","type":"address"},{"internalType":"uint256","name":"tokenId","type":"uint256"}],"name":"approve","outputs":[],"stateMutability":"payable","type":"function"},{"inputs":[{"internalType":"address","name":"owner","type":"address"}],"name":"balanceOf","outputs":[{"internalType":"uint256","name":"","type":"uint256"}],"stateMutability":"view","type":"function"},{"inputs":[],"name":"baseURI","outputs":[{"internalType":"string","name":"","type":"string"}],"stateMutability":"view","type":"function"},{"inputs":[{"internalType":"uint256","name":"tokenId","type":"uint256"}],"name":"burn","outputs":[],"stateMutability":"nonpayable","type":"function"},{"inputs":[],"name":"burnEnabled","outputs":[{"internalType":"uint256","name":"","type":"uint256"}],"stateMutability":"view","type":"function"},{"inputs":[],"name":"contractURI","outputs":[{"internalType":"string","name":"","type":"string"}],"stateMutability":"pure","type":"function"},{"inputs":[{"internalType":"uint256","name":"tokenId","type":"uint256"}],"name":"getApproved","outputs":[{"internalType":"address","name":"","type":"address"}],"stateMutability":"view","type":"function"},{"inputs":[{"internalType":"address","name":"w","type":"address"}],"name":"getDLMintedCountForAddress","outputs":[{"internalType":"uint256","name":"","type":"uint256"}],"stateMutability":"view","type":"function"},{"inputs":[{"internalType":"address","name":"w","type":"address"}],"name":"getPublicMintedCountForAddress","outputs":[{"internalType":"uint256","name":"","type":"uint256"}],"stateMutability":"view","type":"function"},{"inputs":[{"internalType":"address","name":"owner","type":"address"}],"name":"getTokensOfOwner","outputs":[{"internalType":"uint256[]","name":"","type":"uint256[]"}],"stateMutability":"view","type":"function"},{"inputs":[{"internalType":"address","name":"w","type":"address"}],"name":"getWLMintedCountForAddress","outputs":[{"internalType":"uint256","name":"","type":"uint256"}],"stateMutability":"view","type":"function"},{"inputs":[{"internalType":"uint256","name":"numberOfTokens","type":"uint256"},{"internalType":"bytes32[]","name":"_merkleProof","type":"bytes32[]"}],"name":"goListMint","outputs":[],"stateMutability":"payable","type":"function"},{"inputs":[{"internalType":"uint256[]","name":"tokens","type":"uint256[]"}],"name":"goMint","outputs":[],"stateMutability":"nonpayable","type":"function"},{"inputs":[{"internalType":"uint256","name":"numberOfTokens","type":"uint256"},{"internalType":"bytes32[]","name":"_merkleProof","type":"bytes32[]"}],"name":"goMintFromWhiteList","outputs":[],"stateMutability":"payable","type":"function"},{"inputs":[{"internalType":"uint256","name":"numberOfTokens","type":"uint256"},{"internalType":"bytes32[]","name":"_merkleProof","type":"bytes32[]"}],"name":"goPublicMint","outputs":[],"stateMutability":"payable","type":"function"},{"inputs":[{"internalType":"address","name":"","type":"address"}],"name":"golistMintedCount","outputs":[{"internalType":"uint256","name":"","type":"uint256"}],"stateMutability":"view","type":"function"},{"inputs":[{"internalType":"address","name":"owner","type":"address"},{"internalType":"address","name":"operator","type":"address"}],"name":"isApprovedForAll","outputs":[{"internalType":"bool","name":"","type":"bool"}],"stateMutability":"view","type":"function"},{"inputs":[],"name":"isRevealed","outputs":[{"internalType":"bool","name":"","type":"bool"}],"stateMutability":"view","type":"function"},{"inputs":[],"name":"maxTokens","outputs":[{"internalType":"uint256","name":"","type":"uint256"}],"stateMutability":"view","type":"function"},{"inputs":[],"name":"merkleRootGoList","outputs":[{"internalType":"bytes32","name":"","type":"bytes32"}],"stateMutability":"view","type":"function"},{"inputs":[],"name":"merkleRootWL","outputs":[{"internalType":"bytes32","name":"","type":"bytes32"}],"stateMutability":"view","type":"function"},{"inputs":[],"name":"mintPhase","outputs":[{"internalType":"uint256","name":"","type":"uint256"}],"stateMutability":"view","type":"function"},{"inputs":[],"name":"mintPrice","outputs":[{"internalType":"uint256","name":"","type":"uint256"}],"stateMutability":"view","type":"function"},{"inputs":[],"name":"mintPriceWL","outputs":[{"internalType":"uint256","name":"","type":"uint256"}],"stateMutability":"view","type":"function"},{"inputs":[],"name":"name","outputs":[{"internalType":"string","name":"","type":"string"}],"stateMutability":"view","type":"function"},{"inputs":[],"name":"owner","outputs":[{"internalType":"address","name":"","type":"address"}],"stateMutability":"view","type":"function"},{"inputs":[{"internalType":"uint256","name":"tokenId","type":"uint256"}],"name":"ownerOf","outputs":[{"internalType":"address","name":"","type":"address"}],"stateMutability":"view","type":"function"},{"inputs":[{"internalType":"address","name":"to","type":"address"},{"internalType":"uint256","name":"amount","type":"uint256"}],"name":"payAddress","outputs":[],"stateMutability":"nonpayable","type":"function"},{"inputs":[],"name":"payoutAddress","outputs":[{"internalType":"address","name":"","type":"address"}],"stateMutability":"view","type":"function"},{"inputs":[{"internalType":"address","name":"","type":"address"}],"name":"publicMintedCount","outputs":[{"internalType":"uint256","name":"","type":"uint256"}],"stateMutability":"view","type":"function"},{"inputs":[],"name":"renounceOwnership","outputs":[],"stateMutability":"nonpayable","type":"function"},{"inputs":[{"internalType":"uint256","name":"_tokenId","type":"uint256"},{"internalType":"uint256","name":"_salePrice","type":"uint256"}],"name":"royaltyInfo","outputs":[{"internalType":"address","name":"","type":"address"},{"internalType":"uint256","name":"","type":"uint256"}],"stateMutability":"view","type":"function"},{"inputs":[{"internalType":"address","name":"from","type":"address"},{"internalType":"address","name":"to","type":"address"},{"internalType":"uint256","name":"tokenId","type":"uint256"}],"name":"safeTransferFrom","outputs":[],"stateMutability":"payable","type":"function"},{"inputs":[{"internalType":"address","name":"from","type":"address"},{"internalType":"address","name":"to","type":"address"},{"internalType":"uint256","name":"tokenId","type":"uint256"},{"internalType":"bytes","name":"data","type":"bytes"}],"name":"safeTransferFrom","outputs":[],"stateMutability":"payable","type":"function"},{"inputs":[{"internalType":"address","name":"operator","type":"address"},{"internalType":"bool","name":"approved","type":"bool"}],"name":"setApprovalForAll","outputs":[],"stateMutability":"nonpayable","type":"function"},{"inputs":[{"internalType":"string","name":"_uri","type":"string"}],"name":"setBaseURI","outputs":[],"stateMutability":"nonpayable","type":"function"},{"inputs":[{"internalType":"uint256","name":"p","type":"uint256"}],"name":"setBurnEnabled","outputs":[],"stateMutability":"nonpayable","type":"function"},{"inputs":[{"internalType":"bool","name":"b","type":"bool"}],"name":"setIsRevealed","outputs":[],"stateMutability":"nonpayable","type":"function"},{"inputs":[{"internalType":"uint256","name":"p","type":"uint256"}],"name":"setMAXFREE","outputs":[],"stateMutability":"nonpayable","type":"function"},{"inputs":[{"internalType":"uint256","name":"p","type":"uint256"}],"name":"setMAXGOLIST","outputs":[],"stateMutability":"nonpayable","type":"function"},{"inputs":[{"internalType":"uint256","name":"p","type":"uint256"}],"name":"setMAXPublic","outputs":[],"stateMutability":"nonpayable","type":"function"},{"inputs":[{"internalType":"uint256","name":"p","type":"uint256"}],"name":"setMAXWL","outputs":[],"stateMutability":"nonpayable","type":"function"},{"inputs":[{"internalType":"uint256","name":"p","type":"uint256"}],"name":"setMaxTokens","outputs":[],"stateMutability":"nonpayable","type":"function"},{"inputs":[{"internalType":"bytes32","name":"merk","type":"bytes32"}],"name":"setMerkleRootGoList","outputs":[],"stateMutability":"nonpayable","type":"function"},{"inputs":[{"internalType":"bytes32","name":"merk","type":"bytes32"}],"name":"setMerkleRootWL","outputs":[],"stateMutability":"nonpayable","type":"function"},{"inputs":[{"internalType":"uint256","name":"p","type":"uint256"}],"name":"setMintPhase","outputs":[],"stateMutability":"nonpayable","type":"function"},{"inputs":[{"internalType":"uint256","name":"b","type":"uint256"}],"name":"setMintPrice","outputs":[],"stateMutability":"nonpayable","type":"function"},{"inputs":[{"internalType":"uint256","name":"b","type":"uint256"}],"name":"setMintPriceWL","outputs":[],"stateMutability":"nonpayable","type":"function"},{"inputs":[{"internalType":"address","name":"s","type":"address"}],"name":"setMyTokenAddress","outputs":[],"stateMutability":"nonpayable","type":"function"},{"inputs":[{"internalType":"address","name":"s","type":"address"}],"name":"setPayoutAddress","outputs":[],"stateMutability":"nonpayable","type":"function"},{"inputs":[{"internalType":"address","name":"receiver","type":"address"},{"internalType":"uint96","name":"royaltyFraction","type":"uint96"}],"name":"setRoyalties","outputs":[],"stateMutability":"nonpayable","type":"function"},{"inputs":[{"internalType":"string","name":"suffix","type":"string"}],"name":"setTokenSuffix","outputs":[],"stateMutability":"nonpayable","type":"function"},{"inputs":[{"internalType":"string","name":"_uri","type":"string"}],"name":"setUnrevealedURI","outputs":[],"stateMutability":"nonpayable","type":"function"},{"inputs":[{"internalType":"uint256","name":"a","type":"uint256"}],"name":"setzBurn","outputs":[],"stateMutability":"nonpayable","type":"function"},{"inputs":[{"internalType":"bytes4","name":"interfaceId","type":"bytes4"}],"name":"supportsInterface","outputs":[{"internalType":"bool","name":"","type":"bool"}],"stateMutability":"view","type":"function"},{"inputs":[],"name":"symbol","outputs":[{"internalType":"string","name":"","type":"string"}],"stateMutability":"view","type":"function"},{"inputs":[],"name":"tokenSuffix","outputs":[{"internalType":"string","name":"","type":"string"}],"stateMutability":"view","type":"function"},{"inputs":[{"internalType":"uint256","name":"tokenId","type":"uint256"}],"name":"tokenURI","outputs":[{"internalType":"string","name":"","type":"string"}],"stateMutability":"view","type":"function"},{"inputs":[],"name":"totalMinted","outputs":[{"internalType":"uint256","name":"","type":"uint256"}],"stateMutability":"view","type":"function"},{"inputs":[],"name":"totalSupply","outputs":[{"internalType":"uint256","name":"","type":"uint256"}],"stateMutability":"view","type":"function"},{"inputs":[{"internalType":"address","name":"from","type":"address"},{"internalType":"address","name":"to","type":"address"},{"internalType":"uint256","name":"tokenId","type":"uint256"}],"name":"transferFrom","outputs":[],"stateMutability":"payable","type":"function"},{"inputs":[{"internalType":"address","name":"newOwner","type":"address"}],"name":"transferOwnership","outputs":[],"stateMutability":"nonpayable","type":"function"},{"inputs":[],"name":"unrevealedURI","outputs":[{"internalType":"string","name":"","type":"string"}],"stateMutability":"view","type":"function"},{"inputs":[{"internalType":"address","name":"a","type":"address"},{"internalType":"bytes32[]","name":"_merkleProof","type":"bytes32[]"}],"name":"verifyWLWallet","outputs":[{"internalType":"bool","name":"","type":"bool"}],"stateMutability":"view","type":"function"},{"inputs":[],"name":"version","outputs":[{"internalType":"string","name":"","type":"string"}],"stateMutability":"pure","type":"function"},{"inputs":[{"internalType":"address","name":"","type":"address"}],"name":"whitelistMintedCount","outputs":[{"internalType":"uint256","name":"","type":"uint256"}],"stateMutability":"view","type":"function"},{"inputs":[{"internalType":"uint256","name":"amount","type":"uint256"}],"name":"withdraw","outputs":[],"stateMutability":"nonpayable","type":"function"},{"inputs":[],"name":"zburn","outputs":[{"internalType":"uint256","name":"","type":"uint256"}],"stateMutability":"view","type":"function"}],"evm":{"bytecode":{"linkReferences":{},"object":"7fe7f8298f87d2ee1929e46697d0f96aab1169087ecf1c383fec654de16742cee4600c819055600d5560a060405260006080908152600e90620000439082620005af565b50604080516020810190915260008152600f90620000629082620005af565b5060405180606001604052806035815260200162003deb603591396010906200008c9082620005af565b50601180546001600160a81b03191674427811a5e90621fa8e54245479bc24f566817c360017905566044364c5bb0000601255655af3107a400060135560646014556000601581905560165560036017819055600a6018556001601955601a556002601b55348015620000fe57600080fd5b5060405162003e2038038062003e2083398101604081905262000121916200067b565b733cc6cdda760b79bafa08df41ecfa224f810dceb660016040518060400160405280600781526020016626bcaa37b5b2b760c91b8152506040518060400160405280600781526020016626bcaa37b5b2b760c91b8152508160029081620001899190620005af565b506003620001988282620005af565b5050600160005550620001ab336200033b565b6daaeb6d7670e522a718067333cd4e3b15620002f05780156200023e57604051633e9f1edf60e11b81523060048201526001600160a01b03831660248201526daaeb6d7670e522a718067333cd4e90637d3e3dbe906044015b600060405180830381600087803b1580156200021f57600080fd5b505af115801562000234573d6000803e3d6000fd5b50505050620002f0565b6001600160a01b038216156200028f5760405163a0af290360e01b81523060048201526001600160a01b03831660248201526daaeb6d7670e522a718067333cd4e9063a0af29039060440162000204565b604051632210724360e11b81523060048201526daaeb6d7670e522a718067333cd4e90634420e48690602401600060405180830381600087803b158015620002d657600080fd5b505af1158015620002eb573d6000803e3d6000fd5b505050505b50506001600b55601154620003159061010090046001600160a01b031660966200038d565b601f80546001600160a01b0319166001600160a01b0392909216919091179055620006ad565b600a80546001600160a01b038381166001600160a01b0319831681179093556040519116919082907f8be0079c531659141344cd1fd0a4f28419497f9722a3daafe3b4186f6b6457e090600090a35050565b62000397620003a7565b620003a3828262000409565b5050565b600a546001600160a01b03163314620004075760405162461bcd60e51b815260206004820181905260248201527f4f776e61626c653a2063616c6c6572206973206e6f7420746865206f776e657260448201526064015b60405180910390fd5b565b6127106001600160601b0382161115620004795760405162461bcd60e51b815260206004820152602a60248201527f455243323938313a20726f79616c7479206665652077696c6c206578636565646044820152692073616c65507269636560b01b6064820152608401620003fe565b6001600160a01b038216620004d15760405162461bcd60e51b815260206004820152601960248201527f455243323938313a20696e76616c6964207265636569766572000000000000006044820152606401620003fe565b604080518082019091526001600160a01b039092168083526001600160601b039091166020909201829052600160a01b90910217600855565b634e487b7160e01b600052604160045260246000fd5b600181811c908216806200053557607f821691505b6020821081036200055657634e487b7160e01b600052602260045260246000fd5b50919050565b601f821115620005aa57600081815260208120601f850160051c81016020861015620005855750805b601f850160051c820191505b81811015620005a65782815560010162000591565b5050505b505050565b81516001600160401b03811115620005cb57620005cb6200050a565b620005e381620005dc845462000520565b846200055c565b602080601f8311600181146200061b5760008415620006025750858301515b600019600386901b1c1916600185901b178555620005a6565b600085815260208120601f198616915b828110156200064c578886015182559484019460019091019084016200062b565b50858210156200066b5787850151600019600388901b60f8161c191681555b5050505050600190811b01905550565b6000602082840312156200068e57600080fd5b81516001600160a01b0381168114620006a657600080fd5b9392505050565b61372e80620006bd6000396000f3fe60806040526004361061043c5760003560e01c80636cf217db11610234578063b4512ae61161012e578063e8315742116100b6578063f2fde38b1161007a578063f2fde38b14610cca578063f34439f014610cea578063f4a0a52814610d0a578063f8dcfc0714610d2a578063fe2c7fee14610d4057600080fd5b8063e831574214610c3f578063e8a3d48514610c55578063e91dc56514610c6a578063e985e9c514610c8a578063ed3df8df14610caa57600080fd5b8063c4102d72116100fd578063c4102d7214610b86578063c87b56dd14610bbc578063cdc5cdc114610bdc578063d6492d8114610bfc578063e3491ca114610c1257600080fd5b8063b4512ae614610b27578063b88d4fde14610b3d578063c0130f2f14610b50578063c21b471b14610b6657600080fd5b8063943431bf116101bc578063a124621711610180578063a124621714610a78578063a22cb46514610aae578063a2309ff814610ace578063a6c09bc314610ae7578063ad3e31b714610b0757600080fd5b8063943431bf146109e557806395d89b4114610a05578063984fe43814610a1a5780639b3caa3914610a2d5780639ee631d114610a6357600080fd5b8063715018a611610203578063715018a614610952578063793a9fcd146109675780637cd33c10146109875780638da3de67146109a75780638da5cb5b146109c757600080fd5b80636cf217db146108dd5780636e7cc377146108fd5780637035bf181461091d57806370a082311461093257600080fd5b806334c489431161034557806354fd4d50116102cd5780635de6dc55116102915780635de6dc551461084f57806363172ac11461087c5780636352211e146108925780636817c76c146108b25780636c0360eb146108c857600080fd5b806354fd4d50146107b357806355f804b3146107de57806358941a4d146107fe5780635b8d02d7146108145780635dc96d161461083957600080fd5b806342966c681161031457806342966c681461071957806349a5980a146107395780634cd0273c146107595780634e765e651461077957806354214f691461079957600080fd5b806334c48943146106975780633826dd88146106c457806341f43434146106e457806342842e0e1461070657600080fd5b806317881cbf116103c8578063201c285b11610397578063201c285b146105f257806323b872dd146106055780632a55205a146106185780632e1a7d4d1461065757806333ea51a81461067757600080fd5b806317881cbf1461058957806318160ddd1461059f57806318d0e3e1146105bc5780631bd9b9d9146105dc57600080fd5b80630e4f76b21161040f5780630e4f76b2146104e55780630ef6a94b14610509578063107410be1461052957806311e776fe1461055657806316e45f8e1461057657600080fd5b806301ffc9a71461044157806306fdde0314610476578063081812fc14610498578063095ea7b3146104d0575b600080fd5b34801561044d57600080fd5b5061046161045c366004612d56565b610d60565b60405190151581526020015b60405180910390f35b34801561048257600080fd5b5061048b610d80565b60405161046d9190612dc3565b3480156104a457600080fd5b506104b86104b3366004612dd6565b610e12565b6040516001600160a01b03909116815260200161046d565b6104e36104de366004612e04565b610e56565b005b3480156104f157600080fd5b506104fb601a5481565b60405190815260200161046d565b34801561051557600080fd5b506104e3610524366004612ecf565b610e6f565b34801561053557600080fd5b506104fb610544366004612f18565b601e6020526000908152604090205481565b34801561056257600080fd5b506104e3610571366004612dd6565b610e87565b6104e3610584366004612f7a565b610e94565b34801561059557600080fd5b506104fb60155481565b3480156105ab57600080fd5b5060015460005403600019016104fb565b3480156105c857600080fd5b506104e36105d7366004612dd6565b6110ae565b3480156105e857600080fd5b506104fb600d5481565b6104e3610600366004612f7a565b6110bb565b6104e3610613366004612fc6565b6112a7565b34801561062457600080fd5b50610638610633366004613007565b6112d2565b604080516001600160a01b03909316835260208301919091520161046d565b34801561066357600080fd5b506104e3610672366004612dd6565b611380565b34801561068357600080fd5b506104e3610692366004612f18565b61143b565b3480156106a357600080fd5b506104fb6106b2366004612f18565b601d6020526000908152604090205481565b3480156106d057600080fd5b506104e36106df366004612dd6565b61146b565b3480156106f057600080fd5b506104b86daaeb6d7670e522a718067333cd4e81565b6104e3610714366004612fc6565b611478565b34801561072557600080fd5b506104e3610734366004612dd6565b61149d565b34801561074557600080fd5b506104e3610754366004613037565b6114ab565b34801561076557600080fd5b506104e3610774366004612dd6565b6114c6565b34801561078557600080fd5b506104e3610794366004612dd6565b6114d3565b3480156107a557600080fd5b506011546104619060ff1681565b3480156107bf57600080fd5b506040805180820190915260028152612e3160f01b602082015261048b565b3480156107ea57600080fd5b506104e36107f9366004612ecf565b6114e0565b34801561080a57600080fd5b506104fb601b5481565b34801561082057600080fd5b506011546104b89061010090046001600160a01b031681565b34801561084557600080fd5b506104fb60165481565b34801561085b57600080fd5b5061086f61086a366004612f18565b6114f4565b60405161046d9190613054565b34801561088857600080fd5b506104fb60185481565b34801561089e57600080fd5b506104b86108ad366004612dd6565b6115fd565b3480156108be57600080fd5b506104fb60125481565b3480156108d457600080fd5b5061048b611608565b3480156108e957600080fd5b506104e36108f8366004612dd6565b611696565b34801561090957600080fd5b50601f546104b8906001600160a01b031681565b34801561092957600080fd5b5061048b6116a3565b34801561093e57600080fd5b506104fb61094d366004612f18565b6116b0565b34801561095e57600080fd5b506104e36116ff565b34801561097357600080fd5b506104e3610982366004612e04565b611713565b34801561099357600080fd5b506104e36109a236600461308c565b61175e565b3480156109b357600080fd5b506104e36109c2366004612dd6565b611a26565b3480156109d357600080fd5b50600a546001600160a01b03166104b8565b3480156109f157600080fd5b506104e3610a00366004612dd6565b611a33565b348015610a1157600080fd5b5061048b611a5e565b6104e3610a28366004612f7a565b611a6d565b348015610a3957600080fd5b506104fb610a48366004612f18565b6001600160a01b03166000908152601d602052604090205490565b348015610a6f57600080fd5b5061048b611cb2565b348015610a8457600080fd5b506104fb610a93366004612f18565b6001600160a01b03166000908152601c602052604090205490565b348015610aba57600080fd5b506104e3610ac9366004613132565b611cbf565b348015610ada57600080fd5b50600054600019016104fb565b348015610af357600080fd5b50610461610b0236600461316b565b611cd3565b348015610b1357600080fd5b506104e3610b22366004612dd6565b611d16565b348015610b3357600080fd5b506104fb60195481565b6104e3610b4b3660046131a7565b611d23565b348015610b5c57600080fd5b506104fb60135481565b348015610b7257600080fd5b506104e3610b81366004613227565b611d50565b348015610b9257600080fd5b506104fb610ba1366004612f18565b6001600160a01b03166000908152601e602052604090205490565b348015610bc857600080fd5b5061048b610bd7366004612dd6565b611d62565b348015610be857600080fd5b506104e3610bf7366004612e04565b611e8a565b348015610c0857600080fd5b506104fb600c5481565b348015610c1e57600080fd5b506104fb610c2d366004612f18565b601c6020526000908152604090205481565b348015610c4b57600080fd5b506104fb60145481565b348015610c6157600080fd5b5061048b611ee4565b348015610c7657600080fd5b506104e3610c85366004612dd6565b611f04565b348015610c9657600080fd5b50610461610ca5366004613261565b611f11565b348015610cb657600080fd5b506104e3610cc5366004612f18565b611f3f565b348015610cd657600080fd5b506104e3610ce5366004612f18565b611f69565b348015610cf657600080fd5b506104e3610d05366004612dd6565b611fdf565b348015610d1657600080fd5b506104e3610d25366004612dd6565b611fec565b348015610d3657600080fd5b506104fb60175481565b348015610d4c57600080fd5b506104e3610d5b366004612ecf565b611ff9565b6000610d6b8261200d565b80610d7a5750610d7a8261205b565b92915050565b606060028054610d8f9061328f565b80601f0160208091040260200160405190810160405280929190818152602001828054610dbb9061328f565b8015610e085780601f10610ddd57610100808354040283529160200191610e08565b820191906000526020600020905b815481529060010190602001808311610deb57829003601f168201915b5050505050905090565b6000610e1d82612090565b610e3a576040516333d1c03960e21b815260040160405180910390fd5b506000908152600660205260409020546001600160a01b031690565b81610e60816120c5565b610e6a838361217e565b505050565b610e7761221e565b600f610e83828261330f565b5050565b610e8f61221e565b601455565b610e9c612278565b601554600314610ef35760405162461bcd60e51b815260206004820152601c60248201527f5075626c6963204d696e74206973206e6f7420617661696c61626c650000000060448201526064015b60405180910390fd5b333214610f305760405162461bcd60e51b815260206004820152600b60248201526a446972656374206f6e6c7960a81b6044820152606401610eea565b60145483610f416000546000190190565b610f4b91906133e5565b1115610f695760405162461bcd60e51b8152600401610eea906133f8565b601854336000908152601d6020526040902054610f879085906133e5565b1115610fd55760405162461bcd60e51b815260206004820152601a60248201527f4578636565646564205075626c696320416c6c6f636174696f6e0000000000006044820152606401610eea565b600033604051602001610fe8919061343b565b60405160208183030381529060405280519060200120905060006110108484600c54856122d1565b90508015611048576013546110259086613458565b34146110435760405162461bcd60e51b8152600401610eea9061346f565b611073565b6012546110559086613458565b34146110735760405162461bcd60e51b8152600401610eea9061346f565b61107d33866122eb565b336000908152601d60205260408120805487929061109c9084906133e5565b90915550506001600b5550610e6a9050565b6110b661221e565b601b55565b6110c3612278565b6015546002146111205760405162461bcd60e51b815260206004820152602260248201527f57686974656c697374204d696e74696e67206973206e6f7420617661696c61626044820152616c6560f01b6064820152608401610eea565b601454836111316000546000190190565b61113b91906133e5565b11156111595760405162461bcd60e51b8152600401610eea906133f8565b601b54336000908152601c60205260409020546111779085906133e5565b11156111be5760405162461bcd60e51b815260206004820152601660248201527522bc31b2b2b232b2102ba61020b63637b1b0ba34b7b760511b6044820152606401610eea565b6013546111cb9084613458565b34146111e95760405162461bcd60e51b8152600401610eea9061346f565b6000336040516020016111fc919061343b565b6040516020818303038152906040528051906020012090506112228383600c54846122d1565b61126e5760405162461bcd60e51b815260206004820152601b60248201527f496e76616c69642050726f6f6620666f722057686974656c69737400000000006044820152606401610eea565b61127833856122eb565b336000908152601c6020526040812080548692906112979084906133e5565b90915550506001600b5550505050565b826001600160a01b03811633146112c1576112c1336120c5565b6112cc848484612351565b50505050565b60008281526009602090815260408083208151808301909252546001600160a01b038116808352600160a01b9091046001600160601b03169282019290925282916113475750604080518082019091526008546001600160a01b0381168252600160a01b90046001600160601b031660208201525b602081015160009061271090611366906001600160601b031687613458565b61137091906134bc565b91519350909150505b9250929050565b61138861221e565b804710156113cf5760405162461bcd60e51b8152602060048201526014602482015273496e73756666696369656e742062616c616e636560601b6044820152606401610eea565b60115481906113ec9061010090046001600160a01b0316826124e2565b601154604080516101009092046001600160a01b03168252602082018390527fdf20fd1e76bc69d672e4814fafb2c449bba3a5369d8359adf9e05e6fde87b05691015b60405180910390a15050565b61144361221e565b601180546001600160a01b0390921661010002610100600160a81b0319909216919091179055565b61147361221e565b601355565b826001600160a01b038116331461149257611492336120c5565b6112cc8484846125fb565b6114a8816001612616565b50565b6114b361221e565b6011805460ff1916911515919091179055565b6114ce61221e565b601755565b6114db61221e565b601955565b6114e861221e565b600e610e83828261330f565b60606000806000611504856116b0565b905060008167ffffffffffffffff81111561152157611521612e30565b60405190808252806020026020018201604052801561154a578160200160208202803683370190505b50905061157760408051608081018252600080825260208201819052918101829052606081019190915290565b60015b8386146115f15761158a8161274e565b915081604001516115e95781516001600160a01b0316156115aa57815194505b876001600160a01b0316856001600160a01b0316036115e957808387806001019850815181106115dc576115dc6134d0565b6020026020010181815250505b60010161157a565b50909695505050505050565b6000610d7a826127cd565b600e80546116159061328f565b80601f01602080910402602001604051908101604052809291908181526020018280546116419061328f565b801561168e5780601f106116635761010080835404028352916020019161168e565b820191906000526020600020905b81548152906001019060200180831161167157829003601f168201915b505050505081565b61169e61221e565b600d55565b601080546116159061328f565b60006001600160a01b0382166116d9576040516323d3ad8160e21b815260040160405180910390fd5b506001600160a01b031660009081526005602052604090205467ffffffffffffffff1690565b61170761221e565b6117116000612843565b565b61171b61221e565b6014548161172c6000546000190190565b61173691906133e5565b11156117545760405162461bcd60e51b8152600401610eea906133f8565b610e8382826122eb565b611766612278565b6016546001146117aa5760405162461bcd60e51b815260206004820152600f60248201526e10d85b9b9bdd08109d5c9b8816595d608a1b6044820152606401610eea565b601754815110156117ee5760405162461bcd60e51b815260206004820152600e60248201526d13995959081b5bdc994819dbdb1960921b6044820152606401610eea565b60175481516117fd91906134e6565b1561184a5760405162461bcd60e51b815260206004820152601e60248201527f57726f6e6720616d6f756e74206f6620746f6b656e7320746f206275726e00006044820152606401610eea565b6000601754825161185b91906134bc565b90506014548161186e6000546000190190565b61187891906133e5565b11156118965760405162461bcd60e51b8152600401610eea906134fa565b60005b8251811015611a1057601f5483516000916001600160a01b031690636352211e908690859081106118cc576118cc6134d0565b60200260200101516040518263ffffffff1660e01b81526004016118f291815260200190565b6020604051808303816000875af1158015611911573d6000803e3d6000fd5b505050506040513d601f19601f82011682018060405250810190611935919061353d565b9050336001600160a01b0382161461197b5760405162461bcd60e51b81526020600482015260096024820152682737ba1027bbb732b960b91b6044820152606401610eea565b601f5484516001600160a01b03909116906342966c68908690859081106119a4576119a46134d0565b60200260200101516040518263ffffffff1660e01b81526004016119ca91815260200190565b600060405180830381600087803b1580156119e457600080fd5b505af11580156119f8573d6000803e3d6000fd5b50505050508080611a089061355a565b915050611899565b50611a1b33826122eb565b506114a86001600b55565b611a2e61221e565b601855565b611a3b61221e565b601581905560018110611a4e5760016016555b806000036114a857600060165550565b606060038054610d8f9061328f565b611a75612278565b601554600114611ad25760405162461bcd60e51b815260206004820152602260248201527f676f4c697374204d696e74205068617365206973206e6f7420617661696c61626044820152616c6560f01b6064820152608401610eea565b60145483611ae36000546000190190565b611aed91906133e5565b1115611b0b5760405162461bcd60e51b8152600401610eea906134fa565b336000908152601e6020526040902054601a54611b2885836133e5565b1115611b765760405162461bcd60e51b815260206004820152601860248201527f4578636565646564204c49535420416c6c6f636174696f6e00000000000000006044820152606401610eea565b600033604051602001611b89919061343b565b604051602081830303815290604052805190602001209050611baf8484600d54846122d1565b611bfb5760405162461bcd60e51b815260206004820152601860248201527f496e76616c69642050726f6f6620666f7220476f4c69737400000000000000006044820152606401610eea565b6019548210611c3457601354611c119086613458565b3414611c2f5760405162461bcd60e51b8152600401610eea9061346f565b611c89565b6000611c4086846133e5565b9050601954811115611c8757601954611c599082613573565b905060135481611c699190613458565b3414611c875760405162461bcd60e51b8152600401610eea9061346f565b505b611c9333866122eb565b336000908152601e60205260408120805487929061109c9084906133e5565b600f80546116159061328f565b81611cc9816120c5565b610e6a8383612895565b60008084604051602001611ce7919061343b565b604051602081830303815290604052805190602001209050611d0d8484600c54846122d1565b95945050505050565b611d1e61221e565b600c55565b836001600160a01b0381163314611d3d57611d3d336120c5565b611d4985858585612901565b5050505050565b611d5861221e565b610e838282612945565b6060611d6d82612090565b611db95760405162461bcd60e51b815260206004820152601b60248201527f5552495175657279466f724e6f6e6578697374656e74546f6b656e00000000006044820152606401610eea565b60115460ff16611e555760108054611dd09061328f565b80601f0160208091040260200160405190810160405280929190818152602001828054611dfc9061328f565b8015611e495780601f10611e1e57610100808354040283529160200191611e49565b820191906000526020600020905b815481529060010190602001808311611e2c57829003601f168201915b50505050509050919050565b600e611e6083612a42565b600f604051602001611e74939291906135f9565b6040516020818303038152906040529050919050565b611e9261221e565b80471015611ed95760405162461bcd60e51b8152602060048201526014602482015273496e73756666696369656e742062616c616e636560601b6044820152606401610eea565b80610e6a83826124e2565b60606040518060600160405280603581526020016136a460359139905090565b611f0c61221e565b601a55565b6001600160a01b03918216600090815260076020908152604080832093909416825291909152205460ff1690565b611f4761221e565b601f80546001600160a01b0319166001600160a01b0392909216919091179055565b611f7161221e565b6001600160a01b038116611fd65760405162461bcd60e51b815260206004820152602660248201527f4f776e61626c653a206e6577206f776e657220697320746865207a65726f206160448201526564647265737360d01b6064820152608401610eea565b6114a881612843565b611fe761221e565b601655565b611ff461221e565b601255565b61200161221e565b6010610e83828261330f565b60006301ffc9a760e01b6001600160e01b03198316148061203e57506380ac58cd60e01b6001600160e01b03198316145b80610d7a5750506001600160e01b031916635b5e139f60e01b1490565b60006001600160e01b0319821663152a902d60e11b1480610d7a57506301ffc9a760e01b6001600160e01b0319831614610d7a565b6000816001111580156120a4575060005482105b8015610d7a575050600090815260046020526040902054600160e01b161590565b6daaeb6d7670e522a718067333cd4e3b156114a857604051633185c44d60e21b81523060048201526001600160a01b03821660248201526daaeb6d7670e522a718067333cd4e9063c617113490604401602060405180830381865afa158015612132573d6000803e3d6000fd5b505050506040513d601f19601f82011682018060405250810190612156919061362c565b6114a857604051633b79c77360e21b81526001600160a01b0382166004820152602401610eea565b6000612189826115fd565b9050336001600160a01b038216146121c2576121a58133611f11565b6121c2576040516367d9dca160e11b815260040160405180910390fd5b60008281526006602052604080822080546001600160a01b0319166001600160a01b0387811691821790925591518593918516917f8c5be1e5ebec7d5bd14f71427d1e84f3dd0314c0f7b2291e5b200ac8c7c3b92591a4505050565b600a546001600160a01b031633146117115760405162461bcd60e51b815260206004820181905260248201527f4f776e61626c653a2063616c6c6572206973206e6f7420746865206f776e65726044820152606401610eea565b6002600b54036122ca5760405162461bcd60e51b815260206004820152601f60248201527f5265656e7472616e637947756172643a207265656e7472616e742063616c6c006044820152606401610eea565b6002600b55565b6000826122df868685612a86565b1490505b949350505050565b6122f58282612ad2565b7f3a5398bda6f1f57d6c96834fa9bf02b5517bdc847d14312015a917ba421c31c9600161232b6001546000546000199190030190565b6123359190613573565b604080519182526001600160a01b03851660208301520161142f565b600061235c826127cd565b9050836001600160a01b0316816001600160a01b03161461238f5760405162a1148160e81b815260040160405180910390fd5b600082815260066020526040902080546123bb8187335b6001600160a01b039081169116811491141790565b6123e6576123c98633611f11565b6123e657604051632ce44b5f60e11b815260040160405180910390fd5b6001600160a01b03851661240d57604051633a954ecd60e21b815260040160405180910390fd5b801561241857600082555b6001600160a01b038681166000908152600560205260408082208054600019019055918716808252919020805460010190554260a01b17600160e11b17600085815260046020526040812091909155600160e11b841690036124aa576001840160008181526004602052604081205490036124a85760005481146124a85760008181526004602052604090208490555b505b83856001600160a01b0316876001600160a01b03166000805160206136d983398151915260405160405180910390a45b505050505050565b804710156125325760405162461bcd60e51b815260206004820152601d60248201527f416464726573733a20696e73756666696369656e742062616c616e63650000006044820152606401610eea565b6000826001600160a01b03168260405160006040518083038185875af1925050503d806000811461257f576040519150601f19603f3d011682016040523d82523d6000602084013e612584565b606091505b5050905080610e6a5760405162461bcd60e51b815260206004820152603a60248201527f416464726573733a20756e61626c6520746f2073656e642076616c75652c207260448201527f6563697069656e74206d617920686176652072657665727465640000000000006064820152608401610eea565b610e6a83838360405180602001604052806000815250611d23565b6000612621836127cd565b90508060008061263f86600090815260066020526040902080549091565b91509150841561267f576126548184336123a6565b61267f576126628333611f11565b61267f57604051632ce44b5f60e11b815260040160405180910390fd5b801561268a57600082555b6001600160a01b038316600081815260056020526040902080546fffffffffffffffffffffffffffffffff0190554260a01b17600360e01b17600087815260046020526040812091909155600160e11b85169003612718576001860160008181526004602052604081205490036127165760005481146127165760008181526004602052604090208590555b505b60405186906000906001600160a01b038616906000805160206136d9833981519152908390a45050600180548101905550505050565b604080516080810182526000808252602082018190529181018290526060810191909152600082815260046020526040902054610d7a90604080516080810182526001600160a01b038316815260a083901c67ffffffffffffffff166020820152600160e01b831615159181019190915260e89190911c606082015290565b6000818060011161282a5760005481101561282a5760008181526004602052604081205490600160e01b82169003612828575b80600003612821575060001901600081815260046020526040902054612800565b9392505050565b505b604051636f96cda160e11b815260040160405180910390fd5b600a80546001600160a01b038381166001600160a01b0319831681179093556040519116919082907f8be0079c531659141344cd1fd0a4f28419497f9722a3daafe3b4186f6b6457e090600090a35050565b3360008181526007602090815260408083206001600160a01b03871680855290835292819020805460ff191686151590811790915590519081529192917f17307eab39ab6107e8899845ad3d59bd9653f200f220920489ca2b5937696c31910160405180910390a35050565b61290c8484846112a7565b6001600160a01b0383163b156112cc5761292884848484612aec565b6112cc576040516368d2bf6b60e11b815260040160405180910390fd5b6127106001600160601b03821611156129b35760405162461bcd60e51b815260206004820152602a60248201527f455243323938313a20726f79616c7479206665652077696c6c206578636565646044820152692073616c65507269636560b01b6064820152608401610eea565b6001600160a01b038216612a095760405162461bcd60e51b815260206004820152601960248201527f455243323938313a20696e76616c6964207265636569766572000000000000006044820152606401610eea565b604080518082019091526001600160a01b039092168083526001600160601b039091166020909201829052600160a01b90910217600855565b606060a06040510180604052602081039150506000815280825b600183039250600a81066030018353600a900480612a5c5750819003601f19909101908152919050565b600081815b84811015612ac957612ab582878784818110612aa957612aa96134d0565b90506020020135612bd4565b915080612ac18161355a565b915050612a8b565b50949350505050565b610e83828260405180602001604052806000815250612c00565b604051630a85bd0160e11b81526000906001600160a01b0385169063150b7a0290612b21903390899088908890600401613649565b6020604051808303816000875af1925050508015612b5c575060408051601f3d908101601f19168201909252612b5991810190613686565b60015b612bba573d808015612b8a576040519150601f19603f3d011682016040523d82523d6000602084013e612b8f565b606091505b508051600003612bb2576040516368d2bf6b60e11b815260040160405180910390fd5b805181602001fd5b6001600160e01b031916630a85bd0160e11b1490506122e3565b6000818310612bf0576000828152602084905260409020612821565b5060009182526020526040902090565b612c0a8383612c66565b6001600160a01b0383163b15610e6a576000548281035b612c346000868380600101945086612aec565b612c51576040516368d2bf6b60e11b815260040160405180910390fd5b818110612c21578160005414611d4957600080fd5b6000805490829003612c8b5760405163b562e8dd60e01b815260040160405180910390fd5b6001600160a01b03831660008181526005602090815260408083208054680100000000000000018802019055848352600490915281206001851460e11b4260a01b178317905582840190839083906000805160206136d98339815191528180a4600183015b818114612d1657808360006000805160206136d9833981519152600080a4600101612cf0565b5081600003612d3757604051622e076360e81b815260040160405180910390fd5b60005550505050565b6001600160e01b0319811681146114a857600080fd5b600060208284031215612d6857600080fd5b813561282181612d40565b60005b83811015612d8e578181015183820152602001612d76565b50506000910152565b60008151808452612daf816020860160208601612d73565b601f01601f19169290920160200192915050565b6020815260006128216020830184612d97565b600060208284031215612de857600080fd5b5035919050565b6001600160a01b03811681146114a857600080fd5b60008060408385031215612e1757600080fd5b8235612e2281612def565b946020939093013593505050565b634e487b7160e01b600052604160045260246000fd5b604051601f8201601f1916810167ffffffffffffffff81118282101715612e6f57612e6f612e30565b604052919050565b600067ffffffffffffffff831115612e9157612e91612e30565b612ea4601f8401601f1916602001612e46565b9050828152838383011115612eb857600080fd5b828260208301376000602084830101529392505050565b600060208284031215612ee157600080fd5b813567ffffffffffffffff811115612ef857600080fd5b8201601f81018413612f0957600080fd5b6122e384823560208401612e77565b600060208284031215612f2a57600080fd5b813561282181612def565b60008083601f840112612f4757600080fd5b50813567ffffffffffffffff811115612f5f57600080fd5b6020830191508360208260051b850101111561137957600080fd5b600080600060408486031215612f8f57600080fd5b83359250602084013567ffffffffffffffff811115612fad57600080fd5b612fb986828701612f35565b9497909650939450505050565b600080600060608486031215612fdb57600080fd5b8335612fe681612def565b92506020840135612ff681612def565b929592945050506040919091013590565b6000806040838503121561301a57600080fd5b50508035926020909101359150565b80151581146114a857600080fd5b60006020828403121561304957600080fd5b813561282181613029565b6020808252825182820181905260009190848201906040850190845b818110156115f157835183529284019291840191600101613070565b6000602080838503121561309f57600080fd5b823567ffffffffffffffff808211156130b757600080fd5b818501915085601f8301126130cb57600080fd5b8135818111156130dd576130dd612e30565b8060051b91506130ee848301612e46565b818152918301840191848101908884111561310857600080fd5b938501935b838510156131265784358252938501939085019061310d565b98975050505050505050565b6000806040838503121561314557600080fd5b823561315081612def565b9150602083013561316081613029565b809150509250929050565b60008060006040848603121561318057600080fd5b833561318b81612def565b9250602084013567ffffffffffffffff811115612fad57600080fd5b600080600080608085870312156131bd57600080fd5b84356131c881612def565b935060208501356131d881612def565b925060408501359150606085013567ffffffffffffffff8111156131fb57600080fd5b8501601f8101871361320c57600080fd5b61321b87823560208401612e77565b91505092959194509250565b6000806040838503121561323a57600080fd5b823561324581612def565b915060208301356001600160601b038116811461316057600080fd5b6000806040838503121561327457600080fd5b823561327f81612def565b9150602083013561316081612def565b600181811c908216806132a357607f821691505b6020821081036132c357634e487b7160e01b600052602260045260246000fd5b50919050565b601f821115610e6a57600081815260208120601f850160051c810160208610156132f05750805b601f850160051c820191505b818110156124da578281556001016132fc565b815167ffffffffffffffff81111561332957613329612e30565b61333d81613337845461328f565b846132c9565b602080601f831160018114613372576000841561335a5750858301515b600019600386901b1c1916600185901b1785556124da565b600085815260208120601f198616915b828110156133a157888601518255948401946001909101908401613382565b50858210156133bf5787850151600019600388901b60f8161c191681555b5050505050600190811b01905550565b634e487b7160e01b600052601160045260246000fd5b80820180821115610d7a57610d7a6133cf565b60208082526023908201527f4e6f7420656e6f75676820746f6b656e7320617661696c61626c6520746f206d6040820152621a5b9d60ea1b606082015260800190565b60609190911b6bffffffffffffffffffffffff1916815260140190565b8082028115828204841417610d7a57610d7a6133cf565b6020808252601c908201527f496e636f727265637420616d6f756e74206f66204554482073656e7400000000604082015260600190565b634e487b7160e01b600052601260045260246000fd5b6000826134cb576134cb6134a6565b500490565b634e487b7160e01b600052603260045260246000fd5b6000826134f5576134f56134a6565b500690565b60208082526023908201527f4e6f7420656e6f75676820617661696c61626c6520746f6b656e7320746f206d6040820152621a5b9d60ea1b606082015260800190565b60006020828403121561354f57600080fd5b815161282181612def565b60006001820161356c5761356c6133cf565b5060010190565b81810381811115610d7a57610d7a6133cf565b600081546135938161328f565b600182811680156135ab57600181146135c0576135ef565b60ff19841687528215158302870194506135ef565b8560005260208060002060005b858110156135e65781548a8201529084019082016135cd565b50505082870194505b5050505092915050565b60006136058286613586565b8451613615818360208901612d73565b61362181830186613586565b979650505050505050565b60006020828403121561363e57600080fd5b815161282181613029565b6001600160a01b038581168252841660208201526040810183905260806060820181905260009061367c90830184612d97565b9695505050505050565b60006020828403121561369857600080fd5b815161282181612d4056fe697066733a2f2f516d515a424b50567974674357396d656e6f4c467442427253485945557556534d61564a6e7a4562416b65345176ddf252ad1be2c89b69c2b068fc378daa952ba7f163c4a11628f55a4df523b3efa264697066735822122093e6c6516da7bbec9abb0897bed05c4581cd76c7171f84d938622d0c099acc7e64736f6c63430008110033697066733a2f2f516d62554b656541566345785762436834594a644b566948684d4d5a374b45625859327365714d347a454c6a5465","opcodes":"PUSH32 0xE7F8298F87D2EE1929E46697D0F96AAB1169087ECF1C383FEC654DE16742CEE4 PUSH1 0xC DUP2 SWAP1 SSTORE PUSH1 0xD SSTORE PUSH1 0xA0 PUSH1 0x40 MSTORE PUSH1 0x0 PUSH1 0x80 SWAP1 DUP2 MSTORE PUSH1 0xE SWAP1 PUSH3 0x43 SWAP1 DUP3 PUSH3 0x5AF JUMP JUMPDEST POP PUSH1 0x40 DUP1 MLOAD PUSH1 0x20 DUP2 ADD SWAP1 SWAP2 MSTORE PUSH1 0x0 DUP2 MSTORE PUSH1 0xF SWAP1 PUSH3 0x62 SWAP1 DUP3 PUSH3 0x5AF JUMP JUMPDEST POP PUSH1 0x40 MLOAD DUP1 PUSH1 0x60 ADD PUSH1 0x40 MSTORE DUP1 PUSH1 0x35 DUP2 MSTORE PUSH1 0x20 ADD PUSH3 0x3DEB PUSH1 0x35 SWAP2 CODECOPY PUSH1 0x10 SWAP1 PUSH3 0x8C SWAP1 DUP3 PUSH3 0x5AF JUMP JUMPDEST POP PUSH1 0x11 DUP1 SLOAD PUSH1 0x1 PUSH1 0x1 PUSH1 0xA8 SHL SUB NOT AND PUSH21 0x427811A5E90621FA8E54245479BC24F566817C3600 OR SWAP1 SSTORE PUSH7 0x44364C5BB0000 PUSH1 0x12 SSTORE PUSH6 0x5AF3107A4000 PUSH1 0x13 SSTORE PUSH1 0x64 PUSH1 0x14 SSTORE PUSH1 0x0 PUSH1 0x15 DUP2 SWAP1 SSTORE PUSH1 0x16 SSTORE PUSH1 0x3 PUSH1 0x17 DUP2 SWAP1 SSTORE PUSH1 0xA PUSH1 0x18 SSTORE PUSH1 0x1 PUSH1 0x19 SSTORE PUSH1 0x1A SSTORE PUSH1 0x2 PUSH1 0x1B SSTORE CALLVALUE DUP1 ISZERO PUSH3 0xFE JUMPI PUSH1 0x0 DUP1 REVERT JUMPDEST POP PUSH1 0x40 MLOAD PUSH3 0x3E20 CODESIZE SUB DUP1 PUSH3 0x3E20 DUP4 CODECOPY DUP2 ADD PUSH1 0x40 DUP2 SWAP1 MSTORE PUSH3 0x121 SWAP2 PUSH3 0x67B JUMP JUMPDEST PUSH20 0x3CC6CDDA760B79BAFA08DF41ECFA224F810DCEB6 PUSH1 0x1 PUSH1 0x40 MLOAD DUP1 PUSH1 0x40 ADD PUSH1 0x40 MSTORE DUP1 PUSH1 0x7 DUP2 MSTORE PUSH1 0x20 ADD PUSH7 0x26BCAA37B5B2B7 PUSH1 0xC9 SHL DUP2 MSTORE POP PUSH1 0x40 MLOAD DUP1 PUSH1 0x40 ADD PUSH1 0x40 MSTORE DUP1 PUSH1 0x7 DUP2 MSTORE PUSH1 0x20 ADD PUSH7 0x26BCAA37B5B2B7 PUSH1 0xC9 SHL DUP2 MSTORE POP DUP2 PUSH1 0x2 SWAP1 DUP2 PUSH3 0x189 SWAP2 SWAP1 PUSH3 0x5AF JUMP JUMPDEST POP PUSH1 0x3 PUSH3 0x198 DUP3 DUP3 PUSH3 0x5AF JUMP JUMPDEST POP POP PUSH1 0x1 PUSH1 0x0 SSTORE POP PUSH3 0x1AB CALLER PUSH3 0x33B JUMP JUMPDEST PUSH14 0xAAEB6D7670E522A718067333CD4E EXTCODESIZE ISZERO PUSH3 0x2F0 JUMPI DUP1 ISZERO PUSH3 0x23E JUMPI PUSH1 0x40 MLOAD PUSH4 0x3E9F1EDF PUSH1 0xE1 SHL DUP2 MSTORE ADDRESS PUSH1 0x4 DUP3 ADD MSTORE PUSH1 0x1 PUSH1 0x1 PUSH1 0xA0 SHL SUB DUP4 AND PUSH1 0x24 DUP3 ADD MSTORE PUSH14 0xAAEB6D7670E522A718067333CD4E SWAP1 PUSH4 0x7D3E3DBE SWAP1 PUSH1 0x44 ADD JUMPDEST PUSH1 0x0 PUSH1 0x40 MLOAD DUP1 DUP4 SUB DUP2 PUSH1 0x0 DUP8 DUP1 EXTCODESIZE ISZERO DUP1 ISZERO PUSH3 0x21F JUMPI PUSH1 0x0 DUP1 REVERT JUMPDEST POP GAS CALL ISZERO DUP1 ISZERO PUSH3 0x234 JUMPI RETURNDATASIZE PUSH1 0x0 DUP1 RETURNDATACOPY RETURNDATASIZE PUSH1 0x0 REVERT JUMPDEST POP POP POP POP PUSH3 0x2F0 JUMP JUMPDEST PUSH1 0x1 PUSH1 0x1 PUSH1 0xA0 SHL SUB DUP3 AND ISZERO PUSH3 0x28F JUMPI PUSH1 0x40 MLOAD PUSH4 0xA0AF2903 PUSH1 0xE0 SHL DUP2 MSTORE ADDRESS PUSH1 0x4 DUP3 ADD MSTORE PUSH1 0x1 PUSH1 0x1 PUSH1 0xA0 SHL SUB DUP4 AND PUSH1 0x24 DUP3 ADD MSTORE PUSH14 0xAAEB6D7670E522A718067333CD4E SWAP1 PUSH4 0xA0AF2903 SWAP1 PUSH1 0x44 ADD PUSH3 0x204 JUMP JUMPDEST PUSH1 0x40 MLOAD PUSH4 0x22107243 PUSH1 0xE1 SHL DUP2 MSTORE ADDRESS PUSH1 0x4 DUP3 ADD MSTORE PUSH14 0xAAEB6D7670E522A718067333CD4E SWAP1 PUSH4 0x4420E486 SWAP1 PUSH1 0x24 ADD PUSH1 0x0 PUSH1 0x40 MLOAD DUP1 DUP4 SUB DUP2 PUSH1 0x0 DUP8 DUP1 EXTCODESIZE ISZERO DUP1 ISZERO PUSH3 0x2D6 JUMPI PUSH1 0x0 DUP1 REVERT JUMPDEST POP GAS CALL ISZERO DUP1 ISZERO PUSH3 0x2EB JUMPI RETURNDATASIZE PUSH1 0x0 DUP1 RETURNDATACOPY RETURNDATASIZE PUSH1 0x0 REVERT JUMPDEST POP POP POP POP JUMPDEST POP POP PUSH1 0x1 PUSH1 0xB SSTORE PUSH1 0x11 SLOAD PUSH3 0x315 SWAP1 PUSH2 0x100 SWAP1 DIV PUSH1 0x1 PUSH1 0x1 PUSH1 0xA0 SHL SUB AND PUSH1 0x96 PUSH3 0x38D JUMP JUMPDEST PUSH1 0x1F DUP1 SLOAD PUSH1 0x1 PUSH1 0x1 PUSH1 0xA0 SHL SUB NOT AND PUSH1 0x1 PUSH1 0x1 PUSH1 0xA0 SHL SUB SWAP3 SWAP1 SWAP3 AND SWAP2 SWAP1 SWAP2 OR SWAP1 SSTORE PUSH3 0x6AD JUMP JUMPDEST PUSH1 0xA DUP1 SLOAD PUSH1 0x1 PUSH1 0x1 PUSH1 0xA0 SHL SUB DUP4 DUP2 AND PUSH1 0x1 PUSH1 0x1 PUSH1 0xA0 SHL SUB NOT DUP4 AND DUP2 OR SWAP1 SWAP4 SSTORE PUSH1 0x40 MLOAD SWAP2 AND SWAP2 SWAP1 DUP3 SWAP1 PUSH32 0x8BE0079C531659141344CD1FD0A4F28419497F9722A3DAAFE3B4186F6B6457E0 SWAP1 PUSH1 0x0 SWAP1 LOG3 POP POP JUMP JUMPDEST PUSH3 0x397 PUSH3 0x3A7 JUMP JUMPDEST PUSH3 0x3A3 DUP3 DUP3 PUSH3 0x409 JUMP JUMPDEST POP POP JUMP JUMPDEST PUSH1 0xA SLOAD PUSH1 0x1 PUSH1 0x1 PUSH1 0xA0 SHL SUB AND CALLER EQ PUSH3 0x407 JUMPI PUSH1 0x40 MLOAD PUSH3 0x461BCD PUSH1 0xE5 SHL DUP2 MSTORE PUSH1 0x20 PUSH1 0x4 DUP3 ADD DUP2 SWAP1 MSTORE PUSH1 0x24 DUP3 ADD MSTORE PUSH32 0x4F776E61626C653A2063616C6C6572206973206E6F7420746865206F776E6572 PUSH1 0x44 DUP3 ADD MSTORE PUSH1 0x64 ADD JUMPDEST PUSH1 0x40 MLOAD DUP1 SWAP2 SUB SWAP1 REVERT JUMPDEST JUMP JUMPDEST PUSH2 0x2710 PUSH1 0x1 PUSH1 0x1 PUSH1 0x60 SHL SUB DUP3 AND GT ISZERO PUSH3 0x479 JUMPI PUSH1 0x40 MLOAD PUSH3 0x461BCD PUSH1 0xE5 SHL DUP2 MSTORE PUSH1 0x20 PUSH1 0x4 DUP3 ADD MSTORE PUSH1 0x2A PUSH1 0x24 DUP3 ADD MSTORE PUSH32 0x455243323938313A20726F79616C7479206665652077696C6C20657863656564 PUSH1 0x44 DUP3 ADD MSTORE PUSH10 0x2073616C655072696365 PUSH1 0xB0 SHL PUSH1 0x64 DUP3 ADD MSTORE PUSH1 0x84 ADD PUSH3 0x3FE JUMP JUMPDEST PUSH1 0x1 PUSH1 0x1 PUSH1 0xA0 SHL SUB DUP3 AND PUSH3 0x4D1 JUMPI PUSH1 0x40 MLOAD PUSH3 0x461BCD PUSH1 0xE5 SHL DUP2 MSTORE PUSH1 0x20 PUSH1 0x4 DUP3 ADD MSTORE PUSH1 0x19 PUSH1 0x24 DUP3 ADD MSTORE PUSH32 0x455243323938313A20696E76616C696420726563656976657200000000000000 PUSH1 0x44 DUP3 ADD MSTORE PUSH1 0x64 ADD PUSH3 0x3FE JUMP JUMPDEST PUSH1 0x40 DUP1 MLOAD DUP1 DUP3 ADD SWAP1 SWAP2 MSTORE PUSH1 0x1 PUSH1 0x1 PUSH1 0xA0 SHL SUB SWAP1 SWAP3 AND DUP1 DUP4 MSTORE PUSH1 0x1 PUSH1 0x1 PUSH1 0x60 SHL SUB SWAP1 SWAP2 AND PUSH1 0x20 SWAP1 SWAP3 ADD DUP3 SWAP1 MSTORE PUSH1 0x1 PUSH1 0xA0 SHL SWAP1 SWAP2 MUL OR PUSH1 0x8 SSTORE JUMP JUMPDEST PUSH4 0x4E487B71 PUSH1 0xE0 SHL PUSH1 0x0 MSTORE PUSH1 0x41 PUSH1 0x4 MSTORE PUSH1 0x24 PUSH1 0x0 REVERT JUMPDEST PUSH1 0x1 DUP2 DUP2 SHR SWAP1 DUP3 AND DUP1 PUSH3 0x535 JUMPI PUSH1 0x7F DUP3 AND SWAP2 POP JUMPDEST PUSH1 0x20 DUP3 LT DUP2 SUB PUSH3 0x556 JUMPI PUSH4 0x4E487B71 PUSH1 0xE0 SHL PUSH1 0x0 MSTORE PUSH1 0x22 PUSH1 0x4 MSTORE PUSH1 0x24 PUSH1 0x0 REVERT JUMPDEST POP SWAP2 SWAP1 POP JUMP JUMPDEST PUSH1 0x1F DUP3 GT ISZERO PUSH3 0x5AA JUMPI PUSH1 0x0 DUP2 DUP2 MSTORE PUSH1 0x20 DUP2 KECCAK256 PUSH1 0x1F DUP6 ADD PUSH1 0x5 SHR DUP2 ADD PUSH1 0x20 DUP7 LT ISZERO PUSH3 0x585 JUMPI POP DUP1 JUMPDEST PUSH1 0x1F DUP6 ADD PUSH1 0x5 SHR DUP3 ADD SWAP2 POP JUMPDEST DUP2 DUP2 LT ISZERO PUSH3 0x5A6 JUMPI DUP3 DUP2 SSTORE PUSH1 0x1 ADD PUSH3 0x591 JUMP JUMPDEST POP POP POP JUMPDEST POP POP POP JUMP JUMPDEST DUP2 MLOAD PUSH1 0x1 PUSH1 0x1 PUSH1 0x40 SHL SUB DUP2 GT ISZERO PUSH3 0x5CB JUMPI PUSH3 0x5CB PUSH3 0x50A JUMP JUMPDEST PUSH3 0x5E3 DUP2 PUSH3 0x5DC DUP5 SLOAD PUSH3 0x520 JUMP JUMPDEST DUP5 PUSH3 0x55C JUMP JUMPDEST PUSH1 0x20 DUP1 PUSH1 0x1F DUP4 GT PUSH1 0x1 DUP2 EQ PUSH3 0x61B JUMPI PUSH1 0x0 DUP5 ISZERO PUSH3 0x602 JUMPI POP DUP6 DUP4 ADD MLOAD JUMPDEST PUSH1 0x0 NOT PUSH1 0x3 DUP7 SWAP1 SHL SHR NOT AND PUSH1 0x1 DUP6 SWAP1 SHL OR DUP6 SSTORE PUSH3 0x5A6 JUMP JUMPDEST PUSH1 0x0 DUP6 DUP2 MSTORE PUSH1 0x20 DUP2 KECCAK256 PUSH1 0x1F NOT DUP7 AND SWAP2 JUMPDEST DUP3 DUP2 LT ISZERO PUSH3 0x64C JUMPI DUP9 DUP7 ADD MLOAD DUP3 SSTORE SWAP5 DUP5 ADD SWAP5 PUSH1 0x1 SWAP1 SWAP2 ADD SWAP1 DUP5 ADD PUSH3 0x62B JUMP JUMPDEST POP DUP6 DUP3 LT ISZERO PUSH3 0x66B JUMPI DUP8 DUP6 ADD MLOAD PUSH1 0x0 NOT PUSH1 0x3 DUP9 SWAP1 SHL PUSH1 0xF8 AND SHR NOT AND DUP2 SSTORE JUMPDEST POP POP POP POP POP PUSH1 0x1 SWAP1 DUP2 SHL ADD SWAP1 SSTORE POP JUMP JUMPDEST PUSH1 0x0 PUSH1 0x20 DUP3 DUP5 SUB SLT ISZERO PUSH3 0x68E JUMPI PUSH1 0x0 DUP1 REVERT JUMPDEST DUP2 MLOAD PUSH1 0x1 PUSH1 0x1 PUSH1 0xA0 SHL SUB DUP2 AND DUP2 EQ PUSH3 0x6A6 JUMPI PUSH1 0x0 DUP1 REVERT JUMPDEST SWAP4 SWAP3 POP POP POP JUMP JUMPDEST PUSH2 0x372E DUP1 PUSH3 0x6BD PUSH1 0x0 CODECOPY PUSH1 0x0 RETURN INVALID PUSH1 0x80 PUSH1 0x40 MSTORE PUSH1 0x4 CALLDATASIZE LT PUSH2 0x43C JUMPI PUSH1 0x0 CALLDATALOAD PUSH1 0xE0 SHR DUP1 PUSH4 0x6CF217DB GT PUSH2 0x234 JUMPI DUP1 PUSH4 0xB4512AE6 GT PUSH2 0x12E JUMPI DUP1 PUSH4 0xE8315742 GT PUSH2 0xB6 JUMPI DUP1 PUSH4 0xF2FDE38B GT PUSH2 0x7A JUMPI DUP1 PUSH4 0xF2FDE38B EQ PUSH2 0xCCA JUMPI DUP1 PUSH4 0xF34439F0 EQ PUSH2 0xCEA JUMPI DUP1 PUSH4 0xF4A0A528 EQ PUSH2 0xD0A JUMPI DUP1 PUSH4 0xF8DCFC07 EQ PUSH2 0xD2A JUMPI DUP1 PUSH4 0xFE2C7FEE EQ PUSH2 0xD40 JUMPI PUSH1 0x0 DUP1 REVERT JUMPDEST DUP1 PUSH4 0xE8315742 EQ PUSH2 0xC3F JUMPI DUP1 PUSH4 0xE8A3D485 EQ PUSH2 0xC55 JUMPI DUP1 PUSH4 0xE91DC565 EQ PUSH2 0xC6A JUMPI DUP1 PUSH4 0xE985E9C5 EQ PUSH2 0xC8A JUMPI DUP1 PUSH4 0xED3DF8DF EQ PUSH2 0xCAA JUMPI PUSH1 0x0 DUP1 REVERT JUMPDEST DUP1 PUSH4 0xC4102D72 GT PUSH2 0xFD JUMPI DUP1 PUSH4 0xC4102D72 EQ PUSH2 0xB86 JUMPI DUP1 PUSH4 0xC87B56DD EQ PUSH2 0xBBC JUMPI DUP1 PUSH4 0xCDC5CDC1 EQ PUSH2 0xBDC JUMPI DUP1 PUSH4 0xD6492D81 EQ PUSH2 0xBFC JUMPI DUP1 PUSH4 0xE3491CA1 EQ PUSH2 0xC12 JUMPI PUSH1 0x0 DUP1 REVERT JUMPDEST DUP1 PUSH4 0xB4512AE6 EQ PUSH2 0xB27 JUMPI DUP1 PUSH4 0xB88D4FDE EQ PUSH2 0xB3D JUMPI DUP1 PUSH4 0xC0130F2F EQ PUSH2 0xB50 JUMPI DUP1 PUSH4 0xC21B471B EQ PUSH2 0xB66 JUMPI PUSH1 0x0 DUP1 REVERT JUMPDEST DUP1 PUSH4 0x943431BF GT PUSH2 0x1BC JUMPI DUP1 PUSH4 0xA1246217 GT PUSH2 0x180 JUMPI DUP1 PUSH4 0xA1246217 EQ PUSH2 0xA78 JUMPI DUP1 PUSH4 0xA22CB465 EQ PUSH2 0xAAE JUMPI DUP1 PUSH4 0xA2309FF8 EQ PUSH2 0xACE JUMPI DUP1 PUSH4 0xA6C09BC3 EQ PUSH2 0xAE7 JUMPI DUP1 PUSH4 0xAD3E31B7 EQ PUSH2 0xB07 JUMPI PUSH1 0x0 DUP1 REVERT JUMPDEST DUP1 PUSH4 0x943431BF EQ PUSH2 0x9E5 JUMPI DUP1 PUSH4 0x95D89B41 EQ PUSH2 0xA05 JUMPI DUP1 PUSH4 0x984FE438 EQ PUSH2 0xA1A JUMPI DUP1 PUSH4 0x9B3CAA39 EQ PUSH2 0xA2D JUMPI DUP1 PUSH4 0x9EE631D1 EQ PUSH2 0xA63 JUMPI PUSH1 0x0 DUP1 REVERT JUMPDEST DUP1 PUSH4 0x715018A6 GT PUSH2 0x203 JUMPI DUP1 PUSH4 0x715018A6 EQ PUSH2 0x952 JUMPI DUP1 PUSH4 0x793A9FCD EQ PUSH2 0x967 JUMPI DUP1 PUSH4 0x7CD33C10 EQ PUSH2 0x987 JUMPI DUP1 PUSH4 0x8DA3DE67 EQ PUSH2 0x9A7 JUMPI DUP1 PUSH4 0x8DA5CB5B EQ PUSH2 0x9C7 JUMPI PUSH1 0x0 DUP1 REVERT JUMPDEST DUP1 PUSH4 0x6CF217DB EQ PUSH2 0x8DD JUMPI DUP1 PUSH4 0x6E7CC377 EQ PUSH2 0x8FD JUMPI DUP1 PUSH4 0x7035BF18 EQ PUSH2 0x91D JUMPI DUP1 PUSH4 0x70A08231 EQ PUSH2 0x932 JUMPI PUSH1 0x0 DUP1 REVERT JUMPDEST DUP1 PUSH4 0x34C48943 GT PUSH2 0x345 JUMPI DUP1 PUSH4 0x54FD4D50 GT PUSH2 0x2CD JUMPI DUP1 PUSH4 0x5DE6DC55 GT PUSH2 0x291 JUMPI DUP1 PUSH4 0x5DE6DC55 EQ PUSH2 0x84F JUMPI DUP1 PUSH4 0x63172AC1 EQ PUSH2 0x87C JUMPI DUP1 PUSH4 0x6352211E EQ PUSH2 0x892 JUMPI DUP1 PUSH4 0x6817C76C EQ PUSH2 0x8B2 JUMPI DUP1 PUSH4 0x6C0360EB EQ PUSH2 0x8C8 JUMPI PUSH1 0x0 DUP1 REVERT JUMPDEST DUP1 PUSH4 0x54FD4D50 EQ PUSH2 0x7B3 JUMPI DUP1 PUSH4 0x55F804B3 EQ PUSH2 0x7DE JUMPI DUP1 PUSH4 0x58941A4D EQ PUSH2 0x7FE JUMPI DUP1 PUSH4 0x5B8D02D7 EQ PUSH2 0x814 JUMPI DUP1 PUSH4 0x5DC96D16 EQ PUSH2 0x839 JUMPI PUSH1 0x0 DUP1 REVERT JUMPDEST DUP1 PUSH4 0x42966C68 GT PUSH2 0x314 JUMPI DUP1 PUSH4 0x42966C68 EQ PUSH2 0x719 JUMPI DUP1 PUSH4 0x49A5980A EQ PUSH2 0x739 JUMPI DUP1 PUSH4 0x4CD0273C EQ PUSH2 0x759 JUMPI DUP1 PUSH4 0x4E765E65 EQ PUSH2 0x779 JUMPI DUP1 PUSH4 0x54214F69 EQ PUSH2 0x799 JUMPI PUSH1 0x0 DUP1 REVERT JUMPDEST DUP1 PUSH4 0x34C48943 EQ PUSH2 0x697 JUMPI DUP1 PUSH4 0x3826DD88 EQ PUSH2 0x6C4 JUMPI DUP1 PUSH4 0x41F43434 EQ PUSH2 0x6E4 JUMPI DUP1 PUSH4 0x42842E0E EQ PUSH2 0x706 JUMPI PUSH1 0x0 DUP1 REVERT JUMPDEST DUP1 PUSH4 0x17881CBF GT PUSH2 0x3C8 JUMPI DUP1 PUSH4 0x201C285B GT PUSH2 0x397 JUMPI DUP1 PUSH4 0x201C285B EQ PUSH2 0x5F2 JUMPI DUP1 PUSH4 0x23B872DD EQ PUSH2 0x605 JUMPI DUP1 PUSH4 0x2A55205A EQ PUSH2 0x618 JUMPI DUP1 PUSH4 0x2E1A7D4D EQ PUSH2 0x657 JUMPI DUP1 PUSH4 0x33EA51A8 EQ PUSH2 0x677 JUMPI PUSH1 0x0 DUP1 REVERT JUMPDEST DUP1 PUSH4 0x17881CBF EQ PUSH2 0x589 JUMPI DUP1 PUSH4 0x18160DDD EQ PUSH2 0x59F JUMPI DUP1 PUSH4 0x18D0E3E1 EQ PUSH2 0x5BC JUMPI DUP1 PUSH4 0x1BD9B9D9 EQ PUSH2 0x5DC JUMPI PUSH1 0x0 DUP1 REVERT JUMPDEST DUP1 PUSH4 0xE4F76B2 GT PUSH2 0x40F JUMPI DUP1 PUSH4 0xE4F76B2 EQ PUSH2 0x4E5 JUMPI DUP1 PUSH4 0xEF6A94B EQ PUSH2 0x509 JUMPI DUP1 PUSH4 0x107410BE EQ PUSH2 0x529 JUMPI DUP1 PUSH4 0x11E776FE EQ PUSH2 0x556 JUMPI DUP1 PUSH4 0x16E45F8E EQ PUSH2 0x576 JUMPI PUSH1 0x0 DUP1 REVERT JUMPDEST DUP1 PUSH4 0x1FFC9A7 EQ PUSH2 0x441 JUMPI DUP1 PUSH4 0x6FDDE03 EQ PUSH2 0x476 JUMPI DUP1 PUSH4 0x81812FC EQ PUSH2 0x498 JUMPI DUP1 PUSH4 0x95EA7B3 EQ PUSH2 0x4D0 JUMPI JUMPDEST PUSH1 0x0 DUP1 REVERT JUMPDEST CALLVALUE DUP1 ISZERO PUSH2 0x44D JUMPI PUSH1 0x0 DUP1 REVERT JUMPDEST POP PUSH2 0x461 PUSH2 0x45C CALLDATASIZE PUSH1 0x4 PUSH2 0x2D56 JUMP JUMPDEST PUSH2 0xD60 JUMP JUMPDEST PUSH1 0x40 MLOAD SWAP1 ISZERO ISZERO DUP2 MSTORE PUSH1 0x20 ADD JUMPDEST PUSH1 0x40 MLOAD DUP1 SWAP2 SUB SWAP1 RETURN JUMPDEST CALLVALUE DUP1 ISZERO PUSH2 0x482 JUMPI PUSH1 0x0 DUP1 REVERT JUMPDEST POP PUSH2 0x48B PUSH2 0xD80 JUMP JUMPDEST PUSH1 0x40 MLOAD PUSH2 0x46D SWAP2 SWAP1 PUSH2 0x2DC3 JUMP JUMPDEST CALLVALUE DUP1 ISZERO PUSH2 0x4A4 JUMPI PUSH1 0x0 DUP1 REVERT JUMPDEST POP PUSH2 0x4B8 PUSH2 0x4B3 CALLDATASIZE PUSH1 0x4 PUSH2 0x2DD6 JUMP JUMPDEST PUSH2 0xE12 JUMP JUMPDEST PUSH1 0x40 MLOAD PUSH1 0x1 PUSH1 0x1 PUSH1 0xA0 SHL SUB SWAP1 SWAP2 AND DUP2 MSTORE PUSH1 0x20 ADD PUSH2 0x46D JUMP JUMPDEST PUSH2 0x4E3 PUSH2 0x4DE CALLDATASIZE PUSH1 0x4 PUSH2 0x2E04 JUMP JUMPDEST PUSH2 0xE56 JUMP JUMPDEST STOP JUMPDEST CALLVALUE DUP1 ISZERO PUSH2 0x4F1 JUMPI PUSH1 0x0 DUP1 REVERT JUMPDEST POP PUSH2 0x4FB PUSH1 0x1A SLOAD DUP2 JUMP JUMPDEST PUSH1 0x40 MLOAD SWAP1 DUP2 MSTORE PUSH1 0x20 ADD PUSH2 0x46D JUMP JUMPDEST CALLVALUE DUP1 ISZERO PUSH2 0x515 JUMPI PUSH1 0x0 DUP1 REVERT JUMPDEST POP PUSH2 0x4E3 PUSH2 0x524 CALLDATASIZE PUSH1 0x4 PUSH2 0x2ECF JUMP JUMPDEST PUSH2 0xE6F JUMP JUMPDEST CALLVALUE DUP1 ISZERO PUSH2 0x535 JUMPI PUSH1 0x0 DUP1 REVERT JUMPDEST POP PUSH2 0x4FB PUSH2 0x544 CALLDATASIZE PUSH1 0x4 PUSH2 0x2F18 JUMP JUMPDEST PUSH1 0x1E PUSH1 0x20 MSTORE PUSH1 0x0 SWAP1 DUP2 MSTORE PUSH1 0x40 SWAP1 KECCAK256 SLOAD DUP2 JUMP JUMPDEST CALLVALUE DUP1 ISZERO PUSH2 0x562 JUMPI PUSH1 0x0 DUP1 REVERT JUMPDEST POP PUSH2 0x4E3 PUSH2 0x571 CALLDATASIZE PUSH1 0x4 PUSH2 0x2DD6 JUMP JUMPDEST PUSH2 0xE87 JUMP JUMPDEST PUSH2 0x4E3 PUSH2 0x584 CALLDATASIZE PUSH1 0x4 PUSH2 0x2F7A JUMP JUMPDEST PUSH2 0xE94 JUMP JUMPDEST CALLVALUE DUP1 ISZERO PUSH2 0x595 JUMPI PUSH1 0x0 DUP1 REVERT JUMPDEST POP PUSH2 0x4FB PUSH1 0x15 SLOAD DUP2 JUMP JUMPDEST CALLVALUE DUP1 ISZERO PUSH2 0x5AB JUMPI PUSH1 0x0 DUP1 REVERT JUMPDEST POP PUSH1 0x1 SLOAD PUSH1 0x0 SLOAD SUB PUSH1 0x0 NOT ADD PUSH2 0x4FB JUMP JUMPDEST CALLVALUE DUP1 ISZERO PUSH2 0x5C8 JUMPI PUSH1 0x0 DUP1 REVERT JUMPDEST POP PUSH2 0x4E3 PUSH2 0x5D7 CALLDATASIZE PUSH1 0x4 PUSH2 0x2DD6 JUMP JUMPDEST PUSH2 0x10AE JUMP JUMPDEST CALLVALUE DUP1 ISZERO PUSH2 0x5E8 JUMPI PUSH1 0x0 DUP1 REVERT JUMPDEST POP PUSH2 0x4FB PUSH1 0xD SLOAD DUP2 JUMP JUMPDEST PUSH2 0x4E3 PUSH2 0x600 CALLDATASIZE PUSH1 0x4 PUSH2 0x2F7A JUMP JUMPDEST PUSH2 0x10BB JUMP JUMPDEST PUSH2 0x4E3 PUSH2 0x613 CALLDATASIZE PUSH1 0x4 PUSH2 0x2FC6 JUMP JUMPDEST PUSH2 0x12A7 JUMP JUMPDEST CALLVALUE DUP1 ISZERO PUSH2 0x624 JUMPI PUSH1 0x0 DUP1 REVERT JUMPDEST POP PUSH2 0x638 PUSH2 0x633 CALLDATASIZE PUSH1 0x4 PUSH2 0x3007 JUMP JUMPDEST PUSH2 0x12D2 JUMP JUMPDEST PUSH1 0x40 DUP1 MLOAD PUSH1 0x1 PUSH1 0x1 PUSH1 0xA0 SHL SUB SWAP1 SWAP4 AND DUP4 MSTORE PUSH1 0x20 DUP4 ADD SWAP2 SWAP1 SWAP2 MSTORE ADD PUSH2 0x46D JUMP JUMPDEST CALLVALUE DUP1 ISZERO PUSH2 0x663 JUMPI PUSH1 0x0 DUP1 REVERT JUMPDEST POP PUSH2 0x4E3 PUSH2 0x672 CALLDATASIZE PUSH1 0x4 PUSH2 0x2DD6 JUMP JUMPDEST PUSH2 0x1380 JUMP JUMPDEST CALLVALUE DUP1 ISZERO PUSH2 0x683 JUMPI PUSH1 0x0 DUP1 REVERT JUMPDEST POP PUSH2 0x4E3 PUSH2 0x692 CALLDATASIZE PUSH1 0x4 PUSH2 0x2F18 JUMP JUMPDEST PUSH2 0x143B JUMP JUMPDEST CALLVALUE DUP1 ISZERO PUSH2 0x6A3 JUMPI PUSH1 0x0 DUP1 REVERT JUMPDEST POP PUSH2 0x4FB PUSH2 0x6B2 CALLDATASIZE PUSH1 0x4 PUSH2 0x2F18 JUMP JUMPDEST PUSH1 0x1D PUSH1 0x20 MSTORE PUSH1 0x0 SWAP1 DUP2 MSTORE PUSH1 0x40 SWAP1 KECCAK256 SLOAD DUP2 JUMP JUMPDEST CALLVALUE DUP1 ISZERO PUSH2 0x6D0 JUMPI PUSH1 0x0 DUP1 REVERT JUMPDEST POP PUSH2 0x4E3 PUSH2 0x6DF CALLDATASIZE PUSH1 0x4 PUSH2 0x2DD6 JUMP JUMPDEST PUSH2 0x146B JUMP JUMPDEST CALLVALUE DUP1 ISZERO PUSH2 0x6F0 JUMPI PUSH1 0x0 DUP1 REVERT JUMPDEST POP PUSH2 0x4B8 PUSH14 0xAAEB6D7670E522A718067333CD4E DUP2 JUMP JUMPDEST PUSH2 0x4E3 PUSH2 0x714 CALLDATASIZE PUSH1 0x4 PUSH2 0x2FC6 JUMP JUMPDEST PUSH2 0x1478 JUMP JUMPDEST CALLVALUE DUP1 ISZERO PUSH2 0x725 JUMPI PUSH1 0x0 DUP1 REVERT JUMPDEST POP PUSH2 0x4E3 PUSH2 0x734 CALLDATASIZE PUSH1 0x4 PUSH2 0x2DD6 JUMP JUMPDEST PUSH2 0x149D JUMP JUMPDEST CALLVALUE DUP1 ISZERO PUSH2 0x745 JUMPI PUSH1 0x0 DUP1 REVERT JUMPDEST POP PUSH2 0x4E3 PUSH2 0x754 CALLDATASIZE PUSH1 0x4 PUSH2 0x3037 JUMP JUMPDEST PUSH2 0x14AB JUMP JUMPDEST CALLVALUE DUP1 ISZERO PUSH2 0x765 JUMPI PUSH1 0x0 DUP1 REVERT JUMPDEST POP PUSH2 0x4E3 PUSH2 0x774 CALLDATASIZE PUSH1 0x4 PUSH2 0x2DD6 JUMP JUMPDEST PUSH2 0x14C6 JUMP JUMPDEST CALLVALUE DUP1 ISZERO PUSH2 0x785 JUMPI PUSH1 0x0 DUP1 REVERT JUMPDEST POP PUSH2 0x4E3 PUSH2 0x794 CALLDATASIZE PUSH1 0x4 PUSH2 0x2DD6 JUMP JUMPDEST PUSH2 0x14D3 JUMP JUMPDEST CALLVALUE DUP1 ISZERO PUSH2 0x7A5 JUMPI PUSH1 0x0 DUP1 REVERT JUMPDEST POP PUSH1 0x11 SLOAD PUSH2 0x461 SWAP1 PUSH1 0xFF AND DUP2 JUMP JUMPDEST CALLVALUE DUP1 ISZERO PUSH2 0x7BF JUMPI PUSH1 0x0 DUP1 REVERT JUMPDEST POP PUSH1 0x40 DUP1 MLOAD DUP1 DUP3 ADD SWAP1 SWAP2 MSTORE PUSH1 0x2 DUP2 MSTORE PUSH2 0x2E31 PUSH1 0xF0 SHL PUSH1 0x20 DUP3 ADD MSTORE PUSH2 0x48B JUMP JUMPDEST CALLVALUE DUP1 ISZERO PUSH2 0x7EA JUMPI PUSH1 0x0 DUP1 REVERT JUMPDEST POP PUSH2 0x4E3 PUSH2 0x7F9 CALLDATASIZE PUSH1 0x4 PUSH2 0x2ECF JUMP JUMPDEST PUSH2 0x14E0 JUMP JUMPDEST CALLVALUE DUP1 ISZERO PUSH2 0x80A JUMPI PUSH1 0x0 DUP1 REVERT JUMPDEST POP PUSH2 0x4FB PUSH1 0x1B SLOAD DUP2 JUMP JUMPDEST CALLVALUE DUP1 ISZERO PUSH2 0x820 JUMPI PUSH1 0x0 DUP1 REVERT JUMPDEST POP PUSH1 0x11 SLOAD PUSH2 0x4B8 SWAP1 PUSH2 0x100 SWAP1 DIV PUSH1 0x1 PUSH1 0x1 PUSH1 0xA0 SHL SUB AND DUP2 JUMP JUMPDEST CALLVALUE DUP1 ISZERO PUSH2 0x845 JUMPI PUSH1 0x0 DUP1 REVERT JUMPDEST POP PUSH2 0x4FB PUSH1 0x16 SLOAD DUP2 JUMP JUMPDEST CALLVALUE DUP1 ISZERO PUSH2 0x85B JUMPI PUSH1 0x0 DUP1 REVERT JUMPDEST POP PUSH2 0x86F PUSH2 0x86A CALLDATASIZE PUSH1 0x4 PUSH2 0x2F18 JUMP JUMPDEST PUSH2 0x14F4 JUMP JUMPDEST PUSH1 0x40 MLOAD PUSH2 0x46D SWAP2 SWAP1 PUSH2 0x3054 JUMP JUMPDEST CALLVALUE DUP1 ISZERO PUSH2 0x888 JUMPI PUSH1 0x0 DUP1 REVERT JUMPDEST POP PUSH2 0x4FB PUSH1 0x18 SLOAD DUP2 JUMP JUMPDEST CALLVALUE DUP1 ISZERO PUSH2 0x89E JUMPI PUSH1 0x0 DUP1 REVERT JUMPDEST POP PUSH2 0x4B8 PUSH2 0x8AD CALLDATASIZE PUSH1 0x4 PUSH2 0x2DD6 JUMP JUMPDEST PUSH2 0x15FD JUMP JUMPDEST CALLVALUE DUP1 ISZERO PUSH2 0x8BE JUMPI PUSH1 0x0 DUP1 REVERT JUMPDEST POP PUSH2 0x4FB PUSH1 0x12 SLOAD DUP2 JUMP JUMPDEST CALLVALUE DUP1 ISZERO PUSH2 0x8D4 JUMPI PUSH1 0x0 DUP1 REVERT JUMPDEST POP PUSH2 0x48B PUSH2 0x1608 JUMP JUMPDEST CALLVALUE DUP1 ISZERO PUSH2 0x8E9 JUMPI PUSH1 0x0 DUP1 REVERT JUMPDEST POP PUSH2 0x4E3 PUSH2 0x8F8 CALLDATASIZE PUSH1 0x4 PUSH2 0x2DD6 JUMP JUMPDEST PUSH2 0x1696 JUMP JUMPDEST CALLVALUE DUP1 ISZERO PUSH2 0x909 JUMPI PUSH1 0x0 DUP1 REVERT JUMPDEST POP PUSH1 0x1F SLOAD PUSH2 0x4B8 SWAP1 PUSH1 0x1 PUSH1 0x1 PUSH1 0xA0 SHL SUB AND DUP2 JUMP JUMPDEST CALLVALUE DUP1 ISZERO PUSH2 0x929 JUMPI PUSH1 0x0 DUP1 REVERT JUMPDEST POP PUSH2 0x48B PUSH2 0x16A3 JUMP JUMPDEST CALLVALUE DUP1 ISZERO PUSH2 0x93E JUMPI PUSH1 0x0 DUP1 REVERT JUMPDEST POP PUSH2 0x4FB PUSH2 0x94D CALLDATASIZE PUSH1 0x4 PUSH2 0x2F18 JUMP JUMPDEST PUSH2 0x16B0 JUMP JUMPDEST CALLVALUE DUP1 ISZERO PUSH2 0x95E JUMPI PUSH1 0x0 DUP1 REVERT JUMPDEST POP PUSH2 0x4E3 PUSH2 0x16FF JUMP JUMPDEST CALLVALUE DUP1 ISZERO PUSH2 0x973 JUMPI PUSH1 0x0 DUP1 REVERT JUMPDEST POP PUSH2 0x4E3 PUSH2 0x982 CALLDATASIZE PUSH1 0x4 PUSH2 0x2E04 JUMP JUMPDEST PUSH2 0x1713 JUMP JUMPDEST CALLVALUE DUP1 ISZERO PUSH2 0x993 JUMPI PUSH1 0x0 DUP1 REVERT JUMPDEST POP PUSH2 0x4E3 PUSH2 0x9A2 CALLDATASIZE PUSH1 0x4 PUSH2 0x308C JUMP JUMPDEST PUSH2 0x175E JUMP JUMPDEST CALLVALUE DUP1 ISZERO PUSH2 0x9B3 JUMPI PUSH1 0x0 DUP1 REVERT JUMPDEST POP PUSH2 0x4E3 PUSH2 0x9C2 CALLDATASIZE PUSH1 0x4 PUSH2 0x2DD6 JUMP JUMPDEST PUSH2 0x1A26 JUMP JUMPDEST CALLVALUE DUP1 ISZERO PUSH2 0x9D3 JUMPI PUSH1 0x0 DUP1 REVERT JUMPDEST POP PUSH1 0xA SLOAD PUSH1 0x1 PUSH1 0x1 PUSH1 0xA0 SHL SUB AND PUSH2 0x4B8 JUMP JUMPDEST CALLVALUE DUP1 ISZERO PUSH2 0x9F1 JUMPI PUSH1 0x0 DUP1 REVERT JUMPDEST POP PUSH2 0x4E3 PUSH2 0xA00 CALLDATASIZE PUSH1 0x4 PUSH2 0x2DD6 JUMP JUMPDEST PUSH2 0x1A33 JUMP JUMPDEST CALLVALUE DUP1 ISZERO PUSH2 0xA11 JUMPI PUSH1 0x0 DUP1 REVERT JUMPDEST POP PUSH2 0x48B PUSH2 0x1A5E JUMP JUMPDEST PUSH2 0x4E3 PUSH2 0xA28 CALLDATASIZE PUSH1 0x4 PUSH2 0x2F7A JUMP JUMPDEST PUSH2 0x1A6D JUMP JUMPDEST CALLVALUE DUP1 ISZERO PUSH2 0xA39 JUMPI PUSH1 0x0 DUP1 REVERT JUMPDEST POP PUSH2 0x4FB PUSH2 0xA48 CALLDATASIZE PUSH1 0x4 PUSH2 0x2F18 JUMP JUMPDEST PUSH1 0x1 PUSH1 0x1 PUSH1 0xA0 SHL SUB AND PUSH1 0x0 SWAP1 DUP2 MSTORE PUSH1 0x1D PUSH1 0x20 MSTORE PUSH1 0x40 SWAP1 KECCAK256 SLOAD SWAP1 JUMP JUMPDEST CALLVALUE DUP1 ISZERO PUSH2 0xA6F JUMPI PUSH1 0x0 DUP1 REVERT JUMPDEST POP PUSH2 0x48B PUSH2 0x1CB2 JUMP JUMPDEST CALLVALUE DUP1 ISZERO PUSH2 0xA84 JUMPI PUSH1 0x0 DUP1 REVERT JUMPDEST POP PUSH2 0x4FB PUSH2 0xA93 CALLDATASIZE PUSH1 0x4 PUSH2 0x2F18 JUMP JUMPDEST PUSH1 0x1 PUSH1 0x1 PUSH1 0xA0 SHL SUB AND PUSH1 0x0 SWAP1 DUP2 MSTORE PUSH1 0x1C PUSH1 0x20 MSTORE PUSH1 0x40 SWAP1 KECCAK256 SLOAD SWAP1 JUMP JUMPDEST CALLVALUE DUP1 ISZERO PUSH2 0xABA JUMPI PUSH1 0x0 DUP1 REVERT JUMPDEST POP PUSH2 0x4E3 PUSH2 0xAC9 CALLDATASIZE PUSH1 0x4 PUSH2 0x3132 JUMP JUMPDEST PUSH2 0x1CBF JUMP JUMPDEST CALLVALUE DUP1 ISZERO PUSH2 0xADA JUMPI PUSH1 0x0 DUP1 REVERT JUMPDEST POP PUSH1 0x0 SLOAD PUSH1 0x0 NOT ADD PUSH2 0x4FB JUMP JUMPDEST CALLVALUE DUP1 ISZERO PUSH2 0xAF3 JUMPI PUSH1 0x0 DUP1 REVERT JUMPDEST POP PUSH2 0x461 PUSH2 0xB02 CALLDATASIZE PUSH1 0x4 PUSH2 0x316B JUMP JUMPDEST PUSH2 0x1CD3 JUMP JUMPDEST CALLVALUE DUP1 ISZERO PUSH2 0xB13 JUMPI PUSH1 0x0 DUP1 REVERT JUMPDEST POP PUSH2 0x4E3 PUSH2 0xB22 CALLDATASIZE PUSH1 0x4 PUSH2 0x2DD6 JUMP JUMPDEST PUSH2 0x1D16 JUMP JUMPDEST CALLVALUE DUP1 ISZERO PUSH2 0xB33 JUMPI PUSH1 0x0 DUP1 REVERT JUMPDEST POP PUSH2 0x4FB PUSH1 0x19 SLOAD DUP2 JUMP JUMPDEST PUSH2 0x4E3 PUSH2 0xB4B CALLDATASIZE PUSH1 0x4 PUSH2 0x31A7 JUMP JUMPDEST PUSH2 0x1D23 JUMP JUMPDEST CALLVALUE DUP1 ISZERO PUSH2 0xB5C JUMPI PUSH1 0x0 DUP1 REVERT JUMPDEST POP PUSH2 0x4FB PUSH1 0x13 SLOAD DUP2 JUMP JUMPDEST CALLVALUE DUP1 ISZERO PUSH2 0xB72 JUMPI PUSH1 0x0 DUP1 REVERT JUMPDEST POP PUSH2 0x4E3 PUSH2 0xB81 CALLDATASIZE PUSH1 0x4 PUSH2 0x3227 JUMP JUMPDEST PUSH2 0x1D50 JUMP JUMPDEST CALLVALUE DUP1 ISZERO PUSH2 0xB92 JUMPI PUSH1 0x0 DUP1 REVERT JUMPDEST POP PUSH2 0x4FB PUSH2 0xBA1 CALLDATASIZE PUSH1 0x4 PUSH2 0x2F18 JUMP JUMPDEST PUSH1 0x1 PUSH1 0x1 PUSH1 0xA0 SHL SUB AND PUSH1 0x0 SWAP1 DUP2 MSTORE PUSH1 0x1E PUSH1 0x20 MSTORE PUSH1 0x40 SWAP1 KECCAK256 SLOAD SWAP1 JUMP JUMPDEST CALLVALUE DUP1 ISZERO PUSH2 0xBC8 JUMPI PUSH1 0x0 DUP1 REVERT JUMPDEST POP PUSH2 0x48B PUSH2 0xBD7 CALLDATASIZE PUSH1 0x4 PUSH2 0x2DD6 JUMP JUMPDEST PUSH2 0x1D62 JUMP JUMPDEST CALLVALUE DUP1 ISZERO PUSH2 0xBE8 JUMPI PUSH1 0x0 DUP1 REVERT JUMPDEST POP PUSH2 0x4E3 PUSH2 0xBF7 CALLDATASIZE PUSH1 0x4 PUSH2 0x2E04 JUMP JUMPDEST PUSH2 0x1E8A JUMP JUMPDEST CALLVALUE DUP1 ISZERO PUSH2 0xC08 JUMPI PUSH1 0x0 DUP1 REVERT JUMPDEST POP PUSH2 0x4FB PUSH1 0xC SLOAD DUP2 JUMP JUMPDEST CALLVALUE DUP1 ISZERO PUSH2 0xC1E JUMPI PUSH1 0x0 DUP1 REVERT JUMPDEST POP PUSH2 0x4FB PUSH2 0xC2D CALLDATASIZE PUSH1 0x4 PUSH2 0x2F18 JUMP JUMPDEST PUSH1 0x1C PUSH1 0x20 MSTORE PUSH1 0x0 SWAP1 DUP2 MSTORE PUSH1 0x40 SWAP1 KECCAK256 SLOAD DUP2 JUMP JUMPDEST CALLVALUE DUP1 ISZERO PUSH2 0xC4B JUMPI PUSH1 0x0 DUP1 REVERT JUMPDEST POP PUSH2 0x4FB PUSH1 0x14 SLOAD DUP2 JUMP JUMPDEST CALLVALUE DUP1 ISZERO PUSH2 0xC61 JUMPI PUSH1 0x0 DUP1 REVERT JUMPDEST POP PUSH2 0x48B PUSH2 0x1EE4 JUMP JUMPDEST CALLVALUE DUP1 ISZERO PUSH2 0xC76 JUMPI PUSH1 0x0 DUP1 REVERT JUMPDEST POP PUSH2 0x4E3 PUSH2 0xC85 CALLDATASIZE PUSH1 0x4 PUSH2 0x2DD6 JUMP JUMPDEST PUSH2 0x1F04 JUMP JUMPDEST CALLVALUE DUP1 ISZERO PUSH2 0xC96 JUMPI PUSH1 0x0 DUP1 REVERT JUMPDEST POP PUSH2 0x461 PUSH2 0xCA5 CALLDATASIZE PUSH1 0x4 PUSH2 0x3261 JUMP JUMPDEST PUSH2 0x1F11 JUMP JUMPDEST CALLVALUE DUP1 ISZERO PUSH2 0xCB6 JUMPI PUSH1 0x0 DUP1 REVERT JUMPDEST POP PUSH2 0x4E3 PUSH2 0xCC5 CALLDATASIZE PUSH1 0x4 PUSH2 0x2F18 JUMP JUMPDEST PUSH2 0x1F3F JUMP JUMPDEST CALLVALUE DUP1 ISZERO PUSH2 0xCD6 JUMPI PUSH1 0x0 DUP1 REVERT JUMPDEST POP PUSH2 0x4E3 PUSH2 0xCE5 CALLDATASIZE PUSH1 0x4 PUSH2 0x2F18 JUMP JUMPDEST PUSH2 0x1F69 JUMP JUMPDEST CALLVALUE DUP1 ISZERO PUSH2 0xCF6 JUMPI PUSH1 0x0 DUP1 REVERT JUMPDEST POP PUSH2 0x4E3 PUSH2 0xD05 CALLDATASIZE PUSH1 0x4 PUSH2 0x2DD6 JUMP JUMPDEST PUSH2 0x1FDF JUMP JUMPDEST CALLVALUE DUP1 ISZERO PUSH2 0xD16 JUMPI PUSH1 0x0 DUP1 REVERT JUMPDEST POP PUSH2 0x4E3 PUSH2 0xD25 CALLDATASIZE PUSH1 0x4 PUSH2 0x2DD6 JUMP JUMPDEST PUSH2 0x1FEC JUMP JUMPDEST CALLVALUE DUP1 ISZERO PUSH2 0xD36 JUMPI PUSH1 0x0 DUP1 REVERT JUMPDEST POP PUSH2 0x4FB PUSH1 0x17 SLOAD DUP2 JUMP JUMPDEST CALLVALUE DUP1 ISZERO PUSH2 0xD4C JUMPI PUSH1 0x0 DUP1 REVERT JUMPDEST POP PUSH2 0x4E3 PUSH2 0xD5B CALLDATASIZE PUSH1 0x4 PUSH2 0x2ECF JUMP JUMPDEST PUSH2 0x1FF9 JUMP JUMPDEST PUSH1 0x0 PUSH2 0xD6B DUP3 PUSH2 0x200D JUMP JUMPDEST DUP1 PUSH2 0xD7A JUMPI POP PUSH2 0xD7A DUP3 PUSH2 0x205B JUMP JUMPDEST SWAP3 SWAP2 POP POP JUMP JUMPDEST PUSH1 0x60 PUSH1 0x2 DUP1 SLOAD PUSH2 0xD8F SWAP1 PUSH2 0x328F JUMP JUMPDEST DUP1 PUSH1 0x1F ADD PUSH1 0x20 DUP1 SWAP2 DIV MUL PUSH1 0x20 ADD PUSH1 0x40 MLOAD SWAP1 DUP2 ADD PUSH1 0x40 MSTORE DUP1 SWAP3 SWAP2 SWAP1 DUP2 DUP2 MSTORE PUSH1 0x20 ADD DUP3 DUP1 SLOAD PUSH2 0xDBB SWAP1 PUSH2 0x328F JUMP JUMPDEST DUP1 ISZERO PUSH2 0xE08 JUMPI DUP1 PUSH1 0x1F LT PUSH2 0xDDD JUMPI PUSH2 0x100 DUP1 DUP4 SLOAD DIV MUL DUP4 MSTORE SWAP2 PUSH1 0x20 ADD SWAP2 PUSH2 0xE08 JUMP JUMPDEST DUP3 ADD SWAP2 SWAP1 PUSH1 0x0 MSTORE PUSH1 0x20 PUSH1 0x0 KECCAK256 SWAP1 JUMPDEST DUP2 SLOAD DUP2 MSTORE SWAP1 PUSH1 0x1 ADD SWAP1 PUSH1 0x20 ADD DUP1 DUP4 GT PUSH2 0xDEB JUMPI DUP3 SWAP1 SUB PUSH1 0x1F AND DUP3 ADD SWAP2 JUMPDEST POP POP POP POP POP SWAP1 POP SWAP1 JUMP JUMPDEST PUSH1 0x0 PUSH2 0xE1D DUP3 PUSH2 0x2090 JUMP JUMPDEST PUSH2 0xE3A JUMPI PUSH1 0x40 MLOAD PUSH4 0x33D1C039 PUSH1 0xE2 SHL DUP2 MSTORE PUSH1 0x4 ADD PUSH1 0x40 MLOAD DUP1 SWAP2 SUB SWAP1 REVERT JUMPDEST POP PUSH1 0x0 SWAP1 DUP2 MSTORE PUSH1 0x6 PUSH1 0x20 MSTORE PUSH1 0x40 SWAP1 KECCAK256 SLOAD PUSH1 0x1 PUSH1 0x1 PUSH1 0xA0 SHL SUB AND SWAP1 JUMP JUMPDEST DUP2 PUSH2 0xE60 DUP2 PUSH2 0x20C5 JUMP JUMPDEST PUSH2 0xE6A DUP4 DUP4 PUSH2 0x217E JUMP JUMPDEST POP POP POP JUMP JUMPDEST PUSH2 0xE77 PUSH2 0x221E JUMP JUMPDEST PUSH1 0xF PUSH2 0xE83 DUP3 DUP3 PUSH2 0x330F JUMP JUMPDEST POP POP JUMP JUMPDEST PUSH2 0xE8F PUSH2 0x221E JUMP JUMPDEST PUSH1 0x14 SSTORE JUMP JUMPDEST PUSH2 0xE9C PUSH2 0x2278 JUMP JUMPDEST PUSH1 0x15 SLOAD PUSH1 0x3 EQ PUSH2 0xEF3 JUMPI PUSH1 0x40 MLOAD PUSH3 0x461BCD PUSH1 0xE5 SHL DUP2 MSTORE PUSH1 0x20 PUSH1 0x4 DUP3 ADD MSTORE PUSH1 0x1C PUSH1 0x24 DUP3 ADD MSTORE PUSH32 0x5075626C6963204D696E74206973206E6F7420617661696C61626C6500000000 PUSH1 0x44 DUP3 ADD MSTORE PUSH1 0x64 ADD JUMPDEST PUSH1 0x40 MLOAD DUP1 SWAP2 SUB SWAP1 REVERT JUMPDEST CALLER ORIGIN EQ PUSH2 0xF30 JUMPI PUSH1 0x40 MLOAD PUSH3 0x461BCD PUSH1 0xE5 SHL DUP2 MSTORE PUSH1 0x20 PUSH1 0x4 DUP3 ADD MSTORE PUSH1 0xB PUSH1 0x24 DUP3 ADD MSTORE PUSH11 0x446972656374206F6E6C79 PUSH1 0xA8 SHL PUSH1 0x44 DUP3 ADD MSTORE PUSH1 0x64 ADD PUSH2 0xEEA JUMP JUMPDEST PUSH1 0x14 SLOAD DUP4 PUSH2 0xF41 PUSH1 0x0 SLOAD PUSH1 0x0 NOT ADD SWAP1 JUMP JUMPDEST PUSH2 0xF4B SWAP2 SWAP1 PUSH2 0x33E5 JUMP JUMPDEST GT ISZERO PUSH2 0xF69 JUMPI PUSH1 0x40 MLOAD PUSH3 0x461BCD PUSH1 0xE5 SHL DUP2 MSTORE PUSH1 0x4 ADD PUSH2 0xEEA SWAP1 PUSH2 0x33F8 JUMP JUMPDEST PUSH1 0x18 SLOAD CALLER PUSH1 0x0 SWAP1 DUP2 MSTORE PUSH1 0x1D PUSH1 0x20 MSTORE PUSH1 0x40 SWAP1 KECCAK256 SLOAD PUSH2 0xF87 SWAP1 DUP6 SWAP1 PUSH2 0x33E5 JUMP JUMPDEST GT ISZERO PUSH2 0xFD5 JUMPI PUSH1 0x40 MLOAD PUSH3 0x461BCD PUSH1 0xE5 SHL DUP2 MSTORE PUSH1 0x20 PUSH1 0x4 DUP3 ADD MSTORE PUSH1 0x1A PUSH1 0x24 DUP3 ADD MSTORE PUSH32 0x4578636565646564205075626C696320416C6C6F636174696F6E000000000000 PUSH1 0x44 DUP3 ADD MSTORE PUSH1 0x64 ADD PUSH2 0xEEA JUMP JUMPDEST PUSH1 0x0 CALLER PUSH1 0x40 MLOAD PUSH1 0x20 ADD PUSH2 0xFE8 SWAP2 SWAP1 PUSH2 0x343B JUMP JUMPDEST PUSH1 0x40 MLOAD PUSH1 0x20 DUP2 DUP4 SUB SUB DUP2 MSTORE SWAP1 PUSH1 0x40 MSTORE DUP1 MLOAD SWAP1 PUSH1 0x20 ADD KECCAK256 SWAP1 POP PUSH1 0x0 PUSH2 0x1010 DUP5 DUP5 PUSH1 0xC SLOAD DUP6 PUSH2 0x22D1 JUMP JUMPDEST SWAP1 POP DUP1 ISZERO PUSH2 0x1048 JUMPI PUSH1 0x13 SLOAD PUSH2 0x1025 SWAP1 DUP7 PUSH2 0x3458 JUMP JUMPDEST CALLVALUE EQ PUSH2 0x1043 JUMPI PUSH1 0x40 MLOAD PUSH3 0x461BCD PUSH1 0xE5 SHL DUP2 MSTORE PUSH1 0x4 ADD PUSH2 0xEEA SWAP1 PUSH2 0x346F JUMP JUMPDEST PUSH2 0x1073 JUMP JUMPDEST PUSH1 0x12 SLOAD PUSH2 0x1055 SWAP1 DUP7 PUSH2 0x3458 JUMP JUMPDEST CALLVALUE EQ PUSH2 0x1073 JUMPI PUSH1 0x40 MLOAD PUSH3 0x461BCD PUSH1 0xE5 SHL DUP2 MSTORE PUSH1 0x4 ADD PUSH2 0xEEA SWAP1 PUSH2 0x346F JUMP JUMPDEST PUSH2 0x107D CALLER DUP7 PUSH2 0x22EB JUMP JUMPDEST CALLER PUSH1 0x0 SWAP1 DUP2 MSTORE PUSH1 0x1D PUSH1 0x20 MSTORE PUSH1 0x40 DUP2 KECCAK256 DUP1 SLOAD DUP8 SWAP3 SWAP1 PUSH2 0x109C SWAP1 DUP5 SWAP1 PUSH2 0x33E5 JUMP JUMPDEST SWAP1 SWAP2 SSTORE POP POP PUSH1 0x1 PUSH1 0xB SSTORE POP PUSH2 0xE6A SWAP1 POP JUMP JUMPDEST PUSH2 0x10B6 PUSH2 0x221E JUMP JUMPDEST PUSH1 0x1B SSTORE JUMP JUMPDEST PUSH2 0x10C3 PUSH2 0x2278 JUMP JUMPDEST PUSH1 0x15 SLOAD PUSH1 0x2 EQ PUSH2 0x1120 JUMPI PUSH1 0x40 MLOAD PUSH3 0x461BCD PUSH1 0xE5 SHL DUP2 MSTORE PUSH1 0x20 PUSH1 0x4 DUP3 ADD MSTORE PUSH1 0x22 PUSH1 0x24 DUP3 ADD MSTORE PUSH32 0x57686974656C697374204D696E74696E67206973206E6F7420617661696C6162 PUSH1 0x44 DUP3 ADD MSTORE PUSH2 0x6C65 PUSH1 0xF0 SHL PUSH1 0x64 DUP3 ADD MSTORE PUSH1 0x84 ADD PUSH2 0xEEA JUMP JUMPDEST PUSH1 0x14 SLOAD DUP4 PUSH2 0x1131 PUSH1 0x0 SLOAD PUSH1 0x0 NOT ADD SWAP1 JUMP JUMPDEST PUSH2 0x113B SWAP2 SWAP1 PUSH2 0x33E5 JUMP JUMPDEST GT ISZERO PUSH2 0x1159 JUMPI PUSH1 0x40 MLOAD PUSH3 0x461BCD PUSH1 0xE5 SHL DUP2 MSTORE PUSH1 0x4 ADD PUSH2 0xEEA SWAP1 PUSH2 0x33F8 JUMP JUMPDEST PUSH1 0x1B SLOAD CALLER PUSH1 0x0 SWAP1 DUP2 MSTORE PUSH1 0x1C PUSH1 0x20 MSTORE PUSH1 0x40 SWAP1 KECCAK256 SLOAD PUSH2 0x1177 SWAP1 DUP6 SWAP1 PUSH2 0x33E5 JUMP JUMPDEST GT ISZERO PUSH2 0x11BE JUMPI PUSH1 0x40 MLOAD PUSH3 0x461BCD PUSH1 0xE5 SHL DUP2 MSTORE PUSH1 0x20 PUSH1 0x4 DUP3 ADD MSTORE PUSH1 0x16 PUSH1 0x24 DUP3 ADD MSTORE PUSH22 0x22BC31B2B2B232B2102BA61020B63637B1B0BA34B7B7 PUSH1 0x51 SHL PUSH1 0x44 DUP3 ADD MSTORE PUSH1 0x64 ADD PUSH2 0xEEA JUMP JUMPDEST PUSH1 0x13 SLOAD PUSH2 0x11CB SWAP1 DUP5 PUSH2 0x3458 JUMP JUMPDEST CALLVALUE EQ PUSH2 0x11E9 JUMPI PUSH1 0x40 MLOAD PUSH3 0x461BCD PUSH1 0xE5 SHL DUP2 MSTORE PUSH1 0x4 ADD PUSH2 0xEEA SWAP1 PUSH2 0x346F JUMP JUMPDEST PUSH1 0x0 CALLER PUSH1 0x40 MLOAD PUSH1 0x20 ADD PUSH2 0x11FC SWAP2 SWAP1 PUSH2 0x343B JUMP JUMPDEST PUSH1 0x40 MLOAD PUSH1 0x20 DUP2 DUP4 SUB SUB DUP2 MSTORE SWAP1 PUSH1 0x40 MSTORE DUP1 MLOAD SWAP1 PUSH1 0x20 ADD KECCAK256 SWAP1 POP PUSH2 0x1222 DUP4 DUP4 PUSH1 0xC SLOAD DUP5 PUSH2 0x22D1 JUMP JUMPDEST PUSH2 0x126E JUMPI PUSH1 0x40 MLOAD PUSH3 0x461BCD PUSH1 0xE5 SHL DUP2 MSTORE PUSH1 0x20 PUSH1 0x4 DUP3 ADD MSTORE PUSH1 0x1B PUSH1 0x24 DUP3 ADD MSTORE PUSH32 0x496E76616C69642050726F6F6620666F722057686974656C6973740000000000 PUSH1 0x44 DUP3 ADD MSTORE PUSH1 0x64 ADD PUSH2 0xEEA JUMP JUMPDEST PUSH2 0x1278 CALLER DUP6 PUSH2 0x22EB JUMP JUMPDEST CALLER PUSH1 0x0 SWAP1 DUP2 MSTORE PUSH1 0x1C PUSH1 0x20 MSTORE PUSH1 0x40 DUP2 KECCAK256 DUP1 SLOAD DUP7 SWAP3 SWAP1 PUSH2 0x1297 SWAP1 DUP5 SWAP1 PUSH2 0x33E5 JUMP JUMPDEST SWAP1 SWAP2 SSTORE POP POP PUSH1 0x1 PUSH1 0xB SSTORE POP POP POP POP JUMP JUMPDEST DUP3 PUSH1 0x1 PUSH1 0x1 PUSH1 0xA0 SHL SUB DUP2 AND CALLER EQ PUSH2 0x12C1 JUMPI PUSH2 0x12C1 CALLER PUSH2 0x20C5 JUMP JUMPDEST PUSH2 0x12CC DUP5 DUP5 DUP5 PUSH2 0x2351 JUMP JUMPDEST POP POP POP POP JUMP JUMPDEST PUSH1 0x0 DUP3 DUP2 MSTORE PUSH1 0x9 PUSH1 0x20 SWAP1 DUP2 MSTORE PUSH1 0x40 DUP1 DUP4 KECCAK256 DUP2 MLOAD DUP1 DUP4 ADD SWAP1 SWAP3 MSTORE SLOAD PUSH1 0x1 PUSH1 0x1 PUSH1 0xA0 SHL SUB DUP2 AND DUP1 DUP4 MSTORE PUSH1 0x1 PUSH1 0xA0 SHL SWAP1 SWAP2 DIV PUSH1 0x1 PUSH1 0x1 PUSH1 0x60 SHL SUB AND SWAP3 DUP3 ADD SWAP3 SWAP1 SWAP3 MSTORE DUP3 SWAP2 PUSH2 0x1347 JUMPI POP PUSH1 0x40 DUP1 MLOAD DUP1 DUP3 ADD SWAP1 SWAP2 MSTORE PUSH1 0x8 SLOAD PUSH1 0x1 PUSH1 0x1 PUSH1 0xA0 SHL SUB DUP2 AND DUP3 MSTORE PUSH1 0x1 PUSH1 0xA0 SHL SWAP1 DIV PUSH1 0x1 PUSH1 0x1 PUSH1 0x60 SHL SUB AND PUSH1 0x20 DUP3 ADD MSTORE JUMPDEST PUSH1 0x20 DUP2 ADD MLOAD PUSH1 0x0 SWAP1 PUSH2 0x2710 SWAP1 PUSH2 0x1366 SWAP1 PUSH1 0x1 PUSH1 0x1 PUSH1 0x60 SHL SUB AND DUP8 PUSH2 0x3458 JUMP JUMPDEST PUSH2 0x1370 SWAP2 SWAP1 PUSH2 0x34BC JUMP JUMPDEST SWAP2 MLOAD SWAP4 POP SWAP1 SWAP2 POP POP JUMPDEST SWAP3 POP SWAP3 SWAP1 POP JUMP JUMPDEST PUSH2 0x1388 PUSH2 0x221E JUMP JUMPDEST DUP1 SELFBALANCE LT ISZERO PUSH2 0x13CF JUMPI PUSH1 0x40 MLOAD PUSH3 0x461BCD PUSH1 0xE5 SHL DUP2 MSTORE PUSH1 0x20 PUSH1 0x4 DUP3 ADD MSTORE PUSH1 0x14 PUSH1 0x24 DUP3 ADD MSTORE PUSH20 0x496E73756666696369656E742062616C616E6365 PUSH1 0x60 SHL PUSH1 0x44 DUP3 ADD MSTORE PUSH1 0x64 ADD PUSH2 0xEEA JUMP JUMPDEST PUSH1 0x11 SLOAD DUP2 SWAP1 PUSH2 0x13EC SWAP1 PUSH2 0x100 SWAP1 DIV PUSH1 0x1 PUSH1 0x1 PUSH1 0xA0 SHL SUB AND DUP3 PUSH2 0x24E2 JUMP JUMPDEST PUSH1 0x11 SLOAD PUSH1 0x40 DUP1 MLOAD PUSH2 0x100 SWAP1 SWAP3 DIV PUSH1 0x1 PUSH1 0x1 PUSH1 0xA0 SHL SUB AND DUP3 MSTORE PUSH1 0x20 DUP3 ADD DUP4 SWAP1 MSTORE PUSH32 0xDF20FD1E76BC69D672E4814FAFB2C449BBA3A5369D8359ADF9E05E6FDE87B056 SWAP2 ADD JUMPDEST PUSH1 0x40 MLOAD DUP1 SWAP2 SUB SWAP1 LOG1 POP POP JUMP JUMPDEST PUSH2 0x1443 PUSH2 0x221E JUMP JUMPDEST PUSH1 0x11 DUP1 SLOAD PUSH1 0x1 PUSH1 0x1 PUSH1 0xA0 SHL SUB SWAP1 SWAP3 AND PUSH2 0x100 MUL PUSH2 0x100 PUSH1 0x1 PUSH1 0xA8 SHL SUB NOT SWAP1 SWAP3 AND SWAP2 SWAP1 SWAP2 OR SWAP1 SSTORE JUMP JUMPDEST PUSH2 0x1473 PUSH2 0x221E JUMP JUMPDEST PUSH1 0x13 SSTORE JUMP JUMPDEST DUP3 PUSH1 0x1 PUSH1 0x1 PUSH1 0xA0 SHL SUB DUP2 AND CALLER EQ PUSH2 0x1492 JUMPI PUSH2 0x1492 CALLER PUSH2 0x20C5 JUMP JUMPDEST PUSH2 0x12CC DUP5 DUP5 DUP5 PUSH2 0x25FB JUMP JUMPDEST PUSH2 0x14A8 DUP2 PUSH1 0x1 PUSH2 0x2616 JUMP JUMPDEST POP JUMP JUMPDEST PUSH2 0x14B3 PUSH2 0x221E JUMP JUMPDEST PUSH1 0x11 DUP1 SLOAD PUSH1 0xFF NOT AND SWAP2 ISZERO ISZERO SWAP2 SWAP1 SWAP2 OR SWAP1 SSTORE JUMP JUMPDEST PUSH2 0x14CE PUSH2 0x221E JUMP JUMPDEST PUSH1 0x17 SSTORE JUMP JUMPDEST PUSH2 0x14DB PUSH2 0x221E JUMP JUMPDEST PUSH1 0x19 SSTORE JUMP JUMPDEST PUSH2 0x14E8 PUSH2 0x221E JUMP JUMPDEST PUSH1 0xE PUSH2 0xE83 DUP3 DUP3 PUSH2 0x330F JUMP JUMPDEST PUSH1 0x60 PUSH1 0x0 DUP1 PUSH1 0x0 PUSH2 0x1504 DUP6 PUSH2 0x16B0 JUMP JUMPDEST SWAP1 POP PUSH1 0x0 DUP2 PUSH8 0xFFFFFFFFFFFFFFFF DUP2 GT ISZERO PUSH2 0x1521 JUMPI PUSH2 0x1521 PUSH2 0x2E30 JUMP JUMPDEST PUSH1 0x40 MLOAD SWAP1 DUP1 DUP3 MSTORE DUP1 PUSH1 0x20 MUL PUSH1 0x20 ADD DUP3 ADD PUSH1 0x40 MSTORE DUP1 ISZERO PUSH2 0x154A JUMPI DUP2 PUSH1 0x20 ADD PUSH1 0x20 DUP3 MUL DUP1 CALLDATASIZE DUP4 CALLDATACOPY ADD SWAP1 POP JUMPDEST POP SWAP1 POP PUSH2 0x1577 PUSH1 0x40 DUP1 MLOAD PUSH1 0x80 DUP2 ADD DUP3 MSTORE PUSH1 0x0 DUP1 DUP3 MSTORE PUSH1 0x20 DUP3 ADD DUP2 SWAP1 MSTORE SWAP2 DUP2 ADD DUP3 SWAP1 MSTORE PUSH1 0x60 DUP2 ADD SWAP2 SWAP1 SWAP2 MSTORE SWAP1 JUMP JUMPDEST PUSH1 0x1 JUMPDEST DUP4 DUP7 EQ PUSH2 0x15F1 JUMPI PUSH2 0x158A DUP2 PUSH2 0x274E JUMP JUMPDEST SWAP2 POP DUP2 PUSH1 0x40 ADD MLOAD PUSH2 0x15E9 JUMPI DUP2 MLOAD PUSH1 0x1 PUSH1 0x1 PUSH1 0xA0 SHL SUB AND ISZERO PUSH2 0x15AA JUMPI DUP2 MLOAD SWAP5 POP JUMPDEST DUP8 PUSH1 0x1 PUSH1 0x1 PUSH1 0xA0 SHL SUB AND DUP6 PUSH1 0x1 PUSH1 0x1 PUSH1 0xA0 SHL SUB AND SUB PUSH2 0x15E9 JUMPI DUP1 DUP4 DUP8 DUP1 PUSH1 0x1 ADD SWAP9 POP DUP2 MLOAD DUP2 LT PUSH2 0x15DC JUMPI PUSH2 0x15DC PUSH2 0x34D0 JUMP JUMPDEST PUSH1 0x20 MUL PUSH1 0x20 ADD ADD DUP2 DUP2 MSTORE POP POP JUMPDEST PUSH1 0x1 ADD PUSH2 0x157A JUMP JUMPDEST POP SWAP1 SWAP7 SWAP6 POP POP POP POP POP POP JUMP JUMPDEST PUSH1 0x0 PUSH2 0xD7A DUP3 PUSH2 0x27CD JUMP JUMPDEST PUSH1 0xE DUP1 SLOAD PUSH2 0x1615 SWAP1 PUSH2 0x328F JUMP JUMPDEST DUP1 PUSH1 0x1F ADD PUSH1 0x20 DUP1 SWAP2 DIV MUL PUSH1 0x20 ADD PUSH1 0x40 MLOAD SWAP1 DUP2 ADD PUSH1 0x40 MSTORE DUP1 SWAP3 SWAP2 SWAP1 DUP2 DUP2 MSTORE PUSH1 0x20 ADD DUP3 DUP1 SLOAD PUSH2 0x1641 SWAP1 PUSH2 0x328F JUMP JUMPDEST DUP1 ISZERO PUSH2 0x168E JUMPI DUP1 PUSH1 0x1F LT PUSH2 0x1663 JUMPI PUSH2 0x100 DUP1 DUP4 SLOAD DIV MUL DUP4 MSTORE SWAP2 PUSH1 0x20 ADD SWAP2 PUSH2 0x168E JUMP JUMPDEST DUP3 ADD SWAP2 SWAP1 PUSH1 0x0 MSTORE PUSH1 0x20 PUSH1 0x0 KECCAK256 SWAP1 JUMPDEST DUP2 SLOAD DUP2 MSTORE SWAP1 PUSH1 0x1 ADD SWAP1 PUSH1 0x20 ADD DUP1 DUP4 GT PUSH2 0x1671 JUMPI DUP3 SWAP1 SUB PUSH1 0x1F AND DUP3 ADD SWAP2 JUMPDEST POP POP POP POP POP DUP2 JUMP JUMPDEST PUSH2 0x169E PUSH2 0x221E JUMP JUMPDEST PUSH1 0xD SSTORE JUMP JUMPDEST PUSH1 0x10 DUP1 SLOAD PUSH2 0x1615 SWAP1 PUSH2 0x328F JUMP JUMPDEST PUSH1 0x0 PUSH1 0x1 PUSH1 0x1 PUSH1 0xA0 SHL SUB DUP3 AND PUSH2 0x16D9 JUMPI PUSH1 0x40 MLOAD PUSH4 0x23D3AD81 PUSH1 0xE2 SHL DUP2 MSTORE PUSH1 0x4 ADD PUSH1 0x40 MLOAD DUP1 SWAP2 SUB SWAP1 REVERT JUMPDEST POP PUSH1 0x1 PUSH1 0x1 PUSH1 0xA0 SHL SUB AND PUSH1 0x0 SWAP1 DUP2 MSTORE PUSH1 0x5 PUSH1 0x20 MSTORE PUSH1 0x40 SWAP1 KECCAK256 SLOAD PUSH8 0xFFFFFFFFFFFFFFFF AND SWAP1 JUMP JUMPDEST PUSH2 0x1707 PUSH2 0x221E JUMP JUMPDEST PUSH2 0x1711 PUSH1 0x0 PUSH2 0x2843 JUMP JUMPDEST JUMP JUMPDEST PUSH2 0x171B PUSH2 0x221E JUMP JUMPDEST PUSH1 0x14 SLOAD DUP2 PUSH2 0x172C PUSH1 0x0 SLOAD PUSH1 0x0 NOT ADD SWAP1 JUMP JUMPDEST PUSH2 0x1736 SWAP2 SWAP1 PUSH2 0x33E5 JUMP JUMPDEST GT ISZERO PUSH2 0x1754 JUMPI PUSH1 0x40 MLOAD PUSH3 0x461BCD PUSH1 0xE5 SHL DUP2 MSTORE PUSH1 0x4 ADD PUSH2 0xEEA SWAP1 PUSH2 0x33F8 JUMP JUMPDEST PUSH2 0xE83 DUP3 DUP3 PUSH2 0x22EB JUMP JUMPDEST PUSH2 0x1766 PUSH2 0x2278 JUMP JUMPDEST PUSH1 0x16 SLOAD PUSH1 0x1 EQ PUSH2 0x17AA JUMPI PUSH1 0x40 MLOAD PUSH3 0x461BCD PUSH1 0xE5 SHL DUP2 MSTORE PUSH1 0x20 PUSH1 0x4 DUP3 ADD MSTORE PUSH1 0xF PUSH1 0x24 DUP3 ADD MSTORE PUSH15 0x10D85B9B9BDD08109D5C9B8816595D PUSH1 0x8A SHL PUSH1 0x44 DUP3 ADD MSTORE PUSH1 0x64 ADD PUSH2 0xEEA JUMP JUMPDEST PUSH1 0x17 SLOAD DUP2 MLOAD LT ISZERO PUSH2 0x17EE JUMPI PUSH1 0x40 MLOAD PUSH3 0x461BCD PUSH1 0xE5 SHL DUP2 MSTORE PUSH1 0x20 PUSH1 0x4 DUP3 ADD MSTORE PUSH1 0xE PUSH1 0x24 DUP3 ADD MSTORE PUSH14 0x13995959081B5BDC994819DBDB19 PUSH1 0x92 SHL PUSH1 0x44 DUP3 ADD MSTORE PUSH1 0x64 ADD PUSH2 0xEEA JUMP JUMPDEST PUSH1 0x17 SLOAD DUP2 MLOAD PUSH2 0x17FD SWAP2 SWAP1 PUSH2 0x34E6 JUMP JUMPDEST ISZERO PUSH2 0x184A JUMPI PUSH1 0x40 MLOAD PUSH3 0x461BCD PUSH1 0xE5 SHL DUP2 MSTORE PUSH1 0x20 PUSH1 0x4 DUP3 ADD MSTORE PUSH1 0x1E PUSH1 0x24 DUP3 ADD MSTORE PUSH32 0x57726F6E6720616D6F756E74206F6620746F6B656E7320746F206275726E0000 PUSH1 0x44 DUP3 ADD MSTORE PUSH1 0x64 ADD PUSH2 0xEEA JUMP JUMPDEST PUSH1 0x0 PUSH1 0x17 SLOAD DUP3 MLOAD PUSH2 0x185B SWAP2 SWAP1 PUSH2 0x34BC JUMP JUMPDEST SWAP1 POP PUSH1 0x14 SLOAD DUP2 PUSH2 0x186E PUSH1 0x0 SLOAD PUSH1 0x0 NOT ADD SWAP1 JUMP JUMPDEST PUSH2 0x1878 SWAP2 SWAP1 PUSH2 0x33E5 JUMP JUMPDEST GT ISZERO PUSH2 0x1896 JUMPI PUSH1 0x40 MLOAD PUSH3 0x461BCD PUSH1 0xE5 SHL DUP2 MSTORE PUSH1 0x4 ADD PUSH2 0xEEA SWAP1 PUSH2 0x34FA JUMP JUMPDEST PUSH1 0x0 JUMPDEST DUP3 MLOAD DUP2 LT ISZERO PUSH2 0x1A10 JUMPI PUSH1 0x1F SLOAD DUP4 MLOAD PUSH1 0x0 SWAP2 PUSH1 0x1 PUSH1 0x1 PUSH1 0xA0 SHL SUB AND SWAP1 PUSH4 0x6352211E SWAP1 DUP7 SWAP1 DUP6 SWAP1 DUP2 LT PUSH2 0x18CC JUMPI PUSH2 0x18CC PUSH2 0x34D0 JUMP JUMPDEST PUSH1 0x20 MUL PUSH1 0x20 ADD ADD MLOAD PUSH1 0x40 MLOAD DUP3 PUSH4 0xFFFFFFFF AND PUSH1 0xE0 SHL DUP2 MSTORE PUSH1 0x4 ADD PUSH2 0x18F2 SWAP2 DUP2 MSTORE PUSH1 0x20 ADD SWAP1 JUMP JUMPDEST PUSH1 0x20 PUSH1 0x40 MLOAD DUP1 DUP4 SUB DUP2 PUSH1 0x0 DUP8 GAS CALL ISZERO DUP1 ISZERO PUSH2 0x1911 JUMPI RETURNDATASIZE PUSH1 0x0 DUP1 RETURNDATACOPY RETURNDATASIZE PUSH1 0x0 REVERT JUMPDEST POP POP POP POP PUSH1 0x40 MLOAD RETURNDATASIZE PUSH1 0x1F NOT PUSH1 0x1F DUP3 ADD AND DUP3 ADD DUP1 PUSH1 0x40 MSTORE POP DUP2 ADD SWAP1 PUSH2 0x1935 SWAP2 SWAP1 PUSH2 0x353D JUMP JUMPDEST SWAP1 POP CALLER PUSH1 0x1 PUSH1 0x1 PUSH1 0xA0 SHL SUB DUP3 AND EQ PUSH2 0x197B JUMPI PUSH1 0x40 MLOAD PUSH3 0x461BCD PUSH1 0xE5 SHL DUP2 MSTORE PUSH1 0x20 PUSH1 0x4 DUP3 ADD MSTORE PUSH1 0x9 PUSH1 0x24 DUP3 ADD MSTORE PUSH9 0x2737BA1027BBB732B9 PUSH1 0xB9 SHL PUSH1 0x44 DUP3 ADD MSTORE PUSH1 0x64 ADD PUSH2 0xEEA JUMP JUMPDEST PUSH1 0x1F SLOAD DUP5 MLOAD PUSH1 0x1 PUSH1 0x1 PUSH1 0xA0 SHL SUB SWAP1 SWAP2 AND SWAP1 PUSH4 0x42966C68 SWAP1 DUP7 SWAP1 DUP6 SWAP1 DUP2 LT PUSH2 0x19A4 JUMPI PUSH2 0x19A4 PUSH2 0x34D0 JUMP JUMPDEST PUSH1 0x20 MUL PUSH1 0x20 ADD ADD MLOAD PUSH1 0x40 MLOAD DUP3 PUSH4 0xFFFFFFFF AND PUSH1 0xE0 SHL DUP2 MSTORE PUSH1 0x4 ADD PUSH2 0x19CA SWAP2 DUP2 MSTORE PUSH1 0x20 ADD SWAP1 JUMP JUMPDEST PUSH1 0x0 PUSH1 0x40 MLOAD DUP1 DUP4 SUB DUP2 PUSH1 0x0 DUP8 DUP1 EXTCODESIZE ISZERO DUP1 ISZERO PUSH2 0x19E4 JUMPI PUSH1 0x0 DUP1 REVERT JUMPDEST POP GAS CALL ISZERO DUP1 ISZERO PUSH2 0x19F8 JUMPI RETURNDATASIZE PUSH1 0x0 DUP1 RETURNDATACOPY RETURNDATASIZE PUSH1 0x0 REVERT JUMPDEST POP POP POP POP POP DUP1 DUP1 PUSH2 0x1A08 SWAP1 PUSH2 0x355A JUMP JUMPDEST SWAP2 POP POP PUSH2 0x1899 JUMP JUMPDEST POP PUSH2 0x1A1B CALLER DUP3 PUSH2 0x22EB JUMP JUMPDEST POP PUSH2 0x14A8 PUSH1 0x1 PUSH1 0xB SSTORE JUMP JUMPDEST PUSH2 0x1A2E PUSH2 0x221E JUMP JUMPDEST PUSH1 0x18 SSTORE JUMP JUMPDEST PUSH2 0x1A3B PUSH2 0x221E JUMP JUMPDEST PUSH1 0x15 DUP2 SWAP1 SSTORE PUSH1 0x1 DUP2 LT PUSH2 0x1A4E JUMPI PUSH1 0x1 PUSH1 0x16 SSTORE JUMPDEST DUP1 PUSH1 0x0 SUB PUSH2 0x14A8 JUMPI PUSH1 0x0 PUSH1 0x16 SSTORE POP JUMP JUMPDEST PUSH1 0x60 PUSH1 0x3 DUP1 SLOAD PUSH2 0xD8F SWAP1 PUSH2 0x328F JUMP JUMPDEST PUSH2 0x1A75 PUSH2 0x2278 JUMP JUMPDEST PUSH1 0x15 SLOAD PUSH1 0x1 EQ PUSH2 0x1AD2 JUMPI PUSH1 0x40 MLOAD PUSH3 0x461BCD PUSH1 0xE5 SHL DUP2 MSTORE PUSH1 0x20 PUSH1 0x4 DUP3 ADD MSTORE PUSH1 0x22 PUSH1 0x24 DUP3 ADD MSTORE PUSH32 0x676F4C697374204D696E74205068617365206973206E6F7420617661696C6162 PUSH1 0x44 DUP3 ADD MSTORE PUSH2 0x6C65 PUSH1 0xF0 SHL PUSH1 0x64 DUP3 ADD MSTORE PUSH1 0x84 ADD PUSH2 0xEEA JUMP JUMPDEST PUSH1 0x14 SLOAD DUP4 PUSH2 0x1AE3 PUSH1 0x0 SLOAD PUSH1 0x0 NOT ADD SWAP1 JUMP JUMPDEST PUSH2 0x1AED SWAP2 SWAP1 PUSH2 0x33E5 JUMP JUMPDEST GT ISZERO PUSH2 0x1B0B JUMPI PUSH1 0x40 MLOAD PUSH3 0x461BCD PUSH1 0xE5 SHL DUP2 MSTORE PUSH1 0x4 ADD PUSH2 0xEEA SWAP1 PUSH2 0x34FA JUMP JUMPDEST CALLER PUSH1 0x0 SWAP1 DUP2 MSTORE PUSH1 0x1E PUSH1 0x20 MSTORE PUSH1 0x40 SWAP1 KECCAK256 SLOAD PUSH1 0x1A SLOAD PUSH2 0x1B28 DUP6 DUP4 PUSH2 0x33E5 JUMP JUMPDEST GT ISZERO PUSH2 0x1B76 JUMPI PUSH1 0x40 MLOAD PUSH3 0x461BCD PUSH1 0xE5 SHL DUP2 MSTORE PUSH1 0x20 PUSH1 0x4 DUP3 ADD MSTORE PUSH1 0x18 PUSH1 0x24 DUP3 ADD MSTORE PUSH32 0x4578636565646564204C49535420416C6C6F636174696F6E0000000000000000 PUSH1 0x44 DUP3 ADD MSTORE PUSH1 0x64 ADD PUSH2 0xEEA JUMP JUMPDEST PUSH1 0x0 CALLER PUSH1 0x40 MLOAD PUSH1 0x20 ADD PUSH2 0x1B89 SWAP2 SWAP1 PUSH2 0x343B JUMP JUMPDEST PUSH1 0x40 MLOAD PUSH1 0x20 DUP2 DUP4 SUB SUB DUP2 MSTORE SWAP1 PUSH1 0x40 MSTORE DUP1 MLOAD SWAP1 PUSH1 0x20 ADD KECCAK256 SWAP1 POP PUSH2 0x1BAF DUP5 DUP5 PUSH1 0xD SLOAD DUP5 PUSH2 0x22D1 JUMP JUMPDEST PUSH2 0x1BFB JUMPI PUSH1 0x40 MLOAD PUSH3 0x461BCD PUSH1 0xE5 SHL DUP2 MSTORE PUSH1 0x20 PUSH1 0x4 DUP3 ADD MSTORE PUSH1 0x18 PUSH1 0x24 DUP3 ADD MSTORE PUSH32 0x496E76616C69642050726F6F6620666F7220476F4C6973740000000000000000 PUSH1 0x44 DUP3 ADD MSTORE PUSH1 0x64 ADD PUSH2 0xEEA JUMP JUMPDEST PUSH1 0x19 SLOAD DUP3 LT PUSH2 0x1C34 JUMPI PUSH1 0x13 SLOAD PUSH2 0x1C11 SWAP1 DUP7 PUSH2 0x3458 JUMP JUMPDEST CALLVALUE EQ PUSH2 0x1C2F JUMPI PUSH1 0x40 MLOAD PUSH3 0x461BCD PUSH1 0xE5 SHL DUP2 MSTORE PUSH1 0x4 ADD PUSH2 0xEEA SWAP1 PUSH2 0x346F JUMP JUMPDEST PUSH2 0x1C89 JUMP JUMPDEST PUSH1 0x0 PUSH2 0x1C40 DUP7 DUP5 PUSH2 0x33E5 JUMP JUMPDEST SWAP1 POP PUSH1 0x19 SLOAD DUP2 GT ISZERO PUSH2 0x1C87 JUMPI PUSH1 0x19 SLOAD PUSH2 0x1C59 SWAP1 DUP3 PUSH2 0x3573 JUMP JUMPDEST SWAP1 POP PUSH1 0x13 SLOAD DUP2 PUSH2 0x1C69 SWAP2 SWAP1 PUSH2 0x3458 JUMP JUMPDEST CALLVALUE EQ PUSH2 0x1C87 JUMPI PUSH1 0x40 MLOAD PUSH3 0x461BCD PUSH1 0xE5 SHL DUP2 MSTORE PUSH1 0x4 ADD PUSH2 0xEEA SWAP1 PUSH2 0x346F JUMP JUMPDEST POP JUMPDEST PUSH2 0x1C93 CALLER DUP7 PUSH2 0x22EB JUMP JUMPDEST CALLER PUSH1 0x0 SWAP1 DUP2 MSTORE PUSH1 0x1E PUSH1 0x20 MSTORE PUSH1 0x40 DUP2 KECCAK256 DUP1 SLOAD DUP8 SWAP3 SWAP1 PUSH2 0x109C SWAP1 DUP5 SWAP1 PUSH2 0x33E5 JUMP JUMPDEST PUSH1 0xF DUP1 SLOAD PUSH2 0x1615 SWAP1 PUSH2 0x328F JUMP JUMPDEST DUP2 PUSH2 0x1CC9 DUP2 PUSH2 0x20C5 JUMP JUMPDEST PUSH2 0xE6A DUP4 DUP4 PUSH2 0x2895 JUMP JUMPDEST PUSH1 0x0 DUP1 DUP5 PUSH1 0x40 MLOAD PUSH1 0x20 ADD PUSH2 0x1CE7 SWAP2 SWAP1 PUSH2 0x343B JUMP JUMPDEST PUSH1 0x40 MLOAD PUSH1 0x20 DUP2 DUP4 SUB SUB DUP2 MSTORE SWAP1 PUSH1 0x40 MSTORE DUP1 MLOAD SWAP1 PUSH1 0x20 ADD KECCAK256 SWAP1 POP PUSH2 0x1D0D DUP5 DUP5 PUSH1 0xC SLOAD DUP5 PUSH2 0x22D1 JUMP JUMPDEST SWAP6 SWAP5 POP POP POP POP POP JUMP JUMPDEST PUSH2 0x1D1E PUSH2 0x221E JUMP JUMPDEST PUSH1 0xC SSTORE JUMP JUMPDEST DUP4 PUSH1 0x1 PUSH1 0x1 PUSH1 0xA0 SHL SUB DUP2 AND CALLER EQ PUSH2 0x1D3D JUMPI PUSH2 0x1D3D CALLER PUSH2 0x20C5 JUMP JUMPDEST PUSH2 0x1D49 DUP6 DUP6 DUP6 DUP6 PUSH2 0x2901 JUMP JUMPDEST POP POP POP POP POP JUMP JUMPDEST PUSH2 0x1D58 PUSH2 0x221E JUMP JUMPDEST PUSH2 0xE83 DUP3 DUP3 PUSH2 0x2945 JUMP JUMPDEST PUSH1 0x60 PUSH2 0x1D6D DUP3 PUSH2 0x2090 JUMP JUMPDEST PUSH2 0x1DB9 JUMPI PUSH1 0x40 MLOAD PUSH3 0x461BCD PUSH1 0xE5 SHL DUP2 MSTORE PUSH1 0x20 PUSH1 0x4 DUP3 ADD MSTORE PUSH1 0x1B PUSH1 0x24 DUP3 ADD MSTORE PUSH32 0x5552495175657279466F724E6F6E6578697374656E74546F6B656E0000000000 PUSH1 0x44 DUP3 ADD MSTORE PUSH1 0x64 ADD PUSH2 0xEEA JUMP JUMPDEST PUSH1 0x11 SLOAD PUSH1 0xFF AND PUSH2 0x1E55 JUMPI PUSH1 0x10 DUP1 SLOAD PUSH2 0x1DD0 SWAP1 PUSH2 0x328F JUMP JUMPDEST DUP1 PUSH1 0x1F ADD PUSH1 0x20 DUP1 SWAP2 DIV MUL PUSH1 0x20 ADD PUSH1 0x40 MLOAD SWAP1 DUP2 ADD PUSH1 0x40 MSTORE DUP1 SWAP3 SWAP2 SWAP1 DUP2 DUP2 MSTORE PUSH1 0x20 ADD DUP3 DUP1 SLOAD PUSH2 0x1DFC SWAP1 PUSH2 0x328F JUMP JUMPDEST DUP1 ISZERO PUSH2 0x1E49 JUMPI DUP1 PUSH1 0x1F LT PUSH2 0x1E1E JUMPI PUSH2 0x100 DUP1 DUP4 SLOAD DIV MUL DUP4 MSTORE SWAP2 PUSH1 0x20 ADD SWAP2 PUSH2 0x1E49 JUMP JUMPDEST DUP3 ADD SWAP2 SWAP1 PUSH1 0x0 MSTORE PUSH1 0x20 PUSH1 0x0 KECCAK256 SWAP1 JUMPDEST DUP2 SLOAD DUP2 MSTORE SWAP1 PUSH1 0x1 ADD SWAP1 PUSH1 0x20 ADD DUP1 DUP4 GT PUSH2 0x1E2C JUMPI DUP3 SWAP1 SUB PUSH1 0x1F AND DUP3 ADD SWAP2 JUMPDEST POP POP POP POP POP SWAP1 POP SWAP2 SWAP1 POP JUMP JUMPDEST PUSH1 0xE PUSH2 0x1E60 DUP4 PUSH2 0x2A42 JUMP JUMPDEST PUSH1 0xF PUSH1 0x40 MLOAD PUSH1 0x20 ADD PUSH2 0x1E74 SWAP4 SWAP3 SWAP2 SWAP1 PUSH2 0x35F9 JUMP JUMPDEST PUSH1 0x40 MLOAD PUSH1 0x20 DUP2 DUP4 SUB SUB DUP2 MSTORE SWAP1 PUSH1 0x40 MSTORE SWAP1 POP SWAP2 SWAP1 POP JUMP JUMPDEST PUSH2 0x1E92 PUSH2 0x221E JUMP JUMPDEST DUP1 SELFBALANCE LT ISZERO PUSH2 0x1ED9 JUMPI PUSH1 0x40 MLOAD PUSH3 0x461BCD PUSH1 0xE5 SHL DUP2 MSTORE PUSH1 0x20 PUSH1 0x4 DUP3 ADD MSTORE PUSH1 0x14 PUSH1 0x24 DUP3 ADD MSTORE PUSH20 0x496E73756666696369656E742062616C616E6365 PUSH1 0x60 SHL PUSH1 0x44 DUP3 ADD MSTORE PUSH1 0x64 ADD PUSH2 0xEEA JUMP JUMPDEST DUP1 PUSH2 0xE6A DUP4 DUP3 PUSH2 0x24E2 JUMP JUMPDEST PUSH1 0x60 PUSH1 0x40 MLOAD DUP1 PUSH1 0x60 ADD PUSH1 0x40 MSTORE DUP1 PUSH1 0x35 DUP2 MSTORE PUSH1 0x20 ADD PUSH2 0x36A4 PUSH1 0x35 SWAP2 CODECOPY SWAP1 POP SWAP1 JUMP JUMPDEST PUSH2 0x1F0C PUSH2 0x221E JUMP JUMPDEST PUSH1 0x1A SSTORE JUMP JUMPDEST PUSH1 0x1 PUSH1 0x1 PUSH1 0xA0 SHL SUB SWAP2 DUP3 AND PUSH1 0x0 SWAP1 DUP2 MSTORE PUSH1 0x7 PUSH1 0x20 SWAP1 DUP2 MSTORE PUSH1 0x40 DUP1 DUP4 KECCAK256 SWAP4 SWAP1 SWAP5 AND DUP3 MSTORE SWAP2 SWAP1 SWAP2 MSTORE KECCAK256 SLOAD PUSH1 0xFF AND SWAP1 JUMP JUMPDEST PUSH2 0x1F47 PUSH2 0x221E JUMP JUMPDEST PUSH1 0x1F DUP1 SLOAD PUSH1 0x1 PUSH1 0x1 PUSH1 0xA0 SHL SUB NOT AND PUSH1 0x1 PUSH1 0x1 PUSH1 0xA0 SHL SUB SWAP3 SWAP1 SWAP3 AND SWAP2 SWAP1 SWAP2 OR SWAP1 SSTORE JUMP JUMPDEST PUSH2 0x1F71 PUSH2 0x221E JUMP JUMPDEST PUSH1 0x1 PUSH1 0x1 PUSH1 0xA0 SHL SUB DUP2 AND PUSH2 0x1FD6 JUMPI PUSH1 0x40 MLOAD PUSH3 0x461BCD PUSH1 0xE5 SHL DUP2 MSTORE PUSH1 0x20 PUSH1 0x4 DUP3 ADD MSTORE PUSH1 0x26 PUSH1 0x24 DUP3 ADD MSTORE PUSH32 0x4F776E61626C653A206E6577206F776E657220697320746865207A65726F2061 PUSH1 0x44 DUP3 ADD MSTORE PUSH6 0x646472657373 PUSH1 0xD0 SHL PUSH1 0x64 DUP3 ADD MSTORE PUSH1 0x84 ADD PUSH2 0xEEA JUMP JUMPDEST PUSH2 0x14A8 DUP2 PUSH2 0x2843 JUMP JUMPDEST PUSH2 0x1FE7 PUSH2 0x221E JUMP JUMPDEST PUSH1 0x16 SSTORE JUMP JUMPDEST PUSH2 0x1FF4 PUSH2 0x221E JUMP JUMPDEST PUSH1 0x12 SSTORE JUMP JUMPDEST PUSH2 0x2001 PUSH2 0x221E JUMP JUMPDEST PUSH1 0x10 PUSH2 0xE83 DUP3 DUP3 PUSH2 0x330F JUMP JUMPDEST PUSH1 0x0 PUSH4 0x1FFC9A7 PUSH1 0xE0 SHL PUSH1 0x1 PUSH1 0x1 PUSH1 0xE0 SHL SUB NOT DUP4 AND EQ DUP1 PUSH2 0x203E JUMPI POP PUSH4 0x80AC58CD PUSH1 0xE0 SHL PUSH1 0x1 PUSH1 0x1 PUSH1 0xE0 SHL SUB NOT DUP4 AND EQ JUMPDEST DUP1 PUSH2 0xD7A JUMPI POP POP PUSH1 0x1 PUSH1 0x1 PUSH1 0xE0 SHL SUB NOT AND PUSH4 0x5B5E139F PUSH1 0xE0 SHL EQ SWAP1 JUMP JUMPDEST PUSH1 0x0 PUSH1 0x1 PUSH1 0x1 PUSH1 0xE0 SHL SUB NOT DUP3 AND PUSH4 0x152A902D PUSH1 0xE1 SHL EQ DUP1 PUSH2 0xD7A JUMPI POP PUSH4 0x1FFC9A7 PUSH1 0xE0 SHL PUSH1 0x1 PUSH1 0x1 PUSH1 0xE0 SHL SUB NOT DUP4 AND EQ PUSH2 0xD7A JUMP JUMPDEST PUSH1 0x0 DUP2 PUSH1 0x1 GT ISZERO DUP1 ISZERO PUSH2 0x20A4 JUMPI POP PUSH1 0x0 SLOAD DUP3 LT JUMPDEST DUP1 ISZERO PUSH2 0xD7A JUMPI POP POP PUSH1 0x0 SWAP1 DUP2 MSTORE PUSH1 0x4 PUSH1 0x20 MSTORE PUSH1 0x40 SWAP1 KECCAK256 SLOAD PUSH1 0x1 PUSH1 0xE0 SHL AND ISZERO SWAP1 JUMP JUMPDEST PUSH14 0xAAEB6D7670E522A718067333CD4E EXTCODESIZE ISZERO PUSH2 0x14A8 JUMPI PUSH1 0x40 MLOAD PUSH4 0x3185C44D PUSH1 0xE2 SHL DUP2 MSTORE ADDRESS PUSH1 0x4 DUP3 ADD MSTORE PUSH1 0x1 PUSH1 0x1 PUSH1 0xA0 SHL SUB DUP3 AND PUSH1 0x24 DUP3 ADD MSTORE PUSH14 0xAAEB6D7670E522A718067333CD4E SWAP1 PUSH4 0xC6171134 SWAP1 PUSH1 0x44 ADD PUSH1 0x20 PUSH1 0x40 MLOAD DUP1 DUP4 SUB DUP2 DUP7 GAS STATICCALL ISZERO DUP1 ISZERO PUSH2 0x2132 JUMPI RETURNDATASIZE PUSH1 0x0 DUP1 RETURNDATACOPY RETURNDATASIZE PUSH1 0x0 REVERT JUMPDEST POP POP POP POP PUSH1 0x40 MLOAD RETURNDATASIZE PUSH1 0x1F NOT PUSH1 0x1F DUP3 ADD AND DUP3 ADD DUP1 PUSH1 0x40 MSTORE POP DUP2 ADD SWAP1 PUSH2 0x2156 SWAP2 SWAP1 PUSH2 0x362C JUMP JUMPDEST PUSH2 0x14A8 JUMPI PUSH1 0x40 MLOAD PUSH4 0x3B79C773 PUSH1 0xE2 SHL DUP2 MSTORE PUSH1 0x1 PUSH1 0x1 PUSH1 0xA0 SHL SUB DUP3 AND PUSH1 0x4 DUP3 ADD MSTORE PUSH1 0x24 ADD PUSH2 0xEEA JUMP JUMPDEST PUSH1 0x0 PUSH2 0x2189 DUP3 PUSH2 0x15FD JUMP JUMPDEST SWAP1 POP CALLER PUSH1 0x1 PUSH1 0x1 PUSH1 0xA0 SHL SUB DUP3 AND EQ PUSH2 0x21C2 JUMPI PUSH2 0x21A5 DUP2 CALLER PUSH2 0x1F11 JUMP JUMPDEST PUSH2 0x21C2 JUMPI PUSH1 0x40 MLOAD PUSH4 0x67D9DCA1 PUSH1 0xE1 SHL DUP2 MSTORE PUSH1 0x4 ADD PUSH1 0x40 MLOAD DUP1 SWAP2 SUB SWAP1 REVERT JUMPDEST PUSH1 0x0 DUP3 DUP2 MSTORE PUSH1 0x6 PUSH1 0x20 MSTORE PUSH1 0x40 DUP1 DUP3 KECCAK256 DUP1 SLOAD PUSH1 0x1 PUSH1 0x1 PUSH1 0xA0 SHL SUB NOT AND PUSH1 0x1 PUSH1 0x1 PUSH1 0xA0 SHL SUB DUP8 DUP2 AND SWAP2 DUP3 OR SWAP1 SWAP3 SSTORE SWAP2 MLOAD DUP6 SWAP4 SWAP2 DUP6 AND SWAP2 PUSH32 0x8C5BE1E5EBEC7D5BD14F71427D1E84F3DD0314C0F7B2291E5B200AC8C7C3B925 SWAP2 LOG4 POP POP POP JUMP JUMPDEST PUSH1 0xA SLOAD PUSH1 0x1 PUSH1 0x1 PUSH1 0xA0 SHL SUB AND CALLER EQ PUSH2 0x1711 JUMPI PUSH1 0x40 MLOAD PUSH3 0x461BCD PUSH1 0xE5 SHL DUP2 MSTORE PUSH1 0x20 PUSH1 0x4 DUP3 ADD DUP2 SWAP1 MSTORE PUSH1 0x24 DUP3 ADD MSTORE PUSH32 0x4F776E61626C653A2063616C6C6572206973206E6F7420746865206F776E6572 PUSH1 0x44 DUP3 ADD MSTORE PUSH1 0x64 ADD PUSH2 0xEEA JUMP JUMPDEST PUSH1 0x2 PUSH1 0xB SLOAD SUB PUSH2 0x22CA JUMPI PUSH1 0x40 MLOAD PUSH3 0x461BCD PUSH1 0xE5 SHL DUP2 MSTORE PUSH1 0x20 PUSH1 0x4 DUP3 ADD MSTORE PUSH1 0x1F PUSH1 0x24 DUP3 ADD MSTORE PUSH32 0x5265656E7472616E637947756172643A207265656E7472616E742063616C6C00 PUSH1 0x44 DUP3 ADD MSTORE PUSH1 0x64 ADD PUSH2 0xEEA JUMP JUMPDEST PUSH1 0x2 PUSH1 0xB SSTORE JUMP JUMPDEST PUSH1 0x0 DUP3 PUSH2 0x22DF DUP7 DUP7 DUP6 PUSH2 0x2A86 JUMP JUMPDEST EQ SWAP1 POP JUMPDEST SWAP5 SWAP4 POP POP POP POP JUMP JUMPDEST PUSH2 0x22F5 DUP3 DUP3 PUSH2 0x2AD2 JUMP JUMPDEST PUSH32 0x3A5398BDA6F1F57D6C96834FA9BF02B5517BDC847D14312015A917BA421C31C9 PUSH1 0x1 PUSH2 0x232B PUSH1 0x1 SLOAD PUSH1 0x0 SLOAD PUSH1 0x0 NOT SWAP2 SWAP1 SUB ADD SWAP1 JUMP JUMPDEST PUSH2 0x2335 SWAP2 SWAP1 PUSH2 0x3573 JUMP JUMPDEST PUSH1 0x40 DUP1 MLOAD SWAP2 DUP3 MSTORE PUSH1 0x1 PUSH1 0x1 PUSH1 0xA0 SHL SUB DUP6 AND PUSH1 0x20 DUP4 ADD MSTORE ADD PUSH2 0x142F JUMP JUMPDEST PUSH1 0x0 PUSH2 0x235C DUP3 PUSH2 0x27CD JUMP JUMPDEST SWAP1 POP DUP4 PUSH1 0x1 PUSH1 0x1 PUSH1 0xA0 SHL SUB AND DUP2 PUSH1 0x1 PUSH1 0x1 PUSH1 0xA0 SHL SUB AND EQ PUSH2 0x238F JUMPI PUSH1 0x40 MLOAD PUSH3 0xA11481 PUSH1 0xE8 SHL DUP2 MSTORE PUSH1 0x4 ADD PUSH1 0x40 MLOAD DUP1 SWAP2 SUB SWAP1 REVERT JUMPDEST PUSH1 0x0 DUP3 DUP2 MSTORE PUSH1 0x6 PUSH1 0x20 MSTORE PUSH1 0x40 SWAP1 KECCAK256 DUP1 SLOAD PUSH2 0x23BB DUP2 DUP8 CALLER JUMPDEST PUSH1 0x1 PUSH1 0x1 PUSH1 0xA0 SHL SUB SWAP1 DUP2 AND SWAP2 AND DUP2 EQ SWAP2 EQ OR SWAP1 JUMP JUMPDEST PUSH2 0x23E6 JUMPI PUSH2 0x23C9 DUP7 CALLER PUSH2 0x1F11 JUMP JUMPDEST PUSH2 0x23E6 JUMPI PUSH1 0x40 MLOAD PUSH4 0x2CE44B5F PUSH1 0xE1 SHL DUP2 MSTORE PUSH1 0x4 ADD PUSH1 0x40 MLOAD DUP1 SWAP2 SUB SWAP1 REVERT JUMPDEST PUSH1 0x1 PUSH1 0x1 PUSH1 0xA0 SHL SUB DUP6 AND PUSH2 0x240D JUMPI PUSH1 0x40 MLOAD PUSH4 0x3A954ECD PUSH1 0xE2 SHL DUP2 MSTORE PUSH1 0x4 ADD PUSH1 0x40 MLOAD DUP1 SWAP2 SUB SWAP1 REVERT JUMPDEST DUP1 ISZERO PUSH2 0x2418 JUMPI PUSH1 0x0 DUP3 SSTORE JUMPDEST PUSH1 0x1 PUSH1 0x1 PUSH1 0xA0 SHL SUB DUP7 DUP2 AND PUSH1 0x0 SWAP1 DUP2 MSTORE PUSH1 0x5 PUSH1 0x20 MSTORE PUSH1 0x40 DUP1 DUP3 KECCAK256 DUP1 SLOAD PUSH1 0x0 NOT ADD SWAP1 SSTORE SWAP2 DUP8 AND DUP1 DUP3 MSTORE SWAP2 SWAP1 KECCAK256 DUP1 SLOAD PUSH1 0x1 ADD SWAP1 SSTORE TIMESTAMP PUSH1 0xA0 SHL OR PUSH1 0x1 PUSH1 0xE1 SHL OR PUSH1 0x0 DUP6 DUP2 MSTORE PUSH1 0x4 PUSH1 0x20 MSTORE PUSH1 0x40 DUP2 KECCAK256 SWAP2 SWAP1 SWAP2 SSTORE PUSH1 0x1 PUSH1 0xE1 SHL DUP5 AND SWAP1 SUB PUSH2 0x24AA JUMPI PUSH1 0x1 DUP5 ADD PUSH1 0x0 DUP2 DUP2 MSTORE PUSH1 0x4 PUSH1 0x20 MSTORE PUSH1 0x40 DUP2 KECCAK256 SLOAD SWAP1 SUB PUSH2 0x24A8 JUMPI PUSH1 0x0 SLOAD DUP2 EQ PUSH2 0x24A8 JUMPI PUSH1 0x0 DUP2 DUP2 MSTORE PUSH1 0x4 PUSH1 0x20 MSTORE PUSH1 0x40 SWAP1 KECCAK256 DUP5 SWAP1 SSTORE JUMPDEST POP JUMPDEST DUP4 DUP6 PUSH1 0x1 PUSH1 0x1 PUSH1 0xA0 SHL SUB AND DUP8 PUSH1 0x1 PUSH1 0x1 PUSH1 0xA0 SHL SUB AND PUSH1 0x0 DUP1 MLOAD PUSH1 0x20 PUSH2 0x36D9 DUP4 CODECOPY DUP2 MLOAD SWAP2 MSTORE PUSH1 0x40 MLOAD PUSH1 0x40 MLOAD DUP1 SWAP2 SUB SWAP1 LOG4 JUMPDEST POP POP POP POP POP POP JUMP JUMPDEST DUP1 SELFBALANCE LT ISZERO PUSH2 0x2532 JUMPI PUSH1 0x40 MLOAD PUSH3 0x461BCD PUSH1 0xE5 SHL DUP2 MSTORE PUSH1 0x20 PUSH1 0x4 DUP3 ADD MSTORE PUSH1 0x1D PUSH1 0x24 DUP3 ADD MSTORE PUSH32 0x416464726573733A20696E73756666696369656E742062616C616E6365000000 PUSH1 0x44 DUP3 ADD MSTORE PUSH1 0x64 ADD PUSH2 0xEEA JUMP JUMPDEST PUSH1 0x0 DUP3 PUSH1 0x1 PUSH1 0x1 PUSH1 0xA0 SHL SUB AND DUP3 PUSH1 0x40 MLOAD PUSH1 0x0 PUSH1 0x40 MLOAD DUP1 DUP4 SUB DUP2 DUP6 DUP8 GAS CALL SWAP3 POP POP POP RETURNDATASIZE DUP1 PUSH1 0x0 DUP2 EQ PUSH2 0x257F JUMPI PUSH1 0x40 MLOAD SWAP2 POP PUSH1 0x1F NOT PUSH1 0x3F RETURNDATASIZE ADD AND DUP3 ADD PUSH1 0x40 MSTORE RETURNDATASIZE DUP3 MSTORE RETURNDATASIZE PUSH1 0x0 PUSH1 0x20 DUP5 ADD RETURNDATACOPY PUSH2 0x2584 JUMP JUMPDEST PUSH1 0x60 SWAP2 POP JUMPDEST POP POP SWAP1 POP DUP1 PUSH2 0xE6A JUMPI PUSH1 0x40 MLOAD PUSH3 0x461BCD PUSH1 0xE5 SHL DUP2 MSTORE PUSH1 0x20 PUSH1 0x4 DUP3 ADD MSTORE PUSH1 0x3A PUSH1 0x24 DUP3 ADD MSTORE PUSH32 0x416464726573733A20756E61626C6520746F2073656E642076616C75652C2072 PUSH1 0x44 DUP3 ADD MSTORE PUSH32 0x6563697069656E74206D61792068617665207265766572746564000000000000 PUSH1 0x64 DUP3 ADD MSTORE PUSH1 0x84 ADD PUSH2 0xEEA JUMP JUMPDEST PUSH2 0xE6A DUP4 DUP4 DUP4 PUSH1 0x40 MLOAD DUP1 PUSH1 0x20 ADD PUSH1 0x40 MSTORE DUP1 PUSH1 0x0 DUP2 MSTORE POP PUSH2 0x1D23 JUMP JUMPDEST PUSH1 0x0 PUSH2 0x2621 DUP4 PUSH2 0x27CD JUMP JUMPDEST SWAP1 POP DUP1 PUSH1 0x0 DUP1 PUSH2 0x263F DUP7 PUSH1 0x0 SWAP1 DUP2 MSTORE PUSH1 0x6 PUSH1 0x20 MSTORE PUSH1 0x40 SWAP1 KECCAK256 DUP1 SLOAD SWAP1 SWAP2 JUMP JUMPDEST SWAP2 POP SWAP2 POP DUP5 ISZERO PUSH2 0x267F JUMPI PUSH2 0x2654 DUP2 DUP5 CALLER PUSH2 0x23A6 JUMP JUMPDEST PUSH2 0x267F JUMPI PUSH2 0x2662 DUP4 CALLER PUSH2 0x1F11 JUMP JUMPDEST PUSH2 0x267F JUMPI PUSH1 0x40 MLOAD PUSH4 0x2CE44B5F PUSH1 0xE1 SHL DUP2 MSTORE PUSH1 0x4 ADD PUSH1 0x40 MLOAD DUP1 SWAP2 SUB SWAP1 REVERT JUMPDEST DUP1 ISZERO PUSH2 0x268A JUMPI PUSH1 0x0 DUP3 SSTORE JUMPDEST PUSH1 0x1 PUSH1 0x1 PUSH1 0xA0 SHL SUB DUP4 AND PUSH1 0x0 DUP2 DUP2 MSTORE PUSH1 0x5 PUSH1 0x20 MSTORE PUSH1 0x40 SWAP1 KECCAK256 DUP1 SLOAD PUSH16 0xFFFFFFFFFFFFFFFFFFFFFFFFFFFFFFFF ADD SWAP1 SSTORE TIMESTAMP PUSH1 0xA0 SHL OR PUSH1 0x3 PUSH1 0xE0 SHL OR PUSH1 0x0 DUP8 DUP2 MSTORE PUSH1 0x4 PUSH1 0x20 MSTORE PUSH1 0x40 DUP2 KECCAK256 SWAP2 SWAP1 SWAP2 SSTORE PUSH1 0x1 PUSH1 0xE1 SHL DUP6 AND SWAP1 SUB PUSH2 0x2718 JUMPI PUSH1 0x1 DUP7 ADD PUSH1 0x0 DUP2 DUP2 MSTORE PUSH1 0x4 PUSH1 0x20 MSTORE PUSH1 0x40 DUP2 KECCAK256 SLOAD SWAP1 SUB PUSH2 0x2716 JUMPI PUSH1 0x0 SLOAD DUP2 EQ PUSH2 0x2716 JUMPI PUSH1 0x0 DUP2 DUP2 MSTORE PUSH1 0x4 PUSH1 0x20 MSTORE PUSH1 0x40 SWAP1 KECCAK256 DUP6 SWAP1 SSTORE JUMPDEST POP JUMPDEST PUSH1 0x40 MLOAD DUP7 SWAP1 PUSH1 0x0 SWAP1 PUSH1 0x1 PUSH1 0x1 PUSH1 0xA0 SHL SUB DUP7 AND SWAP1 PUSH1 0x0 DUP1 MLOAD PUSH1 0x20 PUSH2 0x36D9 DUP4 CODECOPY DUP2 MLOAD SWAP2 MSTORE SWAP1 DUP4 SWAP1 LOG4 POP POP PUSH1 0x1 DUP1 SLOAD DUP2 ADD SWAP1 SSTORE POP POP POP POP JUMP JUMPDEST PUSH1 0x40 DUP1 MLOAD PUSH1 0x80 DUP2 ADD DUP3 MSTORE PUSH1 0x0 DUP1 DUP3 MSTORE PUSH1 0x20 DUP3 ADD DUP2 SWAP1 MSTORE SWAP2 DUP2 ADD DUP3 SWAP1 MSTORE PUSH1 0x60 DUP2 ADD SWAP2 SWAP1 SWAP2 MSTORE PUSH1 0x0 DUP3 DUP2 MSTORE PUSH1 0x4 PUSH1 0x20 MSTORE PUSH1 0x40 SWAP1 KECCAK256 SLOAD PUSH2 0xD7A SWAP1 PUSH1 0x40 DUP1 MLOAD PUSH1 0x80 DUP2 ADD DUP3 MSTORE PUSH1 0x1 PUSH1 0x1 PUSH1 0xA0 SHL SUB DUP4 AND DUP2 MSTORE PUSH1 0xA0 DUP4 SWAP1 SHR PUSH8 0xFFFFFFFFFFFFFFFF AND PUSH1 0x20 DUP3 ADD MSTORE PUSH1 0x1 PUSH1 0xE0 SHL DUP4 AND ISZERO ISZERO SWAP2 DUP2 ADD SWAP2 SWAP1 SWAP2 MSTORE PUSH1 0xE8 SWAP2 SWAP1 SWAP2 SHR PUSH1 0x60 DUP3 ADD MSTORE SWAP1 JUMP JUMPDEST PUSH1 0x0 DUP2 DUP1 PUSH1 0x1 GT PUSH2 0x282A JUMPI PUSH1 0x0 SLOAD DUP2 LT ISZERO PUSH2 0x282A JUMPI PUSH1 0x0 DUP2 DUP2 MSTORE PUSH1 0x4 PUSH1 0x20 MSTORE PUSH1 0x40 DUP2 KECCAK256 SLOAD SWAP1 PUSH1 0x1 PUSH1 0xE0 SHL DUP3 AND SWAP1 SUB PUSH2 0x2828 JUMPI JUMPDEST DUP1 PUSH1 0x0 SUB PUSH2 0x2821 JUMPI POP PUSH1 0x0 NOT ADD PUSH1 0x0 DUP2 DUP2 MSTORE PUSH1 0x4 PUSH1 0x20 MSTORE PUSH1 0x40 SWAP1 KECCAK256 SLOAD PUSH2 0x2800 JUMP JUMPDEST SWAP4 SWAP3 POP POP POP JUMP JUMPDEST POP JUMPDEST PUSH1 0x40 MLOAD PUSH4 0x6F96CDA1 PUSH1 0xE1 SHL DUP2 MSTORE PUSH1 0x4 ADD PUSH1 0x40 MLOAD DUP1 SWAP2 SUB SWAP1 REVERT JUMPDEST PUSH1 0xA DUP1 SLOAD PUSH1 0x1 PUSH1 0x1 PUSH1 0xA0 SHL SUB DUP4 DUP2 AND PUSH1 0x1 PUSH1 0x1 PUSH1 0xA0 SHL SUB NOT DUP4 AND DUP2 OR SWAP1 SWAP4 SSTORE PUSH1 0x40 MLOAD SWAP2 AND SWAP2 SWAP1 DUP3 SWAP1 PUSH32 0x8BE0079C531659141344CD1FD0A4F28419497F9722A3DAAFE3B4186F6B6457E0 SWAP1 PUSH1 0x0 SWAP1 LOG3 POP POP JUMP JUMPDEST CALLER PUSH1 0x0 DUP2 DUP2 MSTORE PUSH1 0x7 PUSH1 0x20 SWAP1 DUP2 MSTORE PUSH1 0x40 DUP1 DUP4 KECCAK256 PUSH1 0x1 PUSH1 0x1 PUSH1 0xA0 SHL SUB DUP8 AND DUP1 DUP6 MSTORE SWAP1 DUP4 MSTORE SWAP3 DUP2 SWAP1 KECCAK256 DUP1 SLOAD PUSH1 0xFF NOT AND DUP7 ISZERO ISZERO SWAP1 DUP2 OR SWAP1 SWAP2 SSTORE SWAP1 MLOAD SWAP1 DUP2 MSTORE SWAP2 SWAP3 SWAP2 PUSH32 0x17307EAB39AB6107E8899845AD3D59BD9653F200F220920489CA2B5937696C31 SWAP2 ADD PUSH1 0x40 MLOAD DUP1 SWAP2 SUB SWAP1 LOG3 POP POP JUMP JUMPDEST PUSH2 0x290C DUP5 DUP5 DUP5 PUSH2 0x12A7 JUMP JUMPDEST PUSH1 0x1 PUSH1 0x1 PUSH1 0xA0 SHL SUB DUP4 AND EXTCODESIZE ISZERO PUSH2 0x12CC JUMPI PUSH2 0x2928 DUP5 DUP5 DUP5 DUP5 PUSH2 0x2AEC JUMP JUMPDEST PUSH2 0x12CC JUMPI PUSH1 0x40 MLOAD PUSH4 0x68D2BF6B PUSH1 0xE1 SHL DUP2 MSTORE PUSH1 0x4 ADD PUSH1 0x40 MLOAD DUP1 SWAP2 SUB SWAP1 REVERT JUMPDEST PUSH2 0x2710 PUSH1 0x1 PUSH1 0x1 PUSH1 0x60 SHL SUB DUP3 AND GT ISZERO PUSH2 0x29B3 JUMPI PUSH1 0x40 MLOAD PUSH3 0x461BCD PUSH1 0xE5 SHL DUP2 MSTORE PUSH1 0x20 PUSH1 0x4 DUP3 ADD MSTORE PUSH1 0x2A PUSH1 0x24 DUP3 ADD MSTORE PUSH32 0x455243323938313A20726F79616C7479206665652077696C6C20657863656564 PUSH1 0x44 DUP3 ADD MSTORE PUSH10 0x2073616C655072696365 PUSH1 0xB0 SHL PUSH1 0x64 DUP3 ADD MSTORE PUSH1 0x84 ADD PUSH2 0xEEA JUMP JUMPDEST PUSH1 0x1 PUSH1 0x1 PUSH1 0xA0 SHL SUB DUP3 AND PUSH2 0x2A09 JUMPI PUSH1 0x40 MLOAD PUSH3 0x461BCD PUSH1 0xE5 SHL DUP2 MSTORE PUSH1 0x20 PUSH1 0x4 DUP3 ADD MSTORE PUSH1 0x19 PUSH1 0x24 DUP3 ADD MSTORE PUSH32 0x455243323938313A20696E76616C696420726563656976657200000000000000 PUSH1 0x44 DUP3 ADD MSTORE PUSH1 0x64 ADD PUSH2 0xEEA JUMP JUMPDEST PUSH1 0x40 DUP1 MLOAD DUP1 DUP3 ADD SWAP1 SWAP2 MSTORE PUSH1 0x1 PUSH1 0x1 PUSH1 0xA0 SHL SUB SWAP1 SWAP3 AND DUP1 DUP4 MSTORE PUSH1 0x1 PUSH1 0x1 PUSH1 0x60 SHL SUB SWAP1 SWAP2 AND PUSH1 0x20 SWAP1 SWAP3 ADD DUP3 SWAP1 MSTORE PUSH1 0x1 PUSH1 0xA0 SHL SWAP1 SWAP2 MUL OR PUSH1 0x8 SSTORE JUMP JUMPDEST PUSH1 0x60 PUSH1 0xA0 PUSH1 0x40 MLOAD ADD DUP1 PUSH1 0x40 MSTORE PUSH1 0x20 DUP2 SUB SWAP2 POP POP PUSH1 0x0 DUP2 MSTORE DUP1 DUP3 JUMPDEST PUSH1 0x1 DUP4 SUB SWAP3 POP PUSH1 0xA DUP2 MOD PUSH1 0x30 ADD DUP4 MSTORE8 PUSH1 0xA SWAP1 DIV DUP1 PUSH2 0x2A5C JUMPI POP DUP2 SWAP1 SUB PUSH1 0x1F NOT SWAP1 SWAP2 ADD SWAP1 DUP2 MSTORE SWAP2 SWAP1 POP JUMP JUMPDEST PUSH1 0x0 DUP2 DUP2 JUMPDEST DUP5 DUP2 LT ISZERO PUSH2 0x2AC9 JUMPI PUSH2 0x2AB5 DUP3 DUP8 DUP8 DUP5 DUP2 DUP2 LT PUSH2 0x2AA9 JUMPI PUSH2 0x2AA9 PUSH2 0x34D0 JUMP JUMPDEST SWAP1 POP PUSH1 0x20 MUL ADD CALLDATALOAD PUSH2 0x2BD4 JUMP JUMPDEST SWAP2 POP DUP1 PUSH2 0x2AC1 DUP2 PUSH2 0x355A JUMP JUMPDEST SWAP2 POP POP PUSH2 0x2A8B JUMP JUMPDEST POP SWAP5 SWAP4 POP POP POP POP JUMP JUMPDEST PUSH2 0xE83 DUP3 DUP3 PUSH1 0x40 MLOAD DUP1 PUSH1 0x20 ADD PUSH1 0x40 MSTORE DUP1 PUSH1 0x0 DUP2 MSTORE POP PUSH2 0x2C00 JUMP JUMPDEST PUSH1 0x40 MLOAD PUSH4 0xA85BD01 PUSH1 0xE1 SHL DUP2 MSTORE PUSH1 0x0 SWAP1 PUSH1 0x1 PUSH1 0x1 PUSH1 0xA0 SHL SUB DUP6 AND SWAP1 PUSH4 0x150B7A02 SWAP1 PUSH2 0x2B21 SWAP1 CALLER SWAP1 DUP10 SWAP1 DUP9 SWAP1 DUP9 SWAP1 PUSH1 0x4 ADD PUSH2 0x3649 JUMP JUMPDEST PUSH1 0x20 PUSH1 0x40 MLOAD DUP1 DUP4 SUB DUP2 PUSH1 0x0 DUP8 GAS CALL SWAP3 POP POP POP DUP1 ISZERO PUSH2 0x2B5C JUMPI POP PUSH1 0x40 DUP1 MLOAD PUSH1 0x1F RETURNDATASIZE SWAP1 DUP2 ADD PUSH1 0x1F NOT AND DUP3 ADD SWAP1 SWAP3 MSTORE PUSH2 0x2B59 SWAP2 DUP2 ADD SWAP1 PUSH2 0x3686 JUMP JUMPDEST PUSH1 0x1 JUMPDEST PUSH2 0x2BBA JUMPI RETURNDATASIZE DUP1 DUP1 ISZERO PUSH2 0x2B8A JUMPI PUSH1 0x40 MLOAD SWAP2 POP PUSH1 0x1F NOT PUSH1 0x3F RETURNDATASIZE ADD AND DUP3 ADD PUSH1 0x40 MSTORE RETURNDATASIZE DUP3 MSTORE RETURNDATASIZE PUSH1 0x0 PUSH1 0x20 DUP5 ADD RETURNDATACOPY PUSH2 0x2B8F JUMP JUMPDEST PUSH1 0x60 SWAP2 POP JUMPDEST POP DUP1 MLOAD PUSH1 0x0 SUB PUSH2 0x2BB2 JUMPI PUSH1 0x40 MLOAD PUSH4 0x68D2BF6B PUSH1 0xE1 SHL DUP2 MSTORE PUSH1 0x4 ADD PUSH1 0x40 MLOAD DUP1 SWAP2 SUB SWAP1 REVERT JUMPDEST DUP1 MLOAD DUP2 PUSH1 0x20 ADD REVERT JUMPDEST PUSH1 0x1 PUSH1 0x1 PUSH1 0xE0 SHL SUB NOT AND PUSH4 0xA85BD01 PUSH1 0xE1 SHL EQ SWAP1 POP PUSH2 0x22E3 JUMP JUMPDEST PUSH1 0x0 DUP2 DUP4 LT PUSH2 0x2BF0 JUMPI PUSH1 0x0 DUP3 DUP2 MSTORE PUSH1 0x20 DUP5 SWAP1 MSTORE PUSH1 0x40 SWAP1 KECCAK256 PUSH2 0x2821 JUMP JUMPDEST POP PUSH1 0x0 SWAP2 DUP3 MSTORE PUSH1 0x20 MSTORE PUSH1 0x40 SWAP1 KECCAK256 SWAP1 JUMP JUMPDEST PUSH2 0x2C0A DUP4 DUP4 PUSH2 0x2C66 JUMP JUMPDEST PUSH1 0x1 PUSH1 0x1 PUSH1 0xA0 SHL SUB DUP4 AND EXTCODESIZE ISZERO PUSH2 0xE6A JUMPI PUSH1 0x0 SLOAD DUP3 DUP2 SUB JUMPDEST PUSH2 0x2C34 PUSH1 0x0 DUP7 DUP4 DUP1 PUSH1 0x1 ADD SWAP5 POP DUP7 PUSH2 0x2AEC JUMP JUMPDEST PUSH2 0x2C51 JUMPI PUSH1 0x40 MLOAD PUSH4 0x68D2BF6B PUSH1 0xE1 SHL DUP2 MSTORE PUSH1 0x4 ADD PUSH1 0x40 MLOAD DUP1 SWAP2 SUB SWAP1 REVERT JUMPDEST DUP2 DUP2 LT PUSH2 0x2C21 JUMPI DUP2 PUSH1 0x0 SLOAD EQ PUSH2 0x1D49 JUMPI PUSH1 0x0 DUP1 REVERT JUMPDEST PUSH1 0x0 DUP1 SLOAD SWAP1 DUP3 SWAP1 SUB PUSH2 0x2C8B JUMPI PUSH1 0x40 MLOAD PUSH4 0xB562E8DD PUSH1 0xE0 SHL DUP2 MSTORE PUSH1 0x4 ADD PUSH1 0x40 MLOAD DUP1 SWAP2 SUB SWAP1 REVERT JUMPDEST PUSH1 0x1 PUSH1 0x1 PUSH1 0xA0 SHL SUB DUP4 AND PUSH1 0x0 DUP2 DUP2 MSTORE PUSH1 0x5 PUSH1 0x20 SWAP1 DUP2 MSTORE PUSH1 0x40 DUP1 DUP4 KECCAK256 DUP1 SLOAD PUSH9 0x10000000000000001 DUP9 MUL ADD SWAP1 SSTORE DUP5 DUP4 MSTORE PUSH1 0x4 SWAP1 SWAP2 MSTORE DUP2 KECCAK256 PUSH1 0x1 DUP6 EQ PUSH1 0xE1 SHL TIMESTAMP PUSH1 0xA0 SHL OR DUP4 OR SWAP1 SSTORE DUP3 DUP5 ADD SWAP1 DUP4 SWAP1 DUP4 SWAP1 PUSH1 0x0 DUP1 MLOAD PUSH1 0x20 PUSH2 0x36D9 DUP4 CODECOPY DUP2 MLOAD SWAP2 MSTORE DUP2 DUP1 LOG4 PUSH1 0x1 DUP4 ADD JUMPDEST DUP2 DUP2 EQ PUSH2 0x2D16 JUMPI DUP1 DUP4 PUSH1 0x0 PUSH1 0x0 DUP1 MLOAD PUSH1 0x20 PUSH2 0x36D9 DUP4 CODECOPY DUP2 MLOAD SWAP2 MSTORE PUSH1 0x0 DUP1 LOG4 PUSH1 0x1 ADD PUSH2 0x2CF0 JUMP JUMPDEST POP DUP2 PUSH1 0x0 SUB PUSH2 0x2D37 JUMPI PUSH1 0x40 MLOAD PUSH3 0x2E0763 PUSH1 0xE8 SHL DUP2 MSTORE PUSH1 0x4 ADD PUSH1 0x40 MLOAD DUP1 SWAP2 SUB SWAP1 REVERT JUMPDEST PUSH1 0x0 SSTORE POP POP POP POP JUMP JUMPDEST PUSH1 0x1 PUSH1 0x1 PUSH1 0xE0 SHL SUB NOT DUP2 AND DUP2 EQ PUSH2 0x14A8 JUMPI PUSH1 0x0 DUP1 REVERT JUMPDEST PUSH1 0x0 PUSH1 0x20 DUP3 DUP5 SUB SLT ISZERO PUSH2 0x2D68 JUMPI PUSH1 0x0 DUP1 REVERT JUMPDEST DUP2 CALLDATALOAD PUSH2 0x2821 DUP2 PUSH2 0x2D40 JUMP JUMPDEST PUSH1 0x0 JUMPDEST DUP4 DUP2 LT ISZERO PUSH2 0x2D8E JUMPI DUP2 DUP2 ADD MLOAD DUP4 DUP3 ADD MSTORE PUSH1 0x20 ADD PUSH2 0x2D76 JUMP JUMPDEST POP POP PUSH1 0x0 SWAP2 ADD MSTORE JUMP JUMPDEST PUSH1 0x0 DUP2 MLOAD DUP1 DUP5 MSTORE PUSH2 0x2DAF DUP2 PUSH1 0x20 DUP7 ADD PUSH1 0x20 DUP7 ADD PUSH2 0x2D73 JUMP JUMPDEST PUSH1 0x1F ADD PUSH1 0x1F NOT AND SWAP3 SWAP1 SWAP3 ADD PUSH1 0x20 ADD SWAP3 SWAP2 POP POP JUMP JUMPDEST PUSH1 0x20 DUP2 MSTORE PUSH1 0x0 PUSH2 0x2821 PUSH1 0x20 DUP4 ADD DUP5 PUSH2 0x2D97 JUMP JUMPDEST PUSH1 0x0 PUSH1 0x20 DUP3 DUP5 SUB SLT ISZERO PUSH2 0x2DE8 JUMPI PUSH1 0x0 DUP1 REVERT JUMPDEST POP CALLDATALOAD SWAP2 SWAP1 POP JUMP JUMPDEST PUSH1 0x1 PUSH1 0x1 PUSH1 0xA0 SHL SUB DUP2 AND DUP2 EQ PUSH2 0x14A8 JUMPI PUSH1 0x0 DUP1 REVERT JUMPDEST PUSH1 0x0 DUP1 PUSH1 0x40 DUP4 DUP6 SUB SLT ISZERO PUSH2 0x2E17 JUMPI PUSH1 0x0 DUP1 REVERT JUMPDEST DUP3 CALLDATALOAD PUSH2 0x2E22 DUP2 PUSH2 0x2DEF JUMP JUMPDEST SWAP5 PUSH1 0x20 SWAP4 SWAP1 SWAP4 ADD CALLDATALOAD SWAP4 POP POP POP JUMP JUMPDEST PUSH4 0x4E487B71 PUSH1 0xE0 SHL PUSH1 0x0 MSTORE PUSH1 0x41 PUSH1 0x4 MSTORE PUSH1 0x24 PUSH1 0x0 REVERT JUMPDEST PUSH1 0x40 MLOAD PUSH1 0x1F DUP3 ADD PUSH1 0x1F NOT AND DUP2 ADD PUSH8 0xFFFFFFFFFFFFFFFF DUP2 GT DUP3 DUP3 LT OR ISZERO PUSH2 0x2E6F JUMPI PUSH2 0x2E6F PUSH2 0x2E30 JUMP JUMPDEST PUSH1 0x40 MSTORE SWAP2 SWAP1 POP JUMP JUMPDEST PUSH1 0x0 PUSH8 0xFFFFFFFFFFFFFFFF DUP4 GT ISZERO PUSH2 0x2E91 JUMPI PUSH2 0x2E91 PUSH2 0x2E30 JUMP JUMPDEST PUSH2 0x2EA4 PUSH1 0x1F DUP5 ADD PUSH1 0x1F NOT AND PUSH1 0x20 ADD PUSH2 0x2E46 JUMP JUMPDEST SWAP1 POP DUP3 DUP2 MSTORE DUP4 DUP4 DUP4 ADD GT ISZERO PUSH2 0x2EB8 JUMPI PUSH1 0x0 DUP1 REVERT JUMPDEST DUP3 DUP3 PUSH1 0x20 DUP4 ADD CALLDATACOPY PUSH1 0x0 PUSH1 0x20 DUP5 DUP4 ADD ADD MSTORE SWAP4 SWAP3 POP POP POP JUMP JUMPDEST PUSH1 0x0 PUSH1 0x20 DUP3 DUP5 SUB SLT ISZERO PUSH2 0x2EE1 JUMPI PUSH1 0x0 DUP1 REVERT JUMPDEST DUP2 CALLDATALOAD PUSH8 0xFFFFFFFFFFFFFFFF DUP2 GT ISZERO PUSH2 0x2EF8 JUMPI PUSH1 0x0 DUP1 REVERT JUMPDEST DUP3 ADD PUSH1 0x1F DUP2 ADD DUP5 SGT PUSH2 0x2F09 JUMPI PUSH1 0x0 DUP1 REVERT JUMPDEST PUSH2 0x22E3 DUP5 DUP3 CALLDATALOAD PUSH1 0x20 DUP5 ADD PUSH2 0x2E77 JUMP JUMPDEST PUSH1 0x0 PUSH1 0x20 DUP3 DUP5 SUB SLT ISZERO PUSH2 0x2F2A JUMPI PUSH1 0x0 DUP1 REVERT JUMPDEST DUP2 CALLDATALOAD PUSH2 0x2821 DUP2 PUSH2 0x2DEF JUMP JUMPDEST PUSH1 0x0 DUP1 DUP4 PUSH1 0x1F DUP5 ADD SLT PUSH2 0x2F47 JUMPI PUSH1 0x0 DUP1 REVERT JUMPDEST POP DUP2 CALLDATALOAD PUSH8 0xFFFFFFFFFFFFFFFF DUP2 GT ISZERO PUSH2 0x2F5F JUMPI PUSH1 0x0 DUP1 REVERT JUMPDEST PUSH1 0x20 DUP4 ADD SWAP2 POP DUP4 PUSH1 0x20 DUP3 PUSH1 0x5 SHL DUP6 ADD ADD GT ISZERO PUSH2 0x1379 JUMPI PUSH1 0x0 DUP1 REVERT JUMPDEST PUSH1 0x0 DUP1 PUSH1 0x0 PUSH1 0x40 DUP5 DUP7 SUB SLT ISZERO PUSH2 0x2F8F JUMPI PUSH1 0x0 DUP1 REVERT JUMPDEST DUP4 CALLDATALOAD SWAP3 POP PUSH1 0x20 DUP5 ADD CALLDATALOAD PUSH8 0xFFFFFFFFFFFFFFFF DUP2 GT ISZERO PUSH2 0x2FAD JUMPI PUSH1 0x0 DUP1 REVERT JUMPDEST PUSH2 0x2FB9 DUP7 DUP3 DUP8 ADD PUSH2 0x2F35 JUMP JUMPDEST SWAP5 SWAP8 SWAP1 SWAP7 POP SWAP4 SWAP5 POP POP POP POP JUMP JUMPDEST PUSH1 0x0 DUP1 PUSH1 0x0 PUSH1 0x60 DUP5 DUP7 SUB SLT ISZERO PUSH2 0x2FDB JUMPI PUSH1 0x0 DUP1 REVERT JUMPDEST DUP4 CALLDATALOAD PUSH2 0x2FE6 DUP2 PUSH2 0x2DEF JUMP JUMPDEST SWAP3 POP PUSH1 0x20 DUP5 ADD CALLDATALOAD PUSH2 0x2FF6 DUP2 PUSH2 0x2DEF JUMP JUMPDEST SWAP3 SWAP6 SWAP3 SWAP5 POP POP POP PUSH1 0x40 SWAP2 SWAP1 SWAP2 ADD CALLDATALOAD SWAP1 JUMP JUMPDEST PUSH1 0x0 DUP1 PUSH1 0x40 DUP4 DUP6 SUB SLT ISZERO PUSH2 0x301A JUMPI PUSH1 0x0 DUP1 REVERT JUMPDEST POP POP DUP1 CALLDATALOAD SWAP3 PUSH1 0x20 SWAP1 SWAP2 ADD CALLDATALOAD SWAP2 POP JUMP JUMPDEST DUP1 ISZERO ISZERO DUP2 EQ PUSH2 0x14A8 JUMPI PUSH1 0x0 DUP1 REVERT JUMPDEST PUSH1 0x0 PUSH1 0x20 DUP3 DUP5 SUB SLT ISZERO PUSH2 0x3049 JUMPI PUSH1 0x0 DUP1 REVERT JUMPDEST DUP2 CALLDATALOAD PUSH2 0x2821 DUP2 PUSH2 0x3029 JUMP JUMPDEST PUSH1 0x20 DUP1 DUP3 MSTORE DUP3 MLOAD DUP3 DUP3 ADD DUP2 SWAP1 MSTORE PUSH1 0x0 SWAP2 SWAP1 DUP5 DUP3 ADD SWAP1 PUSH1 0x40 DUP6 ADD SWAP1 DUP5 JUMPDEST DUP2 DUP2 LT ISZERO PUSH2 0x15F1 JUMPI DUP4 MLOAD DUP4 MSTORE SWAP3 DUP5 ADD SWAP3 SWAP2 DUP5 ADD SWAP2 PUSH1 0x1 ADD PUSH2 0x3070 JUMP JUMPDEST PUSH1 0x0 PUSH1 0x20 DUP1 DUP4 DUP6 SUB SLT ISZERO PUSH2 0x309F JUMPI PUSH1 0x0 DUP1 REVERT JUMPDEST DUP3 CALLDATALOAD PUSH8 0xFFFFFFFFFFFFFFFF DUP1 DUP3 GT ISZERO PUSH2 0x30B7 JUMPI PUSH1 0x0 DUP1 REVERT JUMPDEST DUP2 DUP6 ADD SWAP2 POP DUP6 PUSH1 0x1F DUP4 ADD SLT PUSH2 0x30CB JUMPI PUSH1 0x0 DUP1 REVERT JUMPDEST DUP2 CALLDATALOAD DUP2 DUP2 GT ISZERO PUSH2 0x30DD JUMPI PUSH2 0x30DD PUSH2 0x2E30 JUMP JUMPDEST DUP1 PUSH1 0x5 SHL SWAP2 POP PUSH2 0x30EE DUP5 DUP4 ADD PUSH2 0x2E46 JUMP JUMPDEST DUP2 DUP2 MSTORE SWAP2 DUP4 ADD DUP5 ADD SWAP2 DUP5 DUP2 ADD SWAP1 DUP9 DUP5 GT ISZERO PUSH2 0x3108 JUMPI PUSH1 0x0 DUP1 REVERT JUMPDEST SWAP4 DUP6 ADD SWAP4 JUMPDEST DUP4 DUP6 LT ISZERO PUSH2 0x3126 JUMPI DUP5 CALLDATALOAD DUP3 MSTORE SWAP4 DUP6 ADD SWAP4 SWAP1 DUP6 ADD SWAP1 PUSH2 0x310D JUMP JUMPDEST SWAP9 SWAP8 POP POP POP POP POP POP POP POP JUMP JUMPDEST PUSH1 0x0 DUP1 PUSH1 0x40 DUP4 DUP6 SUB SLT ISZERO PUSH2 0x3145 JUMPI PUSH1 0x0 DUP1 REVERT JUMPDEST DUP3 CALLDATALOAD PUSH2 0x3150 DUP2 PUSH2 0x2DEF JUMP JUMPDEST SWAP2 POP PUSH1 0x20 DUP4 ADD CALLDATALOAD PUSH2 0x3160 DUP2 PUSH2 0x3029 JUMP JUMPDEST DUP1 SWAP2 POP POP SWAP3 POP SWAP3 SWAP1 POP JUMP JUMPDEST PUSH1 0x0 DUP1 PUSH1 0x0 PUSH1 0x40 DUP5 DUP7 SUB SLT ISZERO PUSH2 0x3180 JUMPI PUSH1 0x0 DUP1 REVERT JUMPDEST DUP4 CALLDATALOAD PUSH2 0x318B DUP2 PUSH2 0x2DEF JUMP JUMPDEST SWAP3 POP PUSH1 0x20 DUP5 ADD CALLDATALOAD PUSH8 0xFFFFFFFFFFFFFFFF DUP2 GT ISZERO PUSH2 0x2FAD JUMPI PUSH1 0x0 DUP1 REVERT JUMPDEST PUSH1 0x0 DUP1 PUSH1 0x0 DUP1 PUSH1 0x80 DUP6 DUP8 SUB SLT ISZERO PUSH2 0x31BD JUMPI PUSH1 0x0 DUP1 REVERT JUMPDEST DUP5 CALLDATALOAD PUSH2 0x31C8 DUP2 PUSH2 0x2DEF JUMP JUMPDEST SWAP4 POP PUSH1 0x20 DUP6 ADD CALLDATALOAD PUSH2 0x31D8 DUP2 PUSH2 0x2DEF JUMP JUMPDEST SWAP3 POP PUSH1 0x40 DUP6 ADD CALLDATALOAD SWAP2 POP PUSH1 0x60 DUP6 ADD CALLDATALOAD PUSH8 0xFFFFFFFFFFFFFFFF DUP2 GT ISZERO PUSH2 0x31FB JUMPI PUSH1 0x0 DUP1 REVERT JUMPDEST DUP6 ADD PUSH1 0x1F DUP2 ADD DUP8 SGT PUSH2 0x320C JUMPI PUSH1 0x0 DUP1 REVERT JUMPDEST PUSH2 0x321B DUP8 DUP3 CALLDATALOAD PUSH1 0x20 DUP5 ADD PUSH2 0x2E77 JUMP JUMPDEST SWAP2 POP POP SWAP3 SWAP6 SWAP2 SWAP5 POP SWAP3 POP JUMP JUMPDEST PUSH1 0x0 DUP1 PUSH1 0x40 DUP4 DUP6 SUB SLT ISZERO PUSH2 0x323A JUMPI PUSH1 0x0 DUP1 REVERT JUMPDEST DUP3 CALLDATALOAD PUSH2 0x3245 DUP2 PUSH2 0x2DEF JUMP JUMPDEST SWAP2 POP PUSH1 0x20 DUP4 ADD CALLDATALOAD PUSH1 0x1 PUSH1 0x1 PUSH1 0x60 SHL SUB DUP2 AND DUP2 EQ PUSH2 0x3160 JUMPI PUSH1 0x0 DUP1 REVERT JUMPDEST PUSH1 0x0 DUP1 PUSH1 0x40 DUP4 DUP6 SUB SLT ISZERO PUSH2 0x3274 JUMPI PUSH1 0x0 DUP1 REVERT JUMPDEST DUP3 CALLDATALOAD PUSH2 0x327F DUP2 PUSH2 0x2DEF JUMP JUMPDEST SWAP2 POP PUSH1 0x20 DUP4 ADD CALLDATALOAD PUSH2 0x3160 DUP2 PUSH2 0x2DEF JUMP JUMPDEST PUSH1 0x1 DUP2 DUP2 SHR SWAP1 DUP3 AND DUP1 PUSH2 0x32A3 JUMPI PUSH1 0x7F DUP3 AND SWAP2 POP JUMPDEST PUSH1 0x20 DUP3 LT DUP2 SUB PUSH2 0x32C3 JUMPI PUSH4 0x4E487B71 PUSH1 0xE0 SHL PUSH1 0x0 MSTORE PUSH1 0x22 PUSH1 0x4 MSTORE PUSH1 0x24 PUSH1 0x0 REVERT JUMPDEST POP SWAP2 SWAP1 POP JUMP JUMPDEST PUSH1 0x1F DUP3 GT ISZERO PUSH2 0xE6A JUMPI PUSH1 0x0 DUP2 DUP2 MSTORE PUSH1 0x20 DUP2 KECCAK256 PUSH1 0x1F DUP6 ADD PUSH1 0x5 SHR DUP2 ADD PUSH1 0x20 DUP7 LT ISZERO PUSH2 0x32F0 JUMPI POP DUP1 JUMPDEST PUSH1 0x1F DUP6 ADD PUSH1 0x5 SHR DUP3 ADD SWAP2 POP JUMPDEST DUP2 DUP2 LT ISZERO PUSH2 0x24DA JUMPI DUP3 DUP2 SSTORE PUSH1 0x1 ADD PUSH2 0x32FC JUMP JUMPDEST DUP2 MLOAD PUSH8 0xFFFFFFFFFFFFFFFF DUP2 GT ISZERO PUSH2 0x3329 JUMPI PUSH2 0x3329 PUSH2 0x2E30 JUMP JUMPDEST PUSH2 0x333D DUP2 PUSH2 0x3337 DUP5 SLOAD PUSH2 0x328F JUMP JUMPDEST DUP5 PUSH2 0x32C9 JUMP JUMPDEST PUSH1 0x20 DUP1 PUSH1 0x1F DUP4 GT PUSH1 0x1 DUP2 EQ PUSH2 0x3372 JUMPI PUSH1 0x0 DUP5 ISZERO PUSH2 0x335A JUMPI POP DUP6 DUP4 ADD MLOAD JUMPDEST PUSH1 0x0 NOT PUSH1 0x3 DUP7 SWAP1 SHL SHR NOT AND PUSH1 0x1 DUP6 SWAP1 SHL OR DUP6 SSTORE PUSH2 0x24DA JUMP JUMPDEST PUSH1 0x0 DUP6 DUP2 MSTORE PUSH1 0x20 DUP2 KECCAK256 PUSH1 0x1F NOT DUP7 AND SWAP2 JUMPDEST DUP3 DUP2 LT ISZERO PUSH2 0x33A1 JUMPI DUP9 DUP7 ADD MLOAD DUP3 SSTORE SWAP5 DUP5 ADD SWAP5 PUSH1 0x1 SWAP1 SWAP2 ADD SWAP1 DUP5 ADD PUSH2 0x3382 JUMP JUMPDEST POP DUP6 DUP3 LT ISZERO PUSH2 0x33BF JUMPI DUP8 DUP6 ADD MLOAD PUSH1 0x0 NOT PUSH1 0x3 DUP9 SWAP1 SHL PUSH1 0xF8 AND SHR NOT AND DUP2 SSTORE JUMPDEST POP POP POP POP POP PUSH1 0x1 SWAP1 DUP2 SHL ADD SWAP1 SSTORE POP JUMP JUMPDEST PUSH4 0x4E487B71 PUSH1 0xE0 SHL PUSH1 0x0 MSTORE PUSH1 0x11 PUSH1 0x4 MSTORE PUSH1 0x24 PUSH1 0x0 REVERT JUMPDEST DUP1 DUP3 ADD DUP1 DUP3 GT ISZERO PUSH2 0xD7A JUMPI PUSH2 0xD7A PUSH2 0x33CF JUMP JUMPDEST PUSH1 0x20 DUP1 DUP3 MSTORE PUSH1 0x23 SWAP1 DUP3 ADD MSTORE PUSH32 0x4E6F7420656E6F75676820746F6B656E7320617661696C61626C6520746F206D PUSH1 0x40 DUP3 ADD MSTORE PUSH3 0x1A5B9D PUSH1 0xEA SHL PUSH1 0x60 DUP3 ADD MSTORE PUSH1 0x80 ADD SWAP1 JUMP JUMPDEST PUSH1 0x60 SWAP2 SWAP1 SWAP2 SHL PUSH12 0xFFFFFFFFFFFFFFFFFFFFFFFF NOT AND DUP2 MSTORE PUSH1 0x14 ADD SWAP1 JUMP JUMPDEST DUP1 DUP3 MUL DUP2 ISZERO DUP3 DUP3 DIV DUP5 EQ OR PUSH2 0xD7A JUMPI PUSH2 0xD7A PUSH2 0x33CF JUMP JUMPDEST PUSH1 0x20 DUP1 DUP3 MSTORE PUSH1 0x1C SWAP1 DUP3 ADD MSTORE PUSH32 0x496E636F727265637420616D6F756E74206F66204554482073656E7400000000 PUSH1 0x40 DUP3 ADD MSTORE PUSH1 0x60 ADD SWAP1 JUMP JUMPDEST PUSH4 0x4E487B71 PUSH1 0xE0 SHL PUSH1 0x0 MSTORE PUSH1 0x12 PUSH1 0x4 MSTORE PUSH1 0x24 PUSH1 0x0 REVERT JUMPDEST PUSH1 0x0 DUP3 PUSH2 0x34CB JUMPI PUSH2 0x34CB PUSH2 0x34A6 JUMP JUMPDEST POP DIV SWAP1 JUMP JUMPDEST PUSH4 0x4E487B71 PUSH1 0xE0 SHL PUSH1 0x0 MSTORE PUSH1 0x32 PUSH1 0x4 MSTORE PUSH1 0x24 PUSH1 0x0 REVERT JUMPDEST PUSH1 0x0 DUP3 PUSH2 0x34F5 JUMPI PUSH2 0x34F5 PUSH2 0x34A6 JUMP JUMPDEST POP MOD SWAP1 JUMP JUMPDEST PUSH1 0x20 DUP1 DUP3 MSTORE PUSH1 0x23 SWAP1 DUP3 ADD MSTORE PUSH32 0x4E6F7420656E6F75676820617661696C61626C6520746F6B656E7320746F206D PUSH1 0x40 DUP3 ADD MSTORE PUSH3 0x1A5B9D PUSH1 0xEA SHL PUSH1 0x60 DUP3 ADD MSTORE PUSH1 0x80 ADD SWAP1 JUMP JUMPDEST PUSH1 0x0 PUSH1 0x20 DUP3 DUP5 SUB SLT ISZERO PUSH2 0x354F JUMPI PUSH1 0x0 DUP1 REVERT JUMPDEST DUP2 MLOAD PUSH2 0x2821 DUP2 PUSH2 0x2DEF JUMP JUMPDEST PUSH1 0x0 PUSH1 0x1 DUP3 ADD PUSH2 0x356C JUMPI PUSH2 0x356C PUSH2 0x33CF JUMP JUMPDEST POP PUSH1 0x1 ADD SWAP1 JUMP JUMPDEST DUP2 DUP2 SUB DUP2 DUP2 GT ISZERO PUSH2 0xD7A JUMPI PUSH2 0xD7A PUSH2 0x33CF JUMP JUMPDEST PUSH1 0x0 DUP2 SLOAD PUSH2 0x3593 DUP2 PUSH2 0x328F JUMP JUMPDEST PUSH1 0x1 DUP3 DUP2 AND DUP1 ISZERO PUSH2 0x35AB JUMPI PUSH1 0x1 DUP2 EQ PUSH2 0x35C0 JUMPI PUSH2 0x35EF JUMP JUMPDEST PUSH1 0xFF NOT DUP5 AND DUP8 MSTORE DUP3 ISZERO ISZERO DUP4 MUL DUP8 ADD SWAP5 POP PUSH2 0x35EF JUMP JUMPDEST DUP6 PUSH1 0x0 MSTORE PUSH1 0x20 DUP1 PUSH1 0x0 KECCAK256 PUSH1 0x0 JUMPDEST DUP6 DUP2 LT ISZERO PUSH2 0x35E6 JUMPI DUP2 SLOAD DUP11 DUP3 ADD MSTORE SWAP1 DUP5 ADD SWAP1 DUP3 ADD PUSH2 0x35CD JUMP JUMPDEST POP POP POP DUP3 DUP8 ADD SWAP5 POP JUMPDEST POP POP POP POP SWAP3 SWAP2 POP POP JUMP JUMPDEST PUSH1 0x0 PUSH2 0x3605 DUP3 DUP7 PUSH2 0x3586 JUMP JUMPDEST DUP5 MLOAD PUSH2 0x3615 DUP2 DUP4 PUSH1 0x20 DUP10 ADD PUSH2 0x2D73 JUMP JUMPDEST PUSH2 0x3621 DUP2 DUP4 ADD DUP7 PUSH2 0x3586 JUMP JUMPDEST SWAP8 SWAP7 POP POP POP POP POP POP POP JUMP JUMPDEST PUSH1 0x0 PUSH1 0x20 DUP3 DUP5 SUB SLT ISZERO PUSH2 0x363E JUMPI PUSH1 0x0 DUP1 REVERT JUMPDEST DUP2 MLOAD PUSH2 0x2821 DUP2 PUSH2 0x3029 JUMP JUMPDEST PUSH1 0x1 PUSH1 0x1 PUSH1 0xA0 SHL SUB DUP6 DUP2 AND DUP3 MSTORE DUP5 AND PUSH1 0x20 DUP3 ADD MSTORE PUSH1 0x40 DUP2 ADD DUP4 SWAP1 MSTORE PUSH1 0x80 PUSH1 0x60 DUP3 ADD DUP2 SWAP1 MSTORE PUSH1 0x0 SWAP1 PUSH2 0x367C SWAP1 DUP4 ADD DUP5 PUSH2 0x2D97 JUMP JUMPDEST SWAP7 SWAP6 POP POP POP POP POP POP JUMP JUMPDEST PUSH1 0x0 PUSH1 0x20 DUP3 DUP5 SUB SLT ISZERO PUSH2 0x3698 JUMPI PUSH1 0x0 DUP1 REVERT JUMPDEST DUP2 MLOAD PUSH2 0x2821 DUP2 PUSH2 0x2D40 JUMP INVALID PUSH10 0x7066733A2F2F516D515A TIMESTAMP 0x4B POP JUMP PUSH26 0x74674357396D656E6F4C467442427253485945557556534D6156 0x4A PUSH15 0x7A4562416B65345176DDF252AD1BE2 0xC8 SWAP12 PUSH10 0xC2B068FC378DAA952BA7 CALL PUSH4 0xC4A11628 CREATE2 GAS 0x4D CREATE2 0x23 0xB3 0xEF LOG2 PUSH5 0x6970667358 0x22 SLT KECCAK256 SWAP4 0xE6 0xC6 MLOAD PUSH14 0xA7BBEC9ABB0897BED05C4581CD76 0xC7 OR 0x1F DUP5 0xD9 CODESIZE PUSH3 0x2D0C09 SWAP11 0xCC PUSH31 0x64736F6C63430008110033697066733A2F2F516D62554B6565415663457857 PUSH3 0x436834 MSIZE 0x4A PUSH5 0x4B56694868 0x4D 0x4D GAS CALLDATACOPY 0x4B GASLIMIT PUSH3 0x585932 PUSH20 0x65714D347A454C6A546500000000000000000000 "},"methodIdentifiers":{"MAX_MINT_FREE()":"b4512ae6","MAX_MINT_GOLIST()":"0e4f76b2","MAX_MINT_PUBLIC()":"63172ac1","MAX_MINT_WHITELIST()":"58941a4d","MyTokenaddress()":"6e7cc377","OPERATOR_FILTER_REGISTRY()":"41f43434","adminMintBulk(address,uint256)":"793a9fcd","approve(address,uint256)":"095ea7b3","balanceOf(address)":"70a08231","baseURI()":"6c0360eb","burn(uint256)":"42966c68","burnEnabled()":"5dc96d16","contractURI()":"e8a3d485","getApproved(uint256)":"081812fc","getDLMintedCountForAddress(address)":"c4102d72","getPublicMintedCountForAddress(address)":"9b3caa39","getTokensOfOwner(address)":"5de6dc55","getWLMintedCountForAddress(address)":"a1246217","goListMint(uint256,bytes32[])":"984fe438","goMint(uint256[])":"7cd33c10","goMintFromWhiteList(uint256,bytes32[])":"201c285b","goPublicMint(uint256,bytes32[])":"16e45f8e","golistMintedCount(address)":"107410be","isApprovedForAll(address,address)":"e985e9c5","isRevealed()":"54214f69","maxTokens()":"e8315742","merkleRootGoList()":"1bd9b9d9","merkleRootWL()":"d6492d81","mintPhase()":"17881cbf","mintPrice()":"6817c76c","mintPriceWL()":"c0130f2f","name()":"06fdde03","owner()":"8da5cb5b","ownerOf(uint256)":"6352211e","payAddress(address,uint256)":"cdc5cdc1","payoutAddress()":"5b8d02d7","publicMintedCount(address)":"34c48943","renounceOwnership()":"715018a6","royaltyInfo(uint256,uint256)":"2a55205a","safeTransferFrom(address,address,uint256)":"42842e0e","safeTransferFrom(address,address,uint256,bytes)":"b88d4fde","setApprovalForAll(address,bool)":"a22cb465","setBaseURI(string)":"55f804b3","setBurnEnabled(uint256)":"f34439f0","setIsRevealed(bool)":"49a5980a","setMAXFREE(uint256)":"4e765e65","setMAXGOLIST(uint256)":"e91dc565","setMAXPublic(uint256)":"8da3de67","setMAXWL(uint256)":"18d0e3e1","setMaxTokens(uint256)":"11e776fe","setMerkleRootGoList(bytes32)":"6cf217db","setMerkleRootWL(bytes32)":"ad3e31b7","setMintPhase(uint256)":"943431bf","setMintPrice(uint256)":"f4a0a528","setMintPriceWL(uint256)":"3826dd88","setMyTokenAddress(address)":"ed3df8df","setPayoutAddress(address)":"33ea51a8","setRoyalties(address,uint96)":"c21b471b","setTokenSuffix(string)":"0ef6a94b","setUnrevealedURI(string)":"fe2c7fee","setzBurn(uint256)":"4cd0273c","supportsInterface(bytes4)":"01ffc9a7","symbol()":"95d89b41","tokenSuffix()":"9ee631d1","tokenURI(uint256)":"c87b56dd","totalMinted()":"a2309ff8","totalSupply()":"18160ddd","transferFrom(address,address,uint256)":"23b872dd","transferOwnership(address)":"f2fde38b","unrevealedURI()":"7035bf18","verifyWLWallet(address,bytes32[])":"a6c09bc3","version()":"54fd4d50","whitelistMintedCount(address)":"e3491ca1","withdraw(uint256)":"2e1a7d4d","zburn()":"f8dcfc07"}}}}}