{
  "_format": "hh-sol-artifact-1",
  "contractName": "MyToken",
  "sourceName": "contracts/Mytoken.sol",
  "abi": [
    {
      "inputs": [
        {
          "internalType": "address",
          "name": "daddr",
          "type": "address"
        }
      ],
      "stateMutability": "nonpayable",
      "type": "constructor"
    },
    {
      "inputs": [],
      "name": "ApprovalCallerNotOwnerNorApproved",
      "type": "error"
    },
    {
      "inputs": [],
      "name": "ApprovalQueryForNonexistentToken",
      "type": "error"
    },
    {
      "inputs": [],
      "name": "BalanceQueryForZeroAddress",
      "type": "error"
    },
    {
      "inputs": [],
      "name": "MintERC2309QuantityExceedsLimit",
      "type": "error"
    },
    {
      "inputs": [],
      "name": "MintToZeroAddress",
      "type": "error"
    },
    {
      "inputs": [],
      "name": "MintZeroQuantity",
      "type": "error"
    },
    {
      "inputs": [
        {
          "internalType": "address",
          "name": "operator",
          "type": "address"
        }
      ],
      "name": "OperatorNotAllowed",
      "type": "error"
    },
    {
      "inputs": [],
      "name": "OwnerQueryForNonexistentToken",
      "type": "error"
    },
    {
      "inputs": [],
      "name": "OwnershipNotInitializedForExtraData",
      "type": "error"
    },
    {
      "inputs": [],
      "name": "TransferCallerNotOwnerNorApproved",
      "type": "error"
    },
    {
      "inputs": [],
      "name": "TransferFromIncorrectOwner",
      "type": "error"
    },
    {
      "inputs": [],
      "name": "TransferToNonERC721ReceiverImplementer",
      "type": "error"
    },
    {
      "inputs": [],
      "name": "TransferToZeroAddress",
      "type": "error"
    },
    {
      "inputs": [],
      "name": "URIQueryForNonexistentToken",
      "type": "error"
    },
    {
      "anonymous": false,
      "inputs": [
        {
          "indexed": true,
          "internalType": "address",
          "name": "owner",
          "type": "address"
        },
        {
          "indexed": true,
          "internalType": "address",
          "name": "approved",
          "type": "address"
        },
        {
          "indexed": true,
          "internalType": "uint256",
          "name": "tokenId",
          "type": "uint256"
        }
      ],
      "name": "Approval",
      "type": "event"
    },
    {
      "anonymous": false,
      "inputs": [
        {
          "indexed": true,
          "internalType": "address",
          "name": "owner",
          "type": "address"
        },
        {
          "indexed": true,
          "internalType": "address",
          "name": "operator",
          "type": "address"
        },
        {
          "indexed": false,
          "internalType": "bool",
          "name": "approved",
          "type": "bool"
        }
      ],
      "name": "ApprovalForAll",
      "type": "event"
    },
    {
      "anonymous": false,
      "inputs": [
        {
          "indexed": true,
          "internalType": "uint256",
          "name": "fromTokenId",
          "type": "uint256"
        },
        {
          "indexed": false,
          "internalType": "uint256",
          "name": "toTokenId",
          "type": "uint256"
        },
        {
          "indexed": true,
          "internalType": "address",
          "name": "from",
          "type": "address"
        },
        {
          "indexed": true,
          "internalType": "address",
          "name": "to",
          "type": "address"
        }
      ],
      "name": "ConsecutiveTransfer",
      "type": "event"
    },
    {
      "anonymous": false,
      "inputs": [
        {
          "indexed": true,
          "internalType": "address",
          "name": "previousOwner",
          "type": "address"
        },
        {
          "indexed": true,
          "internalType": "address",
          "name": "newOwner",
          "type": "address"
        }
      ],
      "name": "OwnershipTransferred",
      "type": "event"
    },
    {
      "anonymous": false,
      "inputs": [
        {
          "indexed": false,
          "internalType": "address",
          "name": "to",
          "type": "address"
        },
        {
          "indexed": false,
          "internalType": "uint256",
          "name": "amount",
          "type": "uint256"
        }
      ],
      "name": "PaymentReleased",
      "type": "event"
    },
    {
      "anonymous": false,
      "inputs": [
        {
          "indexed": false,
          "internalType": "uint256",
          "name": "tokenId",
          "type": "uint256"
        },
        {
          "indexed": false,
          "internalType": "address",
          "name": "owner",
          "type": "address"
        }
      ],
      "name": "TokenMinted",
      "type": "event"
    },
    {
      "anonymous": false,
      "inputs": [
        {
          "indexed": true,
          "internalType": "address",
          "name": "from",
          "type": "address"
        },
        {
          "indexed": true,
          "internalType": "address",
          "name": "to",
          "type": "address"
        },
        {
          "indexed": true,
          "internalType": "uint256",
          "name": "tokenId",
          "type": "uint256"
        }
      ],
      "name": "Transfer",
      "type": "event"
    },
    {
      "inputs": [],
      "name": "MAX_MINT_FREE",
      "outputs": [
        {
          "internalType": "uint256",
          "name": "",
          "type": "uint256"
        }
      ],
      "stateMutability": "view",
      "type": "function"
    },
    {
      "inputs": [],
      "name": "MAX_MINT_GOLIST",
      "outputs": [
        {
          "internalType": "uint256",
          "name": "",
          "type": "uint256"
        }
      ],
      "stateMutability": "view",
      "type": "function"
    },
    {
      "inputs": [],
      "name": "MAX_MINT_PUBLIC",
      "outputs": [
        {
          "internalType": "uint256",
          "name": "",
          "type": "uint256"
        }
      ],
      "stateMutability": "view",
      "type": "function"
    },
    {
      "inputs": [],
      "name": "MAX_MINT_WHITELIST",
      "outputs": [
        {
          "internalType": "uint256",
          "name": "",
          "type": "uint256"
        }
      ],
      "stateMutability": "view",
      "type": "function"
    },
    {
      "inputs": [],
      "name": "MyTokenaddress",
      "outputs": [
        {
          "internalType": "address",
          "name": "",
          "type": "address"
        }
      ],
      "stateMutability": "view",
      "type": "function"
    },
    {
      "inputs": [],
      "name": "OPERATOR_FILTER_REGISTRY",
      "outputs": [
        {
          "internalType": "contract IOperatorFilterRegistry",
          "name": "",
          "type": "address"
        }
      ],
      "stateMutability": "view",
      "type": "function"
    },
    {
      "inputs": [
        {
          "internalType": "address",
          "name": "to",
          "type": "address"
        },
        {
          "internalType": "uint256",
          "name": "numberOfTokens",
          "type": "uint256"
        }
      ],
      "name": "adminMintBulk",
      "outputs": [],
      "stateMutability": "nonpayable",
      "type": "function"
    },
    {
      "inputs": [
        {
          "internalType": "address",
          "name": "operator",
          "type": "address"
        },
        {
          "internalType": "uint256",
          "name": "tokenId",
          "type": "uint256"
        }
      ],
      "name": "approve",
      "outputs": [],
      "stateMutability": "payable",
      "type": "function"
    },
    {
      "inputs": [
        {
          "internalType": "address",
          "name": "owner",
          "type": "address"
        }
      ],
      "name": "balanceOf",
      "outputs": [
        {
          "internalType": "uint256",
          "name": "",
          "type": "uint256"
        }
      ],
      "stateMutability": "view",
      "type": "function"
    },
    {
      "inputs": [],
      "name": "baseURI",
      "outputs": [
        {
          "internalType": "string",
          "name": "",
          "type": "string"
        }
      ],
      "stateMutability": "view",
      "type": "function"
    },
    {
      "inputs": [
        {
          "internalType": "uint256",
          "name": "tokenId",
          "type": "uint256"
        }
      ],
      "name": "burn",
      "outputs": [],
      "stateMutability": "nonpayable",
      "type": "function"
    },
    {
      "inputs": [],
      "name": "burnEnabled",
      "outputs": [
        {
          "internalType": "uint256",
          "name": "",
          "type": "uint256"
        }
      ],
      "stateMutability": "view",
      "type": "function"
    },
    {
      "inputs": [],
      "name": "contractURI",
      "outputs": [
        {
          "internalType": "string",
          "name": "",
          "type": "string"
        }
      ],
      "stateMutability": "pure",
      "type": "function"
    },
    {
      "inputs": [
        {
          "internalType": "uint256",
          "name": "tokenId",
          "type": "uint256"
        }
      ],
      "name": "getApproved",
      "outputs": [
        {
          "internalType": "address",
          "name": "",
          "type": "address"
        }
      ],
      "stateMutability": "view",
      "type": "function"
    },
    {
      "inputs": [
        {
          "internalType": "address",
          "name": "w",
          "type": "address"
        }
      ],
      "name": "getDLMintedCountForAddress",
      "outputs": [
        {
          "internalType": "uint256",
          "name": "",
          "type": "uint256"
        }
      ],
      "stateMutability": "view",
      "type": "function"
    },
    {
      "inputs": [
        {
          "internalType": "address",
          "name": "w",
          "type": "address"
        }
      ],
      "name": "getPublicMintedCountForAddress",
      "outputs": [
        {
          "internalType": "uint256",
          "name": "",
          "type": "uint256"
        }
      ],
      "stateMutability": "view",
      "type": "function"
    },
    {
      "inputs": [
        {
          "internalType": "address",
          "name": "owner",
          "type": "address"
        }
      ],
      "name": "getTokensOfOwner",
      "outputs": [
        {
          "internalType": "uint256[]",
          "name": "",
          "type": "uint256[]"
        }
      ],
      "stateMutability": "view",
      "type": "function"
    },
    {
      "inputs": [
        {
          "internalType": "address",
          "name": "w",
          "type": "address"
        }
      ],
      "name": "getWLMintedCountForAddress",
      "outputs": [
        {
          "internalType": "uint256",
          "name": "",
          "type": "uint256"
        }
      ],
      "stateMutability": "view",
      "type": "function"
    },
    {
      "inputs": [
        {
          "internalType": "uint256",
          "name": "numberOfTokens",
          "type": "uint256"
        },
        {
          "internalType": "bytes32[]",
          "name": "_merkleProof",
          "type": "bytes32[]"
        }
      ],
      "name": "goListMint",
      "outputs": [],
      "stateMutability": "payable",
      "type": "function"
    },
    {
      "inputs": [
        {
          "internalType": "uint256[]",
          "name": "tokens",
          "type": "uint256[]"
        }
      ],
      "name": "goMint",
      "outputs": [],
      "stateMutability": "nonpayable",
      "type": "function"
    },
    {
      "inputs": [
        {
          "internalType": "uint256",
          "name": "numberOfTokens",
          "type": "uint256"
        },
        {
          "internalType": "bytes32[]",
          "name": "_merkleProof",
          "type": "bytes32[]"
        }
      ],
      "name": "goMintFromWhiteList",
      "outputs": [],
      "stateMutability": "payable",
      "type": "function"
    },
    {
      "inputs": [
        {
          "internalType": "uint256",
          "name": "numberOfTokens",
          "type": "uint256"
        },
        {
          "internalType": "bytes32[]",
          "name": "_merkleProof",
          "type": "bytes32[]"
        }
      ],
      "name": "goPublicMint",
      "outputs": [],
      "stateMutability": "payable",
      "type": "function"
    },
    {
      "inputs": [
        {
          "internalType": "address",
          "name": "",
          "type": "address"
        }
      ],
      "name": "golistMintedCount",
      "outputs": [
        {
          "internalType": "uint256",
          "name": "",
          "type": "uint256"
        }
      ],
      "stateMutability": "view",
      "type": "function"
    },
    {
      "inputs": [
        {
          "internalType": "address",
          "name": "owner",
          "type": "address"
        },
        {
          "internalType": "address",
          "name": "operator",
          "type": "address"
        }
      ],
      "name": "isApprovedForAll",
      "outputs": [
        {
          "internalType": "bool",
          "name": "",
          "type": "bool"
        }
      ],
      "stateMutability": "view",
      "type": "function"
    },
    {
      "inputs": [],
      "name": "isRevealed",
      "outputs": [
        {
          "internalType": "bool",
          "name": "",
          "type": "bool"
        }
      ],
      "stateMutability": "view",
      "type": "function"
    },
    {
      "inputs": [],
      "name": "maxTokens",
      "outputs": [
        {
          "internalType": "uint256",
          "name": "",
          "type": "uint256"
        }
      ],
      "stateMutability": "view",
      "type": "function"
    },
    {
      "inputs": [],
      "name": "merkleRootGoList",
      "outputs": [
        {
          "internalType": "bytes32",
          "name": "",
          "type": "bytes32"
        }
      ],
      "stateMutability": "view",
      "type": "function"
    },
    {
      "inputs": [],
      "name": "merkleRootWL",
      "outputs": [
        {
          "internalType": "bytes32",
          "name": "",
          "type": "bytes32"
        }
      ],
      "stateMutability": "view",
      "type": "function"
    },
    {
      "inputs": [],
      "name": "mintPhase",
      "outputs": [
        {
          "internalType": "uint256",
          "name": "",
          "type": "uint256"
        }
      ],
      "stateMutability": "view",
      "type": "function"
    },
    {
      "inputs": [],
      "name": "mintPrice",
      "outputs": [
        {
          "internalType": "uint256",
          "name": "",
          "type": "uint256"
        }
      ],
      "stateMutability": "view",
      "type": "function"
    },
    {
      "inputs": [],
      "name": "mintPriceWL",
      "outputs": [
        {
          "internalType": "uint256",
          "name": "",
          "type": "uint256"
        }
      ],
      "stateMutability": "view",
      "type": "function"
    },
    {
      "inputs": [],
      "name": "name",
      "outputs": [
        {
          "internalType": "string",
          "name": "",
          "type": "string"
        }
      ],
      "stateMutability": "view",
      "type": "function"
    },
    {
      "inputs": [],
      "name": "owner",
      "outputs": [
        {
          "internalType": "address",
          "name": "",
          "type": "address"
        }
      ],
      "stateMutability": "view",
      "type": "function"
    },
    {
      "inputs": [
        {
          "internalType": "uint256",
          "name": "tokenId",
          "type": "uint256"
        }
      ],
      "name": "ownerOf",
      "outputs": [
        {
          "internalType": "address",
          "name": "",
          "type": "address"
        }
      ],
      "stateMutability": "view",
      "type": "function"
    },
    {
      "inputs": [
        {
          "internalType": "address",
          "name": "to",
          "type": "address"
        },
        {
          "internalType": "uint256",
          "name": "amount",
          "type": "uint256"
        }
      ],
      "name": "payAddress",
      "outputs": [],
      "stateMutability": "nonpayable",
      "type": "function"
    },
    {
      "inputs": [],
      "name": "payoutAddress",
      "outputs": [
        {
          "internalType": "address",
          "name": "",
          "type": "address"
        }
      ],
      "stateMutability": "view",
      "type": "function"
    },
    {
      "inputs": [
        {
          "internalType": "address",
          "name": "",
          "type": "address"
        }
      ],
      "name": "publicMintedCount",
      "outputs": [
        {
          "internalType": "uint256",
          "name": "",
          "type": "uint256"
        }
      ],
      "stateMutability": "view",
      "type": "function"
    },
    {
      "inputs": [],
      "name": "renounceOwnership",
      "outputs": [],
      "stateMutability": "nonpayable",
      "type": "function"
    },
    {
      "inputs": [
        {
          "internalType": "uint256",
          "name": "_tokenId",
          "type": "uint256"
        },
        {
          "internalType": "uint256",
          "name": "_salePrice",
          "type": "uint256"
        }
      ],
      "name": "royaltyInfo",
      "outputs": [
        {
          "internalType": "address",
          "name": "",
          "type": "address"
        },
        {
          "internalType": "uint256",
          "name": "",
          "type": "uint256"
        }
      ],
      "stateMutability": "view",
      "type": "function"
    },
    {
      "inputs": [
        {
          "internalType": "address",
          "name": "from",
          "type": "address"
        },
        {
          "internalType": "address",
          "name": "to",
          "type": "address"
        },
        {
          "internalType": "uint256",
          "name": "tokenId",
          "type": "uint256"
        }
      ],
      "name": "safeTransferFrom",
      "outputs": [],
      "stateMutability": "payable",
      "type": "function"
    },
    {
      "inputs": [
        {
          "internalType": "address",
          "name": "from",
          "type": "address"
        },
        {
          "internalType": "address",
          "name": "to",
          "type": "address"
        },
        {
          "internalType": "uint256",
          "name": "tokenId",
          "type": "uint256"
        },
        {
          "internalType": "bytes",
          "name": "data",
          "type": "bytes"
        }
      ],
      "name": "safeTransferFrom",
      "outputs": [],
      "stateMutability": "payable",
      "type": "function"
    },
    {
      "inputs": [
        {
          "internalType": "address",
          "name": "operator",
          "type": "address"
        },
        {
          "internalType": "bool",
          "name": "approved",
          "type": "bool"
        }
      ],
      "name": "setApprovalForAll",
      "outputs": [],
      "stateMutability": "nonpayable",
      "type": "function"
    },
    {
      "inputs": [
        {
          "internalType": "string",
          "name": "_uri",
          "type": "string"
        }
      ],
      "name": "setBaseURI",
      "outputs": [],
      "stateMutability": "nonpayable",
      "type": "function"
    },
    {
      "inputs": [
        {
          "internalType": "uint256",
          "name": "p",
          "type": "uint256"
        }
      ],
      "name": "setBurnEnabled",
      "outputs": [],
      "stateMutability": "nonpayable",
      "type": "function"
    },
    {
      "inputs": [
        {
          "internalType": "bool",
          "name": "b",
          "type": "bool"
        }
      ],
      "name": "setIsRevealed",
      "outputs": [],
      "stateMutability": "nonpayable",
      "type": "function"
    },
    {
      "inputs": [
        {
          "internalType": "uint256",
          "name": "p",
          "type": "uint256"
        }
      ],
      "name": "setMAXFREE",
      "outputs": [],
      "stateMutability": "nonpayable",
      "type": "function"
    },
    {
      "inputs": [
        {
          "internalType": "uint256",
          "name": "p",
          "type": "uint256"
        }
      ],
      "name": "setMAXGOLIST",
      "outputs": [],
      "stateMutability": "nonpayable",
      "type": "function"
    },
    {
      "inputs": [
        {
          "internalType": "uint256",
          "name": "p",
          "type": "uint256"
        }
      ],
      "name": "setMAXPublic",
      "outputs": [],
      "stateMutability": "nonpayable",
      "type": "function"
    },
    {
      "inputs": [
        {
          "internalType": "uint256",
          "name": "p",
          "type": "uint256"
        }
      ],
      "name": "setMAXWL",
      "outputs": [],
      "stateMutability": "nonpayable",
      "type": "function"
    },
    {
      "inputs": [
        {
          "internalType": "uint256",
          "name": "p",
          "type": "uint256"
        }
      ],
      "name": "setMaxTokens",
      "outputs": [],
      "stateMutability": "nonpayable",
      "type": "function"
    },
    {
      "inputs": [
        {
          "internalType": "bytes32",
          "name": "merk",
          "type": "bytes32"
        }
      ],
      "name": "setMerkleRootGoList",
      "outputs": [],
      "stateMutability": "nonpayable",
      "type": "function"
    },
    {
      "inputs": [
        {
          "internalType": "bytes32",
          "name": "merk",
          "type": "bytes32"
        }
      ],
      "name": "setMerkleRootWL",
      "outputs": [],
      "stateMutability": "nonpayable",
      "type": "function"
    },
    {
      "inputs": [
        {
          "internalType": "uint256",
          "name": "p",
          "type": "uint256"
        }
      ],
      "name": "setMintPhase",
      "outputs": [],
      "stateMutability": "nonpayable",
      "type": "function"
    },
    {
      "inputs": [
        {
          "internalType": "uint256",
          "name": "b",
          "type": "uint256"
        }
      ],
      "name": "setMintPrice",
      "outputs": [],
      "stateMutability": "nonpayable",
      "type": "function"
    },
    {
      "inputs": [
        {
          "internalType": "uint256",
          "name": "b",
          "type": "uint256"
        }
      ],
      "name": "setMintPriceWL",
      "outputs": [],
      "stateMutability": "nonpayable",
      "type": "function"
    },
    {
      "inputs": [
        {
          "internalType": "address",
          "name": "s",
          "type": "address"
        }
      ],
      "name": "setMyTokenAddress",
      "outputs": [],
      "stateMutability": "nonpayable",
      "type": "function"
    },
    {
      "inputs": [
        {
          "internalType": "address",
          "name": "s",
          "type": "address"
        }
      ],
      "name": "setPayoutAddress",
      "outputs": [],
      "stateMutability": "nonpayable",
      "type": "function"
    },
    {
      "inputs": [
        {
          "internalType": "address",
          "name": "receiver",
          "type": "address"
        },
        {
          "internalType": "uint96",
          "name": "royaltyFraction",
          "type": "uint96"
        }
      ],
      "name": "setRoyalties",
      "outputs": [],
      "stateMutability": "nonpayable",
      "type": "function"
    },
    {
      "inputs": [
        {
          "internalType": "string",
          "name": "suffix",
          "type": "string"
        }
      ],
      "name": "setTokenSuffix",
      "outputs": [],
      "stateMutability": "nonpayable",
      "type": "function"
    },
    {
      "inputs": [
        {
          "internalType": "string",
          "name": "_uri",
          "type": "string"
        }
      ],
      "name": "setUnrevealedURI",
      "outputs": [],
      "stateMutability": "nonpayable",
      "type": "function"
    },
    {
      "inputs": [
        {
          "internalType": "uint256",
          "name": "a",
          "type": "uint256"
        }
      ],
      "name": "setzBurn",
      "outputs": [],
      "stateMutability": "nonpayable",
      "type": "function"
    },
    {
      "inputs": [
        {
          "internalType": "bytes4",
          "name": "interfaceId",
          "type": "bytes4"
        }
      ],
      "name": "supportsInterface",
      "outputs": [
        {
          "internalType": "bool",
          "name": "",
          "type": "bool"
        }
      ],
      "stateMutability": "view",
      "type": "function"
    },
    {
      "inputs": [],
      "name": "symbol",
      "outputs": [
        {
          "internalType": "string",
          "name": "",
          "type": "string"
        }
      ],
      "stateMutability": "view",
      "type": "function"
    },
    {
      "inputs": [],
      "name": "tokenSuffix",
      "outputs": [
        {
          "internalType": "string",
          "name": "",
          "type": "string"
        }
      ],
      "stateMutability": "view",
      "type": "function"
    },
    {
      "inputs": [
        {
          "internalType": "uint256",
          "name": "tokenId",
          "type": "uint256"
        }
      ],
      "name": "tokenURI",
      "outputs": [
        {
          "internalType": "string",
          "name": "",
          "type": "string"
        }
      ],
      "stateMutability": "view",
      "type": "function"
    },
    {
      "inputs": [],
      "name": "totalMinted",
      "outputs": [
        {
          "internalType": "uint256",
          "name": "",
          "type": "uint256"
        }
      ],
      "stateMutability": "view",
      "type": "function"
    },
    {
      "inputs": [],
      "name": "totalSupply",
      "outputs": [
        {
          "internalType": "uint256",
          "name": "",
          "type": "uint256"
        }
      ],
      "stateMutability": "view",
      "type": "function"
    },
    {
      "inputs": [
        {
          "internalType": "address",
          "name": "from",
          "type": "address"
        },
        {
          "internalType": "address",
          "name": "to",
          "type": "address"
        },
        {
          "internalType": "uint256",
          "name": "tokenId",
          "type": "uint256"
        }
      ],
      "name": "transferFrom",
      "outputs": [],
      "stateMutability": "payable",
      "type": "function"
    },
    {
      "inputs": [
        {
          "internalType": "address",
          "name": "newOwner",
          "type": "address"
        }
      ],
      "name": "transferOwnership",
      "outputs": [],
      "stateMutability": "nonpayable",
      "type": "function"
    },
    {
      "inputs": [],
      "name": "unrevealedURI",
      "outputs": [
        {
          "internalType": "string",
          "name": "",
          "type": "string"
        }
      ],
      "stateMutability": "view",
      "type": "function"
    },
    {
      "inputs": [
        {
          "internalType": "address",
          "name": "a",
          "type": "address"
        },
        {
          "internalType": "bytes32[]",
          "name": "_merkleProof",
          "type": "bytes32[]"
        }
      ],
      "name": "verifyWLWallet",
      "outputs": [
        {
          "internalType": "bool",
          "name": "",
          "type": "bool"
        }
      ],
      "stateMutability": "view",
      "type": "function"
    },
    {
      "inputs": [],
      "name": "version",
      "outputs": [
        {
          "internalType": "string",
          "name": "",
          "type": "string"
        }
      ],
      "stateMutability": "pure",
      "type": "function"
    },
    {
      "inputs": [
        {
          "internalType": "address",
          "name": "",
          "type": "address"
        }
      ],
      "name": "whitelistMintedCount",
      "outputs": [
        {
          "internalType": "uint256",
          "name": "",
          "type": "uint256"
        }
      ],
      "stateMutability": "view",
      "type": "function"
    },
    {
      "inputs": [
        {
          "internalType": "uint256",
          "name": "amount",
          "type": "uint256"
        }
      ],
      "name": "withdraw",
      "outputs": [],
      "stateMutability": "nonpayable",
      "type": "function"
    },
    {
      "inputs": [],
      "name": "zburn",
      "outputs": [
        {
          "internalType": "uint256",
          "name": "",
          "type": "uint256"
        }
      ],
      "stateMutability": "view",
      "type": "function"
    }
  ],
  "bytecode": "0x7fe7f8298f87d2ee1929e46697d0f96aab1169087ecf1c383fec654de16742cee4600c819055600d5560a060405260006080908152600e90620000439082620005af565b50604080516020810190915260008152600f90620000629082620005af565b5060405180606001604052806035815260200162003deb603591396010906200008c9082620005af565b50601180546001600160a81b03191674427811a5e90621fa8e54245479bc24f566817c360017905566044364c5bb0000601255655af3107a400060135560646014556000601581905560165560036017819055600a6018556001601955601a556002601b55348015620000fe57600080fd5b5060405162003e2038038062003e2083398101604081905262000121916200067b565b733cc6cdda760b79bafa08df41ecfa224f810dceb660016040518060400160405280600781526020016626bcaa37b5b2b760c91b8152506040518060400160405280600781526020016626bcaa37b5b2b760c91b8152508160029081620001899190620005af565b506003620001988282620005af565b5050600160005550620001ab336200033b565b6daaeb6d7670e522a718067333cd4e3b15620002f05780156200023e57604051633e9f1edf60e11b81523060048201526001600160a01b03831660248201526daaeb6d7670e522a718067333cd4e90637d3e3dbe906044015b600060405180830381600087803b1580156200021f57600080fd5b505af115801562000234573d6000803e3d6000fd5b50505050620002f0565b6001600160a01b038216156200028f5760405163a0af290360e01b81523060048201526001600160a01b03831660248201526daaeb6d7670e522a718067333cd4e9063a0af29039060440162000204565b604051632210724360e11b81523060048201526daaeb6d7670e522a718067333cd4e90634420e48690602401600060405180830381600087803b158015620002d657600080fd5b505af1158015620002eb573d6000803e3d6000fd5b505050505b50506001600b55601154620003159061010090046001600160a01b031660966200038d565b601f80546001600160a01b0319166001600160a01b0392909216919091179055620006ad565b600a80546001600160a01b038381166001600160a01b0319831681179093556040519116919082907f8be0079c531659141344cd1fd0a4f28419497f9722a3daafe3b4186f6b6457e090600090a35050565b62000397620003a7565b620003a3828262000409565b5050565b600a546001600160a01b03163314620004075760405162461bcd60e51b815260206004820181905260248201527f4f776e61626c653a2063616c6c6572206973206e6f7420746865206f776e657260448201526064015b60405180910390fd5b565b6127106001600160601b0382161115620004795760405162461bcd60e51b815260206004820152602a60248201527f455243323938313a20726f79616c7479206665652077696c6c206578636565646044820152692073616c65507269636560b01b6064820152608401620003fe565b6001600160a01b038216620004d15760405162461bcd60e51b815260206004820152601960248201527f455243323938313a20696e76616c6964207265636569766572000000000000006044820152606401620003fe565b604080518082019091526001600160a01b039092168083526001600160601b039091166020909201829052600160a01b90910217600855565b634e487b7160e01b600052604160045260246000fd5b600181811c908216806200053557607f821691505b6020821081036200055657634e487b7160e01b600052602260045260246000fd5b50919050565b601f821115620005aa57600081815260208120601f850160051c81016020861015620005855750805b601f850160051c820191505b81811015620005a65782815560010162000591565b5050505b505050565b81516001600160401b03811115620005cb57620005cb6200050a565b620005e381620005dc845462000520565b846200055c565b602080601f8311600181146200061b5760008415620006025750858301515b600019600386901b1c1916600185901b178555620005a6565b600085815260208120601f198616915b828110156200064c578886015182559484019460019091019084016200062b565b50858210156200066b5787850151600019600388901b60f8161c191681555b5050505050600190811b01905550565b6000602082840312156200068e57600080fd5b81516001600160a01b0381168114620006a657600080fd5b9392505050565b61372e80620006bd6000396000f3fe60806040526004361061043c5760003560e01c80636cf217db11610234578063b4512ae61161012e578063e8315742116100b6578063f2fde38b1161007a578063f2fde38b14610cca578063f34439f014610cea578063f4a0a52814610d0a578063f8dcfc0714610d2a578063fe2c7fee14610d4057600080fd5b8063e831574214610c3f578063e8a3d48514610c55578063e91dc56514610c6a578063e985e9c514610c8a578063ed3df8df14610caa57600080fd5b8063c4102d72116100fd578063c4102d7214610b86578063c87b56dd14610bbc578063cdc5cdc114610bdc578063d6492d8114610bfc578063e3491ca114610c1257600080fd5b8063b4512ae614610b27578063b88d4fde14610b3d578063c0130f2f14610b50578063c21b471b14610b6657600080fd5b8063943431bf116101bc578063a124621711610180578063a124621714610a78578063a22cb46514610aae578063a2309ff814610ace578063a6c09bc314610ae7578063ad3e31b714610b0757600080fd5b8063943431bf146109e557806395d89b4114610a05578063984fe43814610a1a5780639b3caa3914610a2d5780639ee631d114610a6357600080fd5b8063715018a611610203578063715018a614610952578063793a9fcd146109675780637cd33c10146109875780638da3de67146109a75780638da5cb5b146109c757600080fd5b80636cf217db146108dd5780636e7cc377146108fd5780637035bf181461091d57806370a082311461093257600080fd5b806334c489431161034557806354fd4d50116102cd5780635de6dc55116102915780635de6dc551461084f57806363172ac11461087c5780636352211e146108925780636817c76c146108b25780636c0360eb146108c857600080fd5b806354fd4d50146107b357806355f804b3146107de57806358941a4d146107fe5780635b8d02d7146108145780635dc96d161461083957600080fd5b806342966c681161031457806342966c681461071957806349a5980a146107395780634cd0273c146107595780634e765e651461077957806354214f691461079957600080fd5b806334c48943146106975780633826dd88146106c457806341f43434146106e457806342842e0e1461070657600080fd5b806317881cbf116103c8578063201c285b11610397578063201c285b146105f257806323b872dd146106055780632a55205a146106185780632e1a7d4d1461065757806333ea51a81461067757600080fd5b806317881cbf1461058957806318160ddd1461059f57806318d0e3e1146105bc5780631bd9b9d9146105dc57600080fd5b80630e4f76b21161040f5780630e4f76b2146104e55780630ef6a94b14610509578063107410be1461052957806311e776fe1461055657806316e45f8e1461057657600080fd5b806301ffc9a71461044157806306fdde0314610476578063081812fc14610498578063095ea7b3146104d0575b600080fd5b34801561044d57600080fd5b5061046161045c366004612d56565b610d60565b60405190151581526020015b60405180910390f35b34801561048257600080fd5b5061048b610d80565b60405161046d9190612dc3565b3480156104a457600080fd5b506104b86104b3366004612dd6565b610e12565b6040516001600160a01b03909116815260200161046d565b6104e36104de366004612e04565b610e56565b005b3480156104f157600080fd5b506104fb601a5481565b60405190815260200161046d565b34801561051557600080fd5b506104e3610524366004612ecf565b610e6f565b34801561053557600080fd5b506104fb610544366004612f18565b601e6020526000908152604090205481565b34801561056257600080fd5b506104e3610571366004612dd6565b610e87565b6104e3610584366004612f7a565b610e94565b34801561059557600080fd5b506104fb60155481565b3480156105ab57600080fd5b5060015460005403600019016104fb565b3480156105c857600080fd5b506104e36105d7366004612dd6565b6110ae565b3480156105e857600080fd5b506104fb600d5481565b6104e3610600366004612f7a565b6110bb565b6104e3610613366004612fc6565b6112a7565b34801561062457600080fd5b50610638610633366004613007565b6112d2565b604080516001600160a01b03909316835260208301919091520161046d565b34801561066357600080fd5b506104e3610672366004612dd6565b611380565b34801561068357600080fd5b506104e3610692366004612f18565b61143b565b3480156106a357600080fd5b506104fb6106b2366004612f18565b601d6020526000908152604090205481565b3480156106d057600080fd5b506104e36106df366004612dd6565b61146b565b3480156106f057600080fd5b506104b86daaeb6d7670e522a718067333cd4e81565b6104e3610714366004612fc6565b611478565b34801561072557600080fd5b506104e3610734366004612dd6565b61149d565b34801561074557600080fd5b506104e3610754366004613037565b6114ab565b34801561076557600080fd5b506104e3610774366004612dd6565b6114c6565b34801561078557600080fd5b506104e3610794366004612dd6565b6114d3565b3480156107a557600080fd5b506011546104619060ff1681565b3480156107bf57600080fd5b506040805180820190915260028152612e3160f01b602082015261048b565b3480156107ea57600080fd5b506104e36107f9366004612ecf565b6114e0565b34801561080a57600080fd5b506104fb601b5481565b34801561082057600080fd5b506011546104b89061010090046001600160a01b031681565b34801561084557600080fd5b506104fb60165481565b34801561085b57600080fd5b5061086f61086a366004612f18565b6114f4565b60405161046d9190613054565b34801561088857600080fd5b506104fb60185481565b34801561089e57600080fd5b506104b86108ad366004612dd6565b6115fd565b3480156108be57600080fd5b506104fb60125481565b3480156108d457600080fd5b5061048b611608565b3480156108e957600080fd5b506104e36108f8366004612dd6565b611696565b34801561090957600080fd5b50601f546104b8906001600160a01b031681565b34801561092957600080fd5b5061048b6116a3565b34801561093e57600080fd5b506104fb61094d366004612f18565b6116b0565b34801561095e57600080fd5b506104e36116ff565b34801561097357600080fd5b506104e3610982366004612e04565b611713565b34801561099357600080fd5b506104e36109a236600461308c565b61175e565b3480156109b357600080fd5b506104e36109c2366004612dd6565b611a26565b3480156109d357600080fd5b50600a546001600160a01b03166104b8565b3480156109f157600080fd5b506104e3610a00366004612dd6565b611a33565b348015610a1157600080fd5b5061048b611a5e565b6104e3610a28366004612f7a565b611a6d565b348015610a3957600080fd5b506104fb610a48366004612f18565b6001600160a01b03166000908152601d602052604090205490565b348015610a6f57600080fd5b5061048b611cb2565b348015610a8457600080fd5b506104fb610a93366004612f18565b6001600160a01b03166000908152601c602052604090205490565b348015610aba57600080fd5b506104e3610ac9366004613132565b611cbf565b348015610ada57600080fd5b50600054600019016104fb565b348015610af357600080fd5b50610461610b0236600461316b565b611cd3565b348015610b1357600080fd5b506104e3610b22366004612dd6565b611d16565b348015610b3357600080fd5b506104fb60195481565b6104e3610b4b3660046131a7565b611d23565b348015610b5c57600080fd5b506104fb60135481565b348015610b7257600080fd5b506104e3610b81366004613227565b611d50565b348015610b9257600080fd5b506104fb610ba1366004612f18565b6001600160a01b03166000908152601e602052604090205490565b348015610bc857600080fd5b5061048b610bd7366004612dd6565b611d62565b348015610be857600080fd5b506104e3610bf7366004612e04565b611e8a565b348015610c0857600080fd5b506104fb600c5481565b348015610c1e57600080fd5b506104fb610c2d366004612f18565b601c6020526000908152604090205481565b348015610c4b57600080fd5b506104fb60145481565b348015610c6157600080fd5b5061048b611ee4565b348015610c7657600080fd5b506104e3610c85366004612dd6565b611f04565b348015610c9657600080fd5b50610461610ca5366004613261565b611f11565b348015610cb657600080fd5b506104e3610cc5366004612f18565b611f3f565b348015610cd657600080fd5b506104e3610ce5366004612f18565b611f69565b348015610cf657600080fd5b506104e3610d05366004612dd6565b611fdf565b348015610d1657600080fd5b506104e3610d25366004612dd6565b611fec565b348015610d3657600080fd5b506104fb60175481565b348015610d4c57600080fd5b506104e3610d5b366004612ecf565b611ff9565b6000610d6b8261200d565b80610d7a5750610d7a8261205b565b92915050565b606060028054610d8f9061328f565b80601f0160208091040260200160405190810160405280929190818152602001828054610dbb9061328f565b8015610e085780601f10610ddd57610100808354040283529160200191610e08565b820191906000526020600020905b815481529060010190602001808311610deb57829003601f168201915b5050505050905090565b6000610e1d82612090565b610e3a576040516333d1c03960e21b815260040160405180910390fd5b506000908152600660205260409020546001600160a01b031690565b81610e60816120c5565b610e6a838361217e565b505050565b610e7761221e565b600f610e83828261330f565b5050565b610e8f61221e565b601455565b610e9c612278565b601554600314610ef35760405162461bcd60e51b815260206004820152601c60248201527f5075626c6963204d696e74206973206e6f7420617661696c61626c650000000060448201526064015b60405180910390fd5b333214610f305760405162461bcd60e51b815260206004820152600b60248201526a446972656374206f6e6c7960a81b6044820152606401610eea565b60145483610f416000546000190190565b610f4b91906133e5565b1115610f695760405162461bcd60e51b8152600401610eea906133f8565b601854336000908152601d6020526040902054610f879085906133e5565b1115610fd55760405162461bcd60e51b815260206004820152601a60248201527f4578636565646564205075626c696320416c6c6f636174696f6e0000000000006044820152606401610eea565b600033604051602001610fe8919061343b565b60405160208183030381529060405280519060200120905060006110108484600c54856122d1565b90508015611048576013546110259086613458565b34146110435760405162461bcd60e51b8152600401610eea9061346f565b611073565b6012546110559086613458565b34146110735760405162461bcd60e51b8152600401610eea9061346f565b61107d33866122eb565b336000908152601d60205260408120805487929061109c9084906133e5565b90915550506001600b5550610e6a9050565b6110b661221e565b601b55565b6110c3612278565b6015546002146111205760405162461bcd60e51b815260206004820152602260248201527f57686974656c697374204d696e74696e67206973206e6f7420617661696c61626044820152616c6560f01b6064820152608401610eea565b601454836111316000546000190190565b61113b91906133e5565b11156111595760405162461bcd60e51b8152600401610eea906133f8565b601b54336000908152601c60205260409020546111779085906133e5565b11156111be5760405162461bcd60e51b815260206004820152601660248201527522bc31b2b2b232b2102ba61020b63637b1b0ba34b7b760511b6044820152606401610eea565b6013546111cb9084613458565b34146111e95760405162461bcd60e51b8152600401610eea9061346f565b6000336040516020016111fc919061343b565b6040516020818303038152906040528051906020012090506112228383600c54846122d1565b61126e5760405162461bcd60e51b815260206004820152601b60248201527f496e76616c69642050726f6f6620666f722057686974656c69737400000000006044820152606401610eea565b61127833856122eb565b336000908152601c6020526040812080548692906112979084906133e5565b90915550506001600b5550505050565b826001600160a01b03811633146112c1576112c1336120c5565b6112cc848484612351565b50505050565b60008281526009602090815260408083208151808301909252546001600160a01b038116808352600160a01b9091046001600160601b03169282019290925282916113475750604080518082019091526008546001600160a01b0381168252600160a01b90046001600160601b031660208201525b602081015160009061271090611366906001600160601b031687613458565b61137091906134bc565b91519350909150505b9250929050565b61138861221e565b804710156113cf5760405162461bcd60e51b8152602060048201526014602482015273496e73756666696369656e742062616c616e636560601b6044820152606401610eea565b60115481906113ec9061010090046001600160a01b0316826124e2565b601154604080516101009092046001600160a01b03168252602082018390527fdf20fd1e76bc69d672e4814fafb2c449bba3a5369d8359adf9e05e6fde87b05691015b60405180910390a15050565b61144361221e565b601180546001600160a01b0390921661010002610100600160a81b0319909216919091179055565b61147361221e565b601355565b826001600160a01b038116331461149257611492336120c5565b6112cc8484846125fb565b6114a8816001612616565b50565b6114b361221e565b6011805460ff1916911515919091179055565b6114ce61221e565b601755565b6114db61221e565b601955565b6114e861221e565b600e610e83828261330f565b60606000806000611504856116b0565b905060008167ffffffffffffffff81111561152157611521612e30565b60405190808252806020026020018201604052801561154a578160200160208202803683370190505b50905061157760408051608081018252600080825260208201819052918101829052606081019190915290565b60015b8386146115f15761158a8161274e565b915081604001516115e95781516001600160a01b0316156115aa57815194505b876001600160a01b0316856001600160a01b0316036115e957808387806001019850815181106115dc576115dc6134d0565b6020026020010181815250505b60010161157a565b50909695505050505050565b6000610d7a826127cd565b600e80546116159061328f565b80601f01602080910402602001604051908101604052809291908181526020018280546116419061328f565b801561168e5780601f106116635761010080835404028352916020019161168e565b820191906000526020600020905b81548152906001019060200180831161167157829003601f168201915b505050505081565b61169e61221e565b600d55565b601080546116159061328f565b60006001600160a01b0382166116d9576040516323d3ad8160e21b815260040160405180910390fd5b506001600160a01b031660009081526005602052604090205467ffffffffffffffff1690565b61170761221e565b6117116000612843565b565b61171b61221e565b6014548161172c6000546000190190565b61173691906133e5565b11156117545760405162461bcd60e51b8152600401610eea906133f8565b610e8382826122eb565b611766612278565b6016546001146117aa5760405162461bcd60e51b815260206004820152600f60248201526e10d85b9b9bdd08109d5c9b8816595d608a1b6044820152606401610eea565b601754815110156117ee5760405162461bcd60e51b815260206004820152600e60248201526d13995959081b5bdc994819dbdb1960921b6044820152606401610eea565b60175481516117fd91906134e6565b1561184a5760405162461bcd60e51b815260206004820152601e60248201527f57726f6e6720616d6f756e74206f6620746f6b656e7320746f206275726e00006044820152606401610eea565b6000601754825161185b91906134bc565b90506014548161186e6000546000190190565b61187891906133e5565b11156118965760405162461bcd60e51b8152600401610eea906134fa565b60005b8251811015611a1057601f5483516000916001600160a01b031690636352211e908690859081106118cc576118cc6134d0565b60200260200101516040518263ffffffff1660e01b81526004016118f291815260200190565b6020604051808303816000875af1158015611911573d6000803e3d6000fd5b505050506040513d601f19601f82011682018060405250810190611935919061353d565b9050336001600160a01b0382161461197b5760405162461bcd60e51b81526020600482015260096024820152682737ba1027bbb732b960b91b6044820152606401610eea565b601f5484516001600160a01b03909116906342966c68908690859081106119a4576119a46134d0565b60200260200101516040518263ffffffff1660e01b81526004016119ca91815260200190565b600060405180830381600087803b1580156119e457600080fd5b505af11580156119f8573d6000803e3d6000fd5b50505050508080611a089061355a565b915050611899565b50611a1b33826122eb565b506114a86001600b55565b611a2e61221e565b601855565b611a3b61221e565b601581905560018110611a4e5760016016555b806000036114a857600060165550565b606060038054610d8f9061328f565b611a75612278565b601554600114611ad25760405162461bcd60e51b815260206004820152602260248201527f676f4c697374204d696e74205068617365206973206e6f7420617661696c61626044820152616c6560f01b6064820152608401610eea565b60145483611ae36000546000190190565b611aed91906133e5565b1115611b0b5760405162461bcd60e51b8152600401610eea906134fa565b336000908152601e6020526040902054601a54611b2885836133e5565b1115611b765760405162461bcd60e51b815260206004820152601860248201527f4578636565646564204c49535420416c6c6f636174696f6e00000000000000006044820152606401610eea565b600033604051602001611b89919061343b565b604051602081830303815290604052805190602001209050611baf8484600d54846122d1565b611bfb5760405162461bcd60e51b815260206004820152601860248201527f496e76616c69642050726f6f6620666f7220476f4c69737400000000000000006044820152606401610eea565b6019548210611c3457601354611c119086613458565b3414611c2f5760405162461bcd60e51b8152600401610eea9061346f565b611c89565b6000611c4086846133e5565b9050601954811115611c8757601954611c599082613573565b905060135481611c699190613458565b3414611c875760405162461bcd60e51b8152600401610eea9061346f565b505b611c9333866122eb565b336000908152601e60205260408120805487929061109c9084906133e5565b600f80546116159061328f565b81611cc9816120c5565b610e6a8383612895565b60008084604051602001611ce7919061343b565b604051602081830303815290604052805190602001209050611d0d8484600c54846122d1565b95945050505050565b611d1e61221e565b600c55565b836001600160a01b0381163314611d3d57611d3d336120c5565b611d4985858585612901565b5050505050565b611d5861221e565b610e838282612945565b6060611d6d82612090565b611db95760405162461bcd60e51b815260206004820152601b60248201527f5552495175657279466f724e6f6e6578697374656e74546f6b656e00000000006044820152606401610eea565b60115460ff16611e555760108054611dd09061328f565b80601f0160208091040260200160405190810160405280929190818152602001828054611dfc9061328f565b8015611e495780601f10611e1e57610100808354040283529160200191611e49565b820191906000526020600020905b815481529060010190602001808311611e2c57829003601f168201915b50505050509050919050565b600e611e6083612a42565b600f604051602001611e74939291906135f9565b6040516020818303038152906040529050919050565b611e9261221e565b80471015611ed95760405162461bcd60e51b8152602060048201526014602482015273496e73756666696369656e742062616c616e636560601b6044820152606401610eea565b80610e6a83826124e2565b60606040518060600160405280603581526020016136a460359139905090565b611f0c61221e565b601a55565b6001600160a01b03918216600090815260076020908152604080832093909416825291909152205460ff1690565b611f4761221e565b601f80546001600160a01b0319166001600160a01b0392909216919091179055565b611f7161221e565b6001600160a01b038116611fd65760405162461bcd60e51b815260206004820152602660248201527f4f776e61626c653a206e6577206f776e657220697320746865207a65726f206160448201526564647265737360d01b6064820152608401610eea565b6114a881612843565b611fe761221e565b601655565b611ff461221e565b601255565b61200161221e565b6010610e83828261330f565b60006301ffc9a760e01b6001600160e01b03198316148061203e57506380ac58cd60e01b6001600160e01b03198316145b80610d7a5750506001600160e01b031916635b5e139f60e01b1490565b60006001600160e01b0319821663152a902d60e11b1480610d7a57506301ffc9a760e01b6001600160e01b0319831614610d7a565b6000816001111580156120a4575060005482105b8015610d7a575050600090815260046020526040902054600160e01b161590565b6daaeb6d7670e522a718067333cd4e3b156114a857604051633185c44d60e21b81523060048201526001600160a01b03821660248201526daaeb6d7670e522a718067333cd4e9063c617113490604401602060405180830381865afa158015612132573d6000803e3d6000fd5b505050506040513d601f19601f82011682018060405250810190612156919061362c565b6114a857604051633b79c77360e21b81526001600160a01b0382166004820152602401610eea565b6000612189826115fd565b9050336001600160a01b038216146121c2576121a58133611f11565b6121c2576040516367d9dca160e11b815260040160405180910390fd5b60008281526006602052604080822080546001600160a01b0319166001600160a01b0387811691821790925591518593918516917f8c5be1e5ebec7d5bd14f71427d1e84f3dd0314c0f7b2291e5b200ac8c7c3b92591a4505050565b600a546001600160a01b031633146117115760405162461bcd60e51b815260206004820181905260248201527f4f776e61626c653a2063616c6c6572206973206e6f7420746865206f776e65726044820152606401610eea565b6002600b54036122ca5760405162461bcd60e51b815260206004820152601f60248201527f5265656e7472616e637947756172643a207265656e7472616e742063616c6c006044820152606401610eea565b6002600b55565b6000826122df868685612a86565b1490505b949350505050565b6122f58282612ad2565b7f3a5398bda6f1f57d6c96834fa9bf02b5517bdc847d14312015a917ba421c31c9600161232b6001546000546000199190030190565b6123359190613573565b604080519182526001600160a01b03851660208301520161142f565b600061235c826127cd565b9050836001600160a01b0316816001600160a01b03161461238f5760405162a1148160e81b815260040160405180910390fd5b600082815260066020526040902080546123bb8187335b6001600160a01b039081169116811491141790565b6123e6576123c98633611f11565b6123e657604051632ce44b5f60e11b815260040160405180910390fd5b6001600160a01b03851661240d57604051633a954ecd60e21b815260040160405180910390fd5b801561241857600082555b6001600160a01b038681166000908152600560205260408082208054600019019055918716808252919020805460010190554260a01b17600160e11b17600085815260046020526040812091909155600160e11b841690036124aa576001840160008181526004602052604081205490036124a85760005481146124a85760008181526004602052604090208490555b505b83856001600160a01b0316876001600160a01b03166000805160206136d983398151915260405160405180910390a45b505050505050565b804710156125325760405162461bcd60e51b815260206004820152601d60248201527f416464726573733a20696e73756666696369656e742062616c616e63650000006044820152606401610eea565b6000826001600160a01b03168260405160006040518083038185875af1925050503d806000811461257f576040519150601f19603f3d011682016040523d82523d6000602084013e612584565b606091505b5050905080610e6a5760405162461bcd60e51b815260206004820152603a60248201527f416464726573733a20756e61626c6520746f2073656e642076616c75652c207260448201527f6563697069656e74206d617920686176652072657665727465640000000000006064820152608401610eea565b610e6a83838360405180602001604052806000815250611d23565b6000612621836127cd565b90508060008061263f86600090815260066020526040902080549091565b91509150841561267f576126548184336123a6565b61267f576126628333611f11565b61267f57604051632ce44b5f60e11b815260040160405180910390fd5b801561268a57600082555b6001600160a01b038316600081815260056020526040902080546fffffffffffffffffffffffffffffffff0190554260a01b17600360e01b17600087815260046020526040812091909155600160e11b85169003612718576001860160008181526004602052604081205490036127165760005481146127165760008181526004602052604090208590555b505b60405186906000906001600160a01b038616906000805160206136d9833981519152908390a45050600180548101905550505050565b604080516080810182526000808252602082018190529181018290526060810191909152600082815260046020526040902054610d7a90604080516080810182526001600160a01b038316815260a083901c67ffffffffffffffff166020820152600160e01b831615159181019190915260e89190911c606082015290565b6000818060011161282a5760005481101561282a5760008181526004602052604081205490600160e01b82169003612828575b80600003612821575060001901600081815260046020526040902054612800565b9392505050565b505b604051636f96cda160e11b815260040160405180910390fd5b600a80546001600160a01b038381166001600160a01b0319831681179093556040519116919082907f8be0079c531659141344cd1fd0a4f28419497f9722a3daafe3b4186f6b6457e090600090a35050565b3360008181526007602090815260408083206001600160a01b03871680855290835292819020805460ff191686151590811790915590519081529192917f17307eab39ab6107e8899845ad3d59bd9653f200f220920489ca2b5937696c31910160405180910390a35050565b61290c8484846112a7565b6001600160a01b0383163b156112cc5761292884848484612aec565b6112cc576040516368d2bf6b60e11b815260040160405180910390fd5b6127106001600160601b03821611156129b35760405162461bcd60e51b815260206004820152602a60248201527f455243323938313a20726f79616c7479206665652077696c6c206578636565646044820152692073616c65507269636560b01b6064820152608401610eea565b6001600160a01b038216612a095760405162461bcd60e51b815260206004820152601960248201527f455243323938313a20696e76616c6964207265636569766572000000000000006044820152606401610eea565b604080518082019091526001600160a01b039092168083526001600160601b039091166020909201829052600160a01b90910217600855565b606060a06040510180604052602081039150506000815280825b600183039250600a81066030018353600a900480612a5c5750819003601f19909101908152919050565b600081815b84811015612ac957612ab582878784818110612aa957612aa96134d0565b90506020020135612bd4565b915080612ac18161355a565b915050612a8b565b50949350505050565b610e83828260405180602001604052806000815250612c00565b604051630a85bd0160e11b81526000906001600160a01b0385169063150b7a0290612b21903390899088908890600401613649565b6020604051808303816000875af1925050508015612b5c575060408051601f3d908101601f19168201909252612b5991810190613686565b60015b612bba573d808015612b8a576040519150601f19603f3d011682016040523d82523d6000602084013e612b8f565b606091505b508051600003612bb2576040516368d2bf6b60e11b815260040160405180910390fd5b805181602001fd5b6001600160e01b031916630a85bd0160e11b1490506122e3565b6000818310612bf0576000828152602084905260409020612821565b5060009182526020526040902090565b612c0a8383612c66565b6001600160a01b0383163b15610e6a576000548281035b612c346000868380600101945086612aec565b612c51576040516368d2bf6b60e11b815260040160405180910390fd5b818110612c21578160005414611d4957600080fd5b6000805490829003612c8b5760405163b562e8dd60e01b815260040160405180910390fd5b6001600160a01b03831660008181526005602090815260408083208054680100000000000000018802019055848352600490915281206001851460e11b4260a01b178317905582840190839083906000805160206136d98339815191528180a4600183015b818114612d1657808360006000805160206136d9833981519152600080a4600101612cf0565b5081600003612d3757604051622e076360e81b815260040160405180910390fd5b60005550505050565b6001600160e01b0319811681146114a857600080fd5b600060208284031215612d6857600080fd5b813561282181612d40565b60005b83811015612d8e578181015183820152602001612d76565b50506000910152565b60008151808452612daf816020860160208601612d73565b601f01601f19169290920160200192915050565b6020815260006128216020830184612d97565b600060208284031215612de857600080fd5b5035919050565b6001600160a01b03811681146114a857600080fd5b60008060408385031215612e1757600080fd5b8235612e2281612def565b946020939093013593505050565b634e487b7160e01b600052604160045260246000fd5b604051601f8201601f1916810167ffffffffffffffff81118282101715612e6f57612e6f612e30565b604052919050565b600067ffffffffffffffff831115612e9157612e91612e30565b612ea4601f8401601f1916602001612e46565b9050828152838383011115612eb857600080fd5b828260208301376000602084830101529392505050565b600060208284031215612ee157600080fd5b813567ffffffffffffffff811115612ef857600080fd5b8201601f81018413612f0957600080fd5b6122e384823560208401612e77565b600060208284031215612f2a57600080fd5b813561282181612def565b60008083601f840112612f4757600080fd5b50813567ffffffffffffffff811115612f5f57600080fd5b6020830191508360208260051b850101111561137957600080fd5b600080600060408486031215612f8f57600080fd5b83359250602084013567ffffffffffffffff811115612fad57600080fd5b612fb986828701612f35565b9497909650939450505050565b600080600060608486031215612fdb57600080fd5b8335612fe681612def565b92506020840135612ff681612def565b929592945050506040919091013590565b6000806040838503121561301a57600080fd5b50508035926020909101359150565b80151581146114a857600080fd5b60006020828403121561304957600080fd5b813561282181613029565b6020808252825182820181905260009190848201906040850190845b818110156115f157835183529284019291840191600101613070565b6000602080838503121561309f57600080fd5b823567ffffffffffffffff808211156130b757600080fd5b818501915085601f8301126130cb57600080fd5b8135818111156130dd576130dd612e30565b8060051b91506130ee848301612e46565b818152918301840191848101908884111561310857600080fd5b938501935b838510156131265784358252938501939085019061310d565b98975050505050505050565b6000806040838503121561314557600080fd5b823561315081612def565b9150602083013561316081613029565b809150509250929050565b60008060006040848603121561318057600080fd5b833561318b81612def565b9250602084013567ffffffffffffffff811115612fad57600080fd5b600080600080608085870312156131bd57600080fd5b84356131c881612def565b935060208501356131d881612def565b925060408501359150606085013567ffffffffffffffff8111156131fb57600080fd5b8501601f8101871361320c57600080fd5b61321b87823560208401612e77565b91505092959194509250565b6000806040838503121561323a57600080fd5b823561324581612def565b915060208301356001600160601b038116811461316057600080fd5b6000806040838503121561327457600080fd5b823561327f81612def565b9150602083013561316081612def565b600181811c908216806132a357607f821691505b6020821081036132c357634e487b7160e01b600052602260045260246000fd5b50919050565b601f821115610e6a57600081815260208120601f850160051c810160208610156132f05750805b601f850160051c820191505b818110156124da578281556001016132fc565b815167ffffffffffffffff81111561332957613329612e30565b61333d81613337845461328f565b846132c9565b602080601f831160018114613372576000841561335a5750858301515b600019600386901b1c1916600185901b1785556124da565b600085815260208120601f198616915b828110156133a157888601518255948401946001909101908401613382565b50858210156133bf5787850151600019600388901b60f8161c191681555b5050505050600190811b01905550565b634e487b7160e01b600052601160045260246000fd5b80820180821115610d7a57610d7a6133cf565b60208082526023908201527f4e6f7420656e6f75676820746f6b656e7320617661696c61626c6520746f206d6040820152621a5b9d60ea1b606082015260800190565b60609190911b6bffffffffffffffffffffffff1916815260140190565b8082028115828204841417610d7a57610d7a6133cf565b6020808252601c908201527f496e636f727265637420616d6f756e74206f66204554482073656e7400000000604082015260600190565b634e487b7160e01b600052601260045260246000fd5b6000826134cb576134cb6134a6565b500490565b634e487b7160e01b600052603260045260246000fd5b6000826134f5576134f56134a6565b500690565b60208082526023908201527f4e6f7420656e6f75676820617661696c61626c6520746f6b656e7320746f206d6040820152621a5b9d60ea1b606082015260800190565b60006020828403121561354f57600080fd5b815161282181612def565b60006001820161356c5761356c6133cf565b5060010190565b81810381811115610d7a57610d7a6133cf565b600081546135938161328f565b600182811680156135ab57600181146135c0576135ef565b60ff19841687528215158302870194506135ef565b8560005260208060002060005b858110156135e65781548a8201529084019082016135cd565b50505082870194505b5050505092915050565b60006136058286613586565b8451613615818360208901612d73565b61362181830186613586565b979650505050505050565b60006020828403121561363e57600080fd5b815161282181613029565b6001600160a01b038581168252841660208201526040810183905260806060820181905260009061367c90830184612d97565b9695505050505050565b60006020828403121561369857600080fd5b815161282181612d4056fe697066733a2f2f516d515a424b50567974674357396d656e6f4c467442427253485945557556534d61564a6e7a4562416b65345176ddf252ad1be2c89b69c2b068fc378daa952ba7f163c4a11628f55a4df523b3efa264697066735822122093e6c6516da7bbec9abb0897bed05c4581cd76c7171f84d938622d0c099acc7e64736f6c63430008110033697066733a2f2f516d62554b656541566345785762436834594a644b566948684d4d5a374b45625859327365714d347a454c6a5465",
  "linkReferences": {},
  "deployedLinkReferences": {}
}